:020000040800F2
:100000008008002055020008291500082115000865
:10001000251500084D040008F11500080000000037
:100020000000000000000000000000003115000882
:100030005D040008000000002D15000835150008BB
:100040006F0200086F0200086F0200086F020008CC
:100050006F0200086F0200086F0200086F020008BC
:100060006F0200086F0200086F0200086F020008AC
:100070006F0200086F0200086F0200086F0200089C
:100080006F0200086F0200086F0200086F0200088C
:10009000510400086F0200086F0200086F02000898
:1000A0006F0200086F0200086F0200086F0200086C
:1000B0006F0200086F0200086F0200086F0200085C
:1000C0006F0200086F0200086F0200086F0200084C
:1000D0006F0200086F0200086F0200086F0200083C
:1000E0006F0200086F0200086F0200086F0200082C
:1000F0006F0200086F0200086F0200086F0200081C
:100100006F0200086F0200086F0200086F0200080B
:100110006F0200086F0200086F0200086F020008FB
:100120006F0200086F0200086F0200086F020008EB
:100130006F0200086F0200086F0200086F020008DB
:100140006F0200086F0200086F0200086F020008CB
:100150006F0200086F0200086F0200086F020008BB
:100160006F0200086F0200086F0200086F020008AB
:100170006F0200086F0200086F0200080000000014
:100180006F0200086F02000800F002F800F052F859
:1001900014A696E8000CB244B344DA4501D100F04D
:1001A00049F8BAE80F000FA696E83000A5EB040561
:1001B00004EB0607AAEB0704A7F101074FEA1515A0
:1001C0004FEA3414A4F10104AC4201D300F032F838
:1001D00013F0010F18BFFB1A43F0010300F001F800
:1001E000DBE71847FC1F00001C200000103A24BF6A
:1001F00078C878C1FAD8520724BF30C830C144BF8C
:1002000004680C6070470000704700000023002461
:1002100000250026103A28BF78C1FBD8520728BF16
:1002200030C148BF0B6070471FB501F0C4FF1FBD50
:1002300010B510BD00F0D0F81146FFF7F5FF01F042
:10024000D9F900F0EEF803B4FFF7F2FF03BC00F0B9
:10025000F5F800000948804709480047FEE7FEE737
:10026000FEE7FEE7FEE7FEE7FEE7FEE7FEE7FEE766
:1002700004480549054A064B70470000DD15000893
:1002800089010008800200208008002080040020EE
:100290008004002053EA020C00F069802DE9F04B45
:1002A0004FF00006002B1FBFB3FA83F503FA05F4E5
:1002B00024FA05F65E4012BF1643B2FA82F502FA3E
:1002C00005F4C5F120051EBF22FA05FC44EA0C0422
:1002D000203556EA044C4FEA144418BF641C4FF012
:1002E00000084FF00009904271EB030C39D300294C
:1002F00019BFB1FA81F701FA07F6B0FA80F700FAF0
:1003000007F6C7F120071EBF20FA07FC46EA0C06D5
:100310002037B6FBF4FCA7EB0507103F07F01F0BD7
:10032000CBF120062CFA06F60CFA0BFB44BFB346C1
:100330000026202FA4BF5E464FF0000B5BEA060CA0
:1003400008BF4FF0010B19EB0B0948EB0608ABFB9C
:10035000027C06FB02CC0BFB03CCC01B71EB0C0137
:10036000C1E70B46024641464846BDE8F08B13B54F
:10037000084318BF4FF0FF300146AFF30080BDE8DF
:100380001C4070474FF0000200B513469446964655
:10039000203922BFA0E80C50A0E80C50B1F1200198
:1003A000BFF4F7AF090728BFA0E80C5048BF0CC046
:1003B0005DF804EB890028BF40F8042B08BF7047A4
:1003C00048BF20F8022B11F0804F18BF00F8012B16
:1003D0007047704770477047754600F02BF8AE467F
:1003E00005006946534620F00700854618B020B541
:1003F000FFF73EFFBDE820404FF000064FF000073A
:100400004FF000084FF0000BAC46ACE8C009ACE878
:10041000C009ACE8C009ACE8C00921F007018D466D
:10042000704710B50446AFF300802046BDE8104089
:10043000FFF709BF0048704710000020014918204D
:10044000ABBEFEE72600020070470000FEE700009A
:1004500040F27000C2F2000000F076B97047000070
:1004600090F82020013A012A08D8006800F114020F
:100470000020136819431160704700BF00F1240287
:1004800001204FF480211368194311607047000068
:1004900010B590F820E0D0F800C0AEF1010EBEF12A
:1004A000010FDCF808E011D81EF0E05F18D0CEF3A1
:1004B00001640120A04018608B68DBB1D1F804E032
:1004C000C86840EACE0040EA030E17E000F12403BA
:1004D00001204FF480211A681143196010BD00BF3C
:1004E00000F1240301204FF400111A681143196030
:1004F00010BD00BF0868CB6843EA405E0CF5C070D1
:1005000000EB0413240140F804E00C69184640F89D
:10051000044F097D012903D1016841F48071016014
:1005200050680121D8601068986000201A68114353
:10053000196010BD90F82020013A012A30D8B0B5DA
:1005400046F20060C4F20000026842F0010202605C
:10055000026822F47C520260D1F814E0CC694A6A45
:100560000368012C43EA022202600EF01F024FF0E2
:10057000010303FA02F2C3696FEA020C23EA0203E1
:10058000C36113D02CBBC36803EA0C03C360CB6800
:100590008C8844EA034300EBCE0423640B4611E04D
:1005A000416A41F48021416201207047C3681343CE
:1005B000C3600B688C8844EA034300EBCE042364D9
:1005C00001F10C038C681B8843EA044300EBCE0462
:1005D000636443688D6943EA0204D1F810E0096A54
:1005E000002D08BF03EA0C0444604369BEF1000F0C
:1005F00043EA020408BF03EA0C040129446102D162
:10060000C1691143C161016821F00101016000204D
:10061000B0BD000070470000B0B590F82040013C2C
:10062000012C7DD8D0F800C000290CBFDCF80C40AC
:10063000DCF81040A4077DD00CF5D8754FEA011CFA
:1006400055F80C4014F00404946055F80CE005EBE8
:10065000011C19BF4FEADE0555604FEA5E55156073
:10066000DCF80050E64605F00205D5605EF8044F60
:1006700024075ABFDEF8004004F00F040824146178
:10068000DEF800400029C4F307249461DEF800502E
:100690004FEA15455561DCF808201A70026802EB34
:1006A0000112D2F8B8214FEA12225A70026802EB06
:1006B0000112D2F8B8214FEA12429A70026802EB96
:1006C0000112D2F8B8214FEA1262DA70026802EB26
:1006D0000112D2F8BC211A71026802EB0112D2F8A1
:1006E000BC214FEA12225A71026802EB0112D2F8C1
:1006F000BC214FEA12429A71026802EB0112D2F851
:10070000BC214FEA1262DA7100680CBF00F10C01E3
:1007100000F11001002020220B681A430A60B0BDCE
:1007200000F1240101204FF480220B681A430A6073
:10073000B0BD00BF00F1240101204FF400120B688E
:100740001A430A60B0BD00002DE9F04F81B00446A5
:1007500000684669D0F804908768D0F80CB0D0F8EB
:1007600010A0D0F81880F10704D1002530071DD45F
:1007700024E000BFF90710D00121BA07816009D435
:10078000780700F1AF80380700F1B680204600F00E
:1007900035FA02E0204600F033FA0025F80500F1B2
:1007A0008780F80300F1B180300707D51BF01000F7
:1007B00004D0206845F400751021C160700708D589
:1007C0001BF0080005D020680821C160204600F019
:1007D000A7F9B00706D52068C068800702D0204678
:1007E00000F0A0F9700607D51AF0100004D02068B8
:1007F00045F4806510210161B00608D51AF00800A3
:1008000005D0206808210161204600F0C3F9F006F8
:1008100006D520680069800702D0204600F0BCF9A8
:10082000B00308D519F0100005D0206810214160F0
:10083000204600F0B3F9F00308D519F0080005D000
:10084000206808214160204600F0E4F9300440F1BE
:100850009B805FEA497040F1948006F4807008EA5A
:10086000102028435FEA8871014648BF41F0020129
:10087000B20558BF01465FEA48700D4648BF45F0D3
:100880000405700558BF0D46300540F17A8018F018
:10089000700000F076801038000905286CD8DFE879
:1008A00000F003655D61596945F0080564E000BF2B
:1008B00020684FF48071BA0581600BD4780515D497
:1008C00038051DD4204600F09DF9F8037FF56CAF84
:1008D0001BE000BF204600F097F9F8037FF564AFF6
:1008E00013E000BF4FF4006558E700BF05F5005561
:1008F000F8037FF559AF08E04FF480554EE700BF8D
:1009000005F58045F8037FF54FAF20684FF480313F
:10091000BA0381600AD4780310D4380314D4204673
:1009200000F074F930073FF541AF47E7204600F08B
:100930006FF930073FF53AAF40E700BF05F50045D6
:1009400030073FF533AF39E705F5803530073FF520
:100950002DAF33E745F080050EE000BF45F02005E0
:100960000AE000BF45F0400506E000BF45F0100575
:1009700002E000BF45F480752068816921F07001B4
:10098000816120680421416055B1606A40EA050137
:100990002046616201B0BDE8F04FFFF73BBE00BFEB
:1009A00001B0BDE8F08F0000002804BF01207047AF
:1009B000B0B5044690F8200010B9204600F06EF85B
:1009C0002068016841F00101016000F015FA054658
:1009D00020684168C90705D100F00EFA401B0B28BA
:1009E000F6D310E0016821F00201016000F004FA82
:1009F000054600BF2068416889070DD500F0FCF965
:100A0000401B0B28F6D3606A052140F40030606279
:100A1000012084F82010B0BD217E0268012922F057
:100A2000800208BF80320260617E0268012922F0E4
:100A3000400208BF40320260A17E0268012922F014
:100A4000200208BF20320260E17E0268012922F004
:100A5000100218BF10320260217F0268012922F0C3
:100A6000080208BF08320260617F0268012922F093
:100A7000040208BF04320260D4E901C2D4E903359C
:100A800061691A432A431143ACF101021143C16168
:100A900000200121606284F82010B0BD80B586B0CE
:100AA00046F200410068C4F200010022884205922B
:100AB000CDE903220292019202D006B080BD00BFB0
:100AC00043F630000092C4F20200036943F0007361
:100AD0000361036903F000730093009B00920368B5
:100AE00043F0080303600068022300F00800009050
:100AF00000980320019004900920059001F5D4305E
:100B000001A9CDE9023200F09BF814200021002257
:100B100000F0F4F9142000F0DFF906B080BD000009
:100B20007047000010B58AB003AA01AB0021FFF79F
:100B300073FD08B10AB010BD05980028FAD10798D6
:100B40000828F7D10398A0F201210729F2D801382B
:100B5000BDF80410C2B2520009BA52FA80F040F255
:100B60009802090CC2F2000222F82010BDF806100B
:100B700002EB800408BABDF80810000C608008BAC7
:100B80009DF80A10000CA080A17100F035F9A0605A
:100B90000AB010BD704700007047000070470000A9
:100BA000B0B5044690F8200001281DD1022084F839
:100BB00020002068016821F00101016000F01CF9AB
:100BC000054600BF20684068C00713D000F014F944
:100BD000401B0B28F6D3606A40F4003060620520A9
:100BE00084F820000120B0BD606A40F400206062FB
:100BF0000120B0BD00206062B0BD00007047000061
:100C00007047000070470000704700007047000008
:100C10007047000070470000B0B5044600F0ECF8E3
:100C2000054640F20000C2F200000078611C18BFC7
:100C3000044400BF00F0E0F8401BA042FAD3B0BD6E
:100C40002DE9F04F83B000F1200200F13E4741F65C
:100C50000045009207F1FF77C4F2020508224FEA2F
:100C6000B726A84208BF072200254FF000084FF022
:100C70000009072E38BF4FEAB72201920AE000BFF1
:100C800009F1010908F10208B9F1100F05F1040595
:100C900000F0A2800F68012202FA09FE17EA0E0A8C
:100CA000EED0D1F804C003220CF003077E1E02FA36
:100CB00008F4012E6FEA040B12D88468CE6804EAA7
:100CC0000B0406FA08F634438460446824EA0E06EE
:100CD000CCF3001404FA09F42643466004E000BF94
:100CE000032F01D103271EE0C6688C6806EA0B06B5
:100CF00004FA08F42643022FC66014D16FF00302F1
:100D0000009E02EA590756F807C005F01C040F229E
:100D10000B69A2402CEA0202A3401A43F251D1F817
:100D200004C00CF00307026807FA08F302EA0B029A
:100D30001A431CF4403F0260A2D0002243F6440351
:100D40000292C4F202031A6843F6004442F480425D
:100D50001A601A68C4F2010402F480420292029AF4
:100D600029F003024FF6084C2244CFF6FF7C52F8DC
:100D70000C3005F00C070F26BE40B343019E06FA67
:100D800007F73B4342F80C30A2684B6842EA0A0777
:100D900043F60C4CDE0258BF22EA0A07A760C4F2F1
:100DA000010CDCF800209E0242EA0A0758BF22EA42
:100DB0000A07CCF8007062689E0342EA0A0758BF2F
:100DC00022EA0A0767602268DB0342EA0A0758BF83
:100DD00022EA0A07276053E703B0BDE8F08F00005E
:100DE0000069084018BF012070470000002A08BFB2
:100DF000090481617047000040F27820C2F20000CF
:100E00000068704740F2000040F27821C2F2000012
:100E1000C2F2000100780A681044086070470000C0
:100E200080B543F60040C4F20200016841F400714D
:100E30000160016841F480610160016841F48071E2
:100E40000160032000F086F80F2000F005F800F0A4
:100E500027F8002080BD000070B540F20006C2F205
:100E6000000640F208013278C2F200014FF47A73B2
:100E70000968B3FBF2F20446B1FBF2F1084600F058
:100E800039FB0F2C4FF0010508D838B94FF0FF306F
:100E900021460022002500F031F87460284670BD1C
:100EA00082B0002043F640010190C4F202014A687A
:100EB00042F480424A604A6802F480420192019AF8
:100EC0000090086840F080500860086800F080508A
:100ED0000090009802B07047002848BF704700F0AB
:100EE0001F01012202FA01F11C2202EAD0004EF297
:100EF0000012CEF2000281507047000010B54EF68D
:100F00000C5CCEF2000CDCF80030C3F3022E8EF045
:100F10000704042C28BF0424BEF103034FF0FF3E56
:100F20000EFA04F438BF0023A14399400EFA03F3EC
:100F30009A43114300F00F0200F160430901043AA3
:100F400003F564436244002848BF02F10C031970A2
:100F500010BD00004EF60C51CEF200010A684FF6AB
:100F6000FF031A4060F30A2242F0806040F0FD70F7
:100F700008607047002804BF012070472DE9F04148
:100F800043F60808C4F202080446D8F8F8030D46F0
:100F900000F00700814207D988F8F853D8F8F80321
:100FA00000F00700A84277D12068810717D54107D4
:100FB00005D5D8F8001041F4E051C8F80010010739
:100FC00005D5D8F8001041F46041C8F80010D8F8F1
:100FD0000010A26821F0F0011143C8F80010C0070A
:100FE00040D1D8F8F80300F00700854207D288F80E
:100FF000F853D8F8F80300F00700A8424CD1206855
:10100000410707D5D8F80010E26821F4E0511143F8
:10101000C8F80010000708D5D8F80000216920F4AE
:10102000604040EAC100C8F8000000F055F8D8F868
:10103000001042F2D012C1F30311C0F60002515C5D
:1010400040F2080220FA01F140F20400C2F200006E
:101050000068C2F200021160FFF7FEFE0020BDE84A
:10106000F08100BF6068811E022907D258F8081C71
:1010700089015CBF0120BDE8F08111E0012807D1A2
:1010800058F8081C89035CBF0120BDE8F08107E027
:1010900058F8081C890703D40120BDE8F08100BF7F
:1010A000D8F8001021F003010843C8F80000FFF74A
:1010B000A3FE064641F28837D8F80000616800F0C8
:1010C0000C00B0EB810F8CD0FFF796FE801BB8426E
:1010D000F2D90320BDE8F08110B543F60404C4F250
:1010E00002046168C1F3810142F20040C0F2F400E1
:1010F000DFE801F002040A0210BD00BF47F640001D
:10110000C0F27D1010BD00BF20682168236849022D
:1011100047F64001C0F27D1100F03F02C3F3881092
:101120005CBF42F20041C0F2F401A1FB00010023C8
:10113000FFF7B0F821680222C1F3014102EB41013F
:10114000B0FBF1F010BD0000002804BF0120704783
:101150002DE9F04182B00446007843F60006C0074E
:10116000C4F202060CD0B06800F00C00042840F075
:1011700081803068800303D56068002800F06881B2
:10118000207880071BD5B06810F00C0F09D0B0682C
:1011900000F00C00082840F087807068400200F1E1
:1011A00083803068800703D5E068012840F05081D3
:1011B0003068216920F0F80040EAC10030602078F2
:1011C000000713D4207840072AD4A569002D00F029
:1011D0003A81B06800F00C00082840F0A580012D8D
:1011E00040F00E81012002B0BDE8F0816069002866
:1011F00000F082800020C4F247200121C0F8801E48
:10120000FFF7FAFD054600BF706F8007DAD4FFF7DD
:10121000F3FD401B0228F7D9032002B0BDE8F0819E
:10122000306C5FEAC0080AD400200190306C40F0B6
:1012300080503064306C00F080500190019847F28B
:101240000007C4F200073868C00547D4386840F486
:1012500080703860FFF7D0FD054600BF3868C005D4
:101260003CD4FFF7C9FD401B0228F7D9032002B088
:10127000BDE8F081B06800F00C00082803D1706868
:1012800040023FF576AF61683068B1F5803F07D026
:10129000B1F5A02F40F09A8040F480203060306893
:1012A00040F4803030609AE0E068002840F20000AE
:1012B000C4F247205CD001210160FFF79DFD054687
:1012C000306880073FF574AFFFF796FD401B02289A
:1012D000F6D9032002B0BDE8F08100BFA168306FED
:1012E000012905D0052955D140F004003067306F41
:1012F00040F00100306756E00020C4F24720002192
:10130000C0F8801EFFF778FD054600BF706F8007AC
:101310007FF558AFFFF770FD401B0228F6D9032078
:1013200002B0BDE8F08100BF0027C4F247270020CB
:101330003866FFF761FD022D05460DD1306880014A
:1013400040F18A80FFF758FD401B02284FF0030050
:10135000F4D902B0BDE8F0813068800173D5FFF7A1
:101360004BFD401B02284FF00300F5D9F1E700BF09
:1013700000210160FFF740FD054600BF306880078F
:101380007FF51DAFFFF738FD401B02284FF003002B
:10139000F4D9DEE720F001003067306F002920F03B
:1013A000040030677AD0FFF727FD054641F2883701
:1013B000306F800700F18480FFF71EFD401BB842AC
:1013C000F6D9032002B0BDE8F08100BF20F48030E0
:1013D00030603068002920F4802030607AD0FFF738
:1013E0000BFD0546306880033FF5CAAEFFF704FDEC
:1013F000401B6428F6D9032002B0BDE8F08100BF8D
:101400007068E16900F480028A4221D1216A00F00B
:101410003F028A421CD147F6C071626A0140B1EBBB
:10142000821F15D1A16A4FF6FF73C903994300F4D7
:101430004032A1F580318A420AD1E16A00F0706041
:10144000B0EB016F04D1002002B0BDE8F08100BF15
:10145000012002B0BDE8F08104F11C052FCD084346
:1014600040EA8210D9034FF6FF729143A1F5803113
:1014700040EA05600843706001203866FFF7BCFC55
:10148000044600BF30688001DDD4FFF7B5FC001BC7
:1014900002284FF00300F5D95BE700BFFFF7ACFC73
:1014A000054641F2883700BF306F800708D5FFF747
:1014B000A3FC401BB8424FF00300F5D949E700BF39
:1014C000B8F1000F3FF581AE306C20F080503064F1
:1014D0007BE600BFFFF790FC054600BF3068800345
:1014E0007FF54EAEFFF788FC401B64284FF00300E9
:1014F000F4D92EE7411E0020B0EB116F1CBF012074
:1015000070474EF21002CEF2000251604EF62351A7
:10151000CEF20001F0230B7007219060116070473C
:10152000FEE70000FEE70000FEE700007047000055
:1015300070470000FFF766BC70B592B006AC20465D
:101540003021FEF71FFF002543F640000595CDE949
:101550000355CDE901550095C4F202000168022649
:1015600041F080510160006800F0805000900098C8
:1015700047F200000095C4F20000016841F4804188
:101580000160006800F480400090009801200990FC
:1015900010200A9008200E905420CDE90F06042058
:1015A000119020460696CDE90C65FFF7CDFD18B1E8
:1015B00072B600BFFEE700BF0F20CDE901064FF471
:1015C0008050CDE9040501A802210395FFF7D2FC64
:1015D00010B172B6FEE700BF12B070BD4EF6885073
:1015E000CEF20000016841F4700101607047000014
:1015F000FEE700009CB041F60049C4F20209FFF783
:101600000FFCFFF799FF002443F630000F94C4F25B
:1016100002000168A9F5E05541F080010160016810
:101620000FAE01F080010F910F990F9401684FF0F8
:10163000010841F001010160016801F001010F9111
:101640000F990F94016841F008010160006831466C
:1016500000F008000F900F982846CDE91244CDE91C
:101660000F84CDF84480FFF7EBFA4FF4E050CDE95A
:101670000F0848463146CDE91144FFF7E1FA4846E4
:101680004FF4E0510022FFF7B1FB40F27000A9F5E2
:10169000DC31C2F200004FF420234FF480174FF0EA
:1016A0008076032280E81600C0E90343C0E905768E
:1016B0008483FFF779F918B172B600BFFEE700BF67
:1016C00048464FF480510122FFF790FB48464FF403
:1016D00000610122FFF78AFB48464FF48061012236
:1016E000FFF784FBC820FFF797FA40F27006C2F2BA
:1016F00000060DF13C0930464946CDE91784CDE995
:101700001548CDE90F44CDE91144CDE91344FEF766
:1017100011FF3046FFF744FA30460221FEF7A0FEE3
:101720004FF4FA70FFF778FA40F2F808C2F20008B6
:101730000020C4F2A0004CF6CD4208F1300C4FF06E
:101740007C51C3F6CC528CE8170008F1600C46F2CD
:10175000000346F200078CE8170008F1900CC4F271
:101760006A63C4F2EA578CE8170008F1C00CC8E9B4
:101770000A37C8E91637C8E92E37C8E922378CE896
:101780001700C8E94637C8E93A3708F1F00CC8E94C
:10179000523708F5907388E81700C8E90444C8E98F
:1017A0000644C8E90844C8E91044C8E91244C8E935
:1017B0001444C8E91C44C8E91E44C8E92844C8E9DF
:1017C0002A44C8E92C44C8E92044C8E93444C8E99B
:1017D0003644C8E94044C8E94244C8E94444C8E939
:1017E00038448CE81700C8E9504417C3C8E94C4492
:1017F000C8E94E44FFF700FB40F29806C2F200062B
:101800009FEDEB8AB06070613062F062B06370642B
:101810003065F06509F104009FEDE69A9FEDE6AAB8
:101820009FEDE6BA9FEDE6CA9FEDE6DA9FEDE6EAA8
:101830009FEDE6FA0190F0EE488AF0EE489AF0EE5D
:1018400048AAF0EE48BAF0EE48CAF0EE48DA0024B2
:1018500000204FF00009F0EE48EA00900295A0E069
:101860004FF000090024F5EE408AF1EE10FA4FF037
:101870000000F5EE409A4FF0000118BF0120F1EE94
:1018800010FA18BF01210843F5EE40AA0021F1EE3D
:1018900010FA18BF01210843F5EE40BA002141F6C5
:1018A000004AF1EE10FA18BF0121C4F2020A40EA20
:1018B000010650464FF480510022FFF797FA06F0D8
:1018C000010250464FF40061FFF790FA012020EA30
:1018D000060250464FF48061FFF788FA40F2FF108D
:1018E0000F9003988DF86C408DF86800049840F2D2
:1018F0007004019F8DF86AB08DF86B508DF86D9073
:10190000C2F200040FAD0DF168090DF1640B002661
:101910004FF0080A8DF86900204629464A465B4682
:10192000C7E90066C7E902663E61CDE91166CDF8F8
:101930004CA0ADF86E60FEF7ABFD4FF400700F9059
:101940000B9829468DF868000C984A468DF8690076
:1019500009985B468DF86A000A98C7E900668DF819
:101960006B000798C7E902668DF86C0008983E6125
:101970008DF86D000598CDE911668DF86E0006981A
:10198000CDF84CA08DF86F002046FEF781FD0520B4
:10199000FFF742F9029D40F29806DDE90D49C2F2D7
:1019A0000006FFF729FA074628460121FFF718FA33
:1019B00058B9A7EB0900C92807D3E00702D0B946F8
:1019C00023E000BF0124B9460097E00718BF5FEA93
:1019D000C47115D1B0EE480A002818BFB0EE4B0A0A
:1019E000F4EE408AF1EE10FA25DA78EE898AF4EE08
:1019F000408AF1EE10FAC8BFF0EE408A2AE000BF3C
:101A00000099791A49097C29E4D90024C8F82040B2
:101A1000C8F85040C8F88040C8F8B040C8F8E04066
:101A2000C8F81041C8F84041B0EE480AF4EE408AC8
:101A3000F1EE10FAD9DBF4EE408AF1EE10FA09DD8E
:101A400078EE8F8AF4EE408AF1EE10FA02DAF0EEC8
:101A5000408A00BFB0EE480AE00718BFB0EE4A0A5D
:101A6000F4EE409AF1EE10FA0ADA79EE899AF4EE81
:101A7000409AF1EE10FA11DDF0EE409A0EE000BF50
:101A8000F4EE409AF1EE10FA08DD79EE8F9AF4EE5A
:101A9000409AF1EE10FAB8BFF0EE409AB0EE480A64
:101AA000002818BFB0EE4A0AF4EE40AAF1EE10FA90
:101AB0000ADA7AEE89AAF4EE40AAF1EE10FA11DD04
:101AC000F0EE40AA0EE000BFF4EE40AAF1EE10FAEC
:101AD00008DD7AEE8FAAF4EE40AAF1EE10FAB8BF54
:101AE000F0EE40AAB0EE480A002818BFB0EE4B0A4C
:101AF000F4EE40BAF1EE10FA0ADA7BEE89BAF4EEAF
:101B000040BAF1EE10FA11DDF0EE40BA0EE000BF7F
:101B1000F4EE40BAF1EE10FA08DD7BEE8FBAF4EE87
:101B200040BAF1EE10FAB8BFF0EE40BAB0EE480A93
:101B3000002818BFB0EE4C0AF4EE40EAF1EE10FABD
:101B4000CDE90D490ADA7EEE89EAF4EE40EAF1EEDB
:101B500010FAC8BFF0EE40EA0EE000BFF4EE40EA33
:101B6000F1EE10FA08DD7EEE8FEAF4EE40EAF1EED7
:101B700010FA01DAF0EE40EAB0EE481A14F0010073
:101B800018BFB0EE4D1AB0EE480AF4EE41DA18BFB5
:101B9000B0EE4E0AF1EE10FA1ADA7DEE89DAF4EEC2
:101BA00041DAF1EE10FAC8BFF0EE41DA1EE000BFF4
:101BB000000000000000484200C0DAC500C0DA455D
:101BC00000803B450060EAC50060EA45000048C26D
:101BD000F4EE41DAF1EE10FA08DD7DEE8FDAF4EE84
:101BE00041DAF1EE10FA01DAF0EE41DAF4EE40CA31
:101BF000F1EE10FA0ADA7CEE89CAF4EE40CAF1EE90
:101C000010FAC8BFF0EE40CA0EE000BFF4EE40CAC2
:101C1000F1EE10FA08DD7CEE8FCAF4EE40CAF1EE68
:101C200010FA01DAF0EE40CAB068381A642840F2BF
:101C30007D814FF0000E4FF0000C7069381A642857
:101C400000F2D381B6F90E0098ED142A00EE100AC6
:101C5000B8EEC00A39EEC01A98ED173A31EE022AF2
:101C6000B4EE432AF1EE10FAC8ED0F9A88ED100A8F
:101C700088ED121A88ED142A06DCB1EE433AB4EE70
:101C8000432AF1EE10FA03DAB0EE432A88ED143A53
:101C900098ED0C3A98ED0D4A98ED115A98ED0E6AB0
:101CA00035EE405A22EE042A23EE013A33EE023A90
:101CB00026EE054A98ED162A34EE033AB4EE423A7F
:101CC000F1EE10FA88ED153A06DCB1EE422AB4EED8
:101CD000423AF1EE10FA03DAB0EE423A88ED152AF4
:101CE00088ED110ABDEEC30A10EE10BA1FFA8BF090
:101CF0004FEA102A88ED131A306A381A642800F265
:101D00007D81B6F91A0098ED202A00EE100AB8EE8F
:101D1000C00A3AEEC01A98ED233A31EE022AB4EE28
:101D2000432AF1EE10FAC8ED1BAA88ED1C0A88EDD3
:101D30001E1A88ED202A06DCB1EE433AB4EE432A9F
:101D4000F1EE10FA03DAB0EE432A88ED203A98ED6E
:101D5000183A98ED194A98ED1D5A98ED1A6A35EE21
:101D6000405A22EE042A23EE013A33EE023A26EEDE
:101D7000054A98ED222A34EE033AB4EE423AF1EEE7
:101D800010FA88ED213A06DCB1EE422AB4EE423A6E
:101D9000F1EE10FA03DAB0EE423A88ED212A88ED2E
:101DA0001D0ABDEEC30A10EE102A90B2010A88ED9A
:101DB0001F1AF06A381A642800F22781B6F9260043
:101DC00098ED2C2A00EE100AB8EEC00A3BEEC01ABD
:101DD00098ED2F3A31EE022AB4EE432AF1EE10FAD2
:101DE000C8ED27BA88ED280A88ED2A1A88ED2C2A32
:101DF00006DCB1EE433AB4EE432AF1EE10FA03DA10
:101E0000B0EE432A88ED2C3A98ED243A98ED254A15
:101E100098ED295A98ED266A35EE405A22EE042AAA
:101E200023EE013A33EE023A26EE054A98ED2E2AC9
:101E300034EE033AB4EE423AF1EE10FA88ED2D3A60
:101E400006DCB1EE422AB4EE423AF1EE10FA03DAC1
:101E5000B0EE423A88ED2D2A88ED290ABDEEC30A7C
:101E600010EE105AA8B2030A88ED2B1AB06B381A7C
:101E7000642800F2D180B6F9320098ED382A00EEDD
:101E8000100AB8EEC00A3EEEC01A98ED3B3A31EEA9
:101E9000022AB4EE432AF1EE10FAC8ED33EA88EDD7
:101EA000340A88ED361A88ED382A06DCB1EE433A5A
:101EB000B4EE432AF1EE10FA03DAB0EE432A88EDCD
:101EC000383A98ED303A98ED314A98ED355A98ED18
:101ED000326A35EE405A22EE042A23EE013A33EEFE
:101EE000023A26EE054A98ED3A2A34EE033AB4EE69
:101EF000423AF1EE10FA88ED393A06DCB1EE422AA8
:101F0000B4EE423AF1EE10FA03DAB0EE423A88ED5E
:101F1000392A88ED350ABDEEC30A10EE100A049086
:101F200080B2000A88ED371A78E000BFB6F90200E7
:101F300098ED082A00EE100AB8EEC00A38EEC01A72
:101F400098ED0B3A31EE022AB4EE432AF1EE10FA84
:101F5000C8ED038A88ED040A88ED061A88ED082A80
:101F600006DCB1EE433AB4EE432AF1EE10FA03DA9E
:101F7000B0EE432A88ED083A98ED003A98ED014A10
:101F800098ED055A98ED026A35EE405A22EE042A81
:101F900023EE013A33EE023A26EE054A98ED0A2A7C
:101FA00034EE033AB4EE423AF1EE10FA88ED093A13
:101FB00006DCB1EE422AB4EE423AF1EE10FA03DA50
:101FC000B0EE423A88ED092A88ED050ABDEEC30A53
:101FD00010EE10EA1FFA8EF04FEA102C88ED071A67
:101FE0007069381A64287FF62DAE4FF0000B4FF061
:101FF000000A306A381A64287FF683AE0022002176
:10200000F06A381A64287FF6D9AE00250023B06B39
:10201000381A64287FF62FAF002004900390706C6C
:10202000CDE90535381A642807A880E8065C09D987
:1020300000254FF0000B306D381A64283FF610ACC5
:102040005EE000BFB6F93E0098ED442A00EE100AAB
:10205000B8EEC00A3DEEC01A98ED473A31EE022ABA
:10206000B4EE432AF1EE10FAC8ED3FDA88ED400AEB
:1020700088ED421A88ED442A06DCB1EE433AB4EE0C
:10208000432AF1EE10FA03DAB0EE432A88ED443A1F
:1020900098ED3C3A98ED3D4A98ED415A98ED3E6AEC
:1020A00035EE405A22EE042A23EE013A33EE023A8C
:1020B00026EE054A98ED462A34EE033AB4EE423A4B
:1020C000F1EE10FA88ED453A06DCB1EE422AB4EEA4
:1020D000423AF1EE10FA03DAB0EE423A88ED452AC0
:1020E00088ED410ABDEEC30A10EE105AA8B24FEABD
:1020F000102B88ED431A306D381A64283FF6B0ABC8
:10210000B6F94A0098ED502A00EE100AB8EEC00A5F
:102110003CEEC01A98ED533A31EE022AB4EE432A4F
:10212000F1EE10FAC8ED4BCA88ED4C0A88ED4E1A54
:1021300088ED502A06DCB1EE433AB4EE432AF1EEC4
:1021400010FA03DAB0EE432A88ED503A98ED483A97
:1021500098ED494A98ED4D5A98ED4A6A35EE405A45
:1021600022EE042A23EE013A33EE023A26EE054A25
:1021700098ED522A34EE033AB4EE423AF1EE10FAF8
:1021800088ED513A06DCB1EE422AB4EE423AF1EE65
:1021900010FA03DAB0EE423A88ED512A88ED4D0A82
:1021A000BDEEC30A10EE109A1FFA89F0040A88EDFA
:1021B0004F1AFFF758BBF1EE100A4FF6FF71C0F24D
:1021C000C03120EA010040F04070E1EE100A704793
:1021D00000000000000000000102030406070809D7
:1021E000002200080000002010000000EC010008A0
:1021F0001022000810000020700800000C020008E7
:1022000001000000100000000024F40000000000A5
:040000050800018965
:00000001FF
