:020000040800F2
:100000008008002055020008291500082115000865
:10001000251500084D040008F11500080000000037
:100020000000000000000000000000003115000882
:100030005D040008000000002D15000835150008BB
:100040006F0200086F0200086F0200086F020008CC
:100050006F0200086F0200086F0200086F020008BC
:100060006F0200086F0200086F0200086F020008AC
:100070006F0200086F0200086F0200086F0200089C
:100080006F0200086F0200086F0200086F0200088C
:10009000510400086F0200086F0200086F02000898
:1000A0006F0200086F0200086F0200086F0200086C
:1000B0006F0200086F0200086F0200086F0200085C
:1000C0006F0200086F0200086F0200086F0200084C
:1000D0006F0200086F0200086F0200086F0200083C
:1000E0006F0200086F0200086F0200086F0200082C
:1000F0006F0200086F0200086F0200086F0200081C
:100100006F0200086F0200086F0200086F0200080B
:100110006F0200086F0200086F0200086F020008FB
:100120006F0200086F0200086F0200086F020008EB
:100130006F0200086F0200086F0200086F020008DB
:100140006F0200086F0200086F0200086F020008CB
:100150006F0200086F0200086F0200086F020008BB
:100160006F0200086F0200086F0200086F020008AB
:100170006F0200086F0200086F0200080000000014
:100180006F0200086F02000800F002F800F052F859
:1001900014A696E8000CB244B344DA4501D100F04D
:1001A00049F8BAE80F000FA696E83000A5EB040561
:1001B00004EB0607AAEB0704A7F101074FEA1515A0
:1001C0004FEA3414A4F10104AC4201D300F032F838
:1001D00013F0010F18BFFB1A43F0010300F001F800
:1001E000DBE71847681C0000881C0000103A24BF99
:1001F00078C878C1FAD8520724BF30C830C144BF8C
:1002000004680C6070470000704700000023002461
:1002100000250026103A28BF78C1FBD8520728BF16
:1002200030C148BF0B6070471FB501F0F9FD1FBD1D
:1002300010B510BD00F0D0F81146FFF7F5FF01F042
:10024000D9F900F0EEF803B4FFF7F2FF03BC00F0B9
:10025000F5F800000948804709480047FEE7FEE737
:10026000FEE7FEE7FEE7FEE7FEE7FEE7FEE7FEE766
:1002700004480549054A064B70470000DD15000893
:1002800089010008800200208008002080040020EE
:100290008004002053EA020C00F069802DE9F04B45
:1002A0004FF00006002B1FBFB3FA83F503FA05F4E5
:1002B00024FA05F65E4012BF1643B2FA82F502FA3E
:1002C00005F4C5F120051EBF22FA05FC44EA0C0422
:1002D000203556EA044C4FEA144418BF641C4FF012
:1002E00000084FF00009904271EB030C39D300294C
:1002F00019BFB1FA81F701FA07F6B0FA80F700FAF0
:1003000007F6C7F120071EBF20FA07FC46EA0C06D5
:100310002037B6FBF4FCA7EB0507103F07F01F0BD7
:10032000CBF120062CFA06F60CFA0BFB44BFB346C1
:100330000026202FA4BF5E464FF0000B5BEA060CA0
:1003400008BF4FF0010B19EB0B0948EB0608ABFB9C
:10035000027C06FB02CC0BFB03CCC01B71EB0C0137
:10036000C1E70B46024641464846BDE8F08B13B54F
:10037000084318BF4FF0FF300146AFF30080BDE8DF
:100380001C4070474FF0000200B513469446964655
:10039000203922BFA0E80C50A0E80C50B1F1200198
:1003A000BFF4F7AF090728BFA0E80C5048BF0CC046
:1003B0005DF804EB890028BF40F8042B08BF7047A4
:1003C00048BF20F8022B11F0804F18BF00F8012B16
:1003D0007047704770477047754600F02BF8AE467F
:1003E00005006946534620F00700854618B020B541
:1003F000FFF73EFFBDE820404FF000064FF000073A
:100400004FF000084FF0000BAC46ACE8C009ACE878
:10041000C009ACE8C009ACE8C00921F007018D466D
:10042000704710B50446AFF300802046BDE8104089
:10043000FFF709BF0048704710000020014918204D
:10044000ABBEFEE72600020070470000FEE700009A
:1004500040F27000C2F2000000F076B97047000070
:1004600090F82020013A012A08D8006800F114020F
:100470000020136819431160704700BF00F1240287
:1004800001204FF480211368194311607047000068
:1004900010B590F820E0D0F800C0AEF1010EBEF12A
:1004A000010FDCF808E011D81EF0E05F18D0CEF3A1
:1004B00001640120A04018608B68DBB1D1F804E032
:1004C000C86840EACE0040EA030E17E000F12403BA
:1004D00001204FF480211A681143196010BD00BF3C
:1004E00000F1240301204FF400111A681143196030
:1004F00010BD00BF0868CB6843EA405E0CF5C070D1
:1005000000EB0413240140F804E00C69184640F89D
:10051000044F097D012903D1016841F48071016014
:1005200050680121D8601068986000201A68114353
:10053000196010BD90F82020013A012A30D8B0B5DA
:1005400046F20060C4F20000026842F0010202605C
:10055000026822F47C520260D1F814E0CC694A6A45
:100560000368012C43EA022202600EF01F024FF0E2
:10057000010303FA02F2C3696FEA020C23EA0203E1
:10058000C36113D02CBBC36803EA0C03C360CB6800
:100590008C8844EA034300EBCE0423640B4611E04D
:1005A000416A41F48021416201207047C3681343CE
:1005B000C3600B688C8844EA034300EBCE042364D9
:1005C00001F10C038C681B8843EA044300EBCE0462
:1005D000636443688D6943EA0204D1F810E0096A54
:1005E000002D08BF03EA0C0444604369BEF1000F0C
:1005F00043EA020408BF03EA0C040129446102D162
:10060000C1691143C161016821F00101016000204D
:10061000B0BD000070470000B0B590F82040013C2C
:10062000012C7DD8D0F800C000290CBFDCF80C40AC
:10063000DCF81040A4077DD00CF5D8754FEA011CFA
:1006400055F80C4014F00404946055F80CE005EBE8
:10065000011C19BF4FEADE0555604FEA5E55156073
:10066000DCF80050E64605F00205D5605EF8044F60
:1006700024075ABFDEF8004004F00F040824146178
:10068000DEF800400029C4F307249461DEF800502E
:100690004FEA15455561DCF808201A70026802EB34
:1006A0000112D2F8B8214FEA12225A70026802EB06
:1006B0000112D2F8B8214FEA12429A70026802EB96
:1006C0000112D2F8B8214FEA1262DA70026802EB26
:1006D0000112D2F8BC211A71026802EB0112D2F8A1
:1006E000BC214FEA12225A71026802EB0112D2F8C1
:1006F000BC214FEA12429A71026802EB0112D2F851
:10070000BC214FEA1262DA7100680CBF00F10C01E3
:1007100000F11001002020220B681A430A60B0BDCE
:1007200000F1240101204FF480220B681A430A6073
:10073000B0BD00BF00F1240101204FF400120B688E
:100740001A430A60B0BD00002DE9F04F81B00446A5
:1007500000684669D0F804908768D0F80CB0D0F8EB
:1007600010A0D0F81880F10704D1002530071DD45F
:1007700024E000BFF90710D00121BA07816009D435
:10078000780700F1AF80380700F1B680204600F00E
:1007900035FA02E0204600F033FA0025F80500F1B2
:1007A0008780F80300F1B180300707D51BF01000F7
:1007B00004D0206845F400751021C160700708D589
:1007C0001BF0080005D020680821C160204600F019
:1007D000A7F9B00706D52068C068800702D0204678
:1007E00000F0A0F9700607D51AF0100004D02068B8
:1007F00045F4806510210161B00608D51AF00800A3
:1008000005D0206808210161204600F0C3F9F006F8
:1008100006D520680069800702D0204600F0BCF9A8
:10082000B00308D519F0100005D0206810214160F0
:10083000204600F0B3F9F00308D519F0080005D000
:10084000206808214160204600F0E4F9300440F1BE
:100850009B805FEA497040F1948006F4807008EA5A
:10086000102028435FEA8871014648BF41F0020129
:10087000B20558BF01465FEA48700D4648BF45F0D3
:100880000405700558BF0D46300540F17A8018F018
:10089000700000F076801038000905286CD8DFE879
:1008A00000F003655D61596945F0080564E000BF2B
:1008B00020684FF48071BA0581600BD4780515D497
:1008C00038051DD4204600F09DF9F8037FF56CAF84
:1008D0001BE000BF204600F097F9F8037FF564AFF6
:1008E00013E000BF4FF4006558E700BF05F5005561
:1008F000F8037FF559AF08E04FF480554EE700BF8D
:1009000005F58045F8037FF54FAF20684FF480313F
:10091000BA0381600AD4780310D4380314D4204673
:1009200000F074F930073FF541AF47E7204600F08B
:100930006FF930073FF53AAF40E700BF05F50045D6
:1009400030073FF533AF39E705F5803530073FF520
:100950002DAF33E745F080050EE000BF45F02005E0
:100960000AE000BF45F0400506E000BF45F0100575
:1009700002E000BF45F480752068816921F07001B4
:10098000816120680421416055B1606A40EA050137
:100990002046616201B0BDE8F04FFFF73BBE00BFEB
:1009A00001B0BDE8F08F0000002804BF01207047AF
:1009B000B0B5044690F8200010B9204600F06EF85B
:1009C0002068016841F00101016000F015FA054658
:1009D00020684168C90705D100F00EFA401B0B28BA
:1009E000F6D310E0016821F00201016000F004FA82
:1009F000054600BF2068416889070DD500F0FCF965
:100A0000401B0B28F6D3606A052140F40030606279
:100A1000012084F82010B0BD217E0268012922F057
:100A2000800208BF80320260617E0268012922F0E4
:100A3000400208BF40320260A17E0268012922F014
:100A4000200208BF20320260E17E0268012922F004
:100A5000100218BF10320260217F0268012922F0C3
:100A6000080208BF08320260617F0268012922F093
:100A7000040208BF04320260D4E901C2D4E903359C
:100A800061691A432A431143ACF101021143C16168
:100A900000200121606284F82010B0BD80B586B0CE
:100AA00046F200410068C4F200010022884205922B
:100AB000CDE903220292019202D006B080BD00BFB0
:100AC00043F630000092C4F20200036943F0007361
:100AD0000361036903F000730093009B00920368B5
:100AE00043F0080303600068022300F00800009050
:100AF00000980320019004900920059001F5D4305E
:100B000001A9CDE9023200F09BF814200021002257
:100B100000F0F4F9142000F0DFF906B080BD000009
:100B20007047000010B58AB003AA01AB0021FFF79F
:100B300073FD08B10AB010BD05980028FAD10798D6
:100B40000828F7D10398A0F201210729F2D801382B
:100B5000BDF80410C2B2520009BA52FA80F040F255
:100B60009802090CC2F2000222F82010BDF806100B
:100B700002EB800408BABDF80810000C608008BAC7
:100B80009DF80A10000CA080A17100F035F9A0605A
:100B90000AB010BD704700007047000070470000A9
:100BA000B0B5044690F8200001281DD1022084F839
:100BB00020002068016821F00101016000F01CF9AB
:100BC000054600BF20684068C00713D000F014F944
:100BD000401B0B28F6D3606A40F4003060620520A9
:100BE00084F820000120B0BD606A40F400206062FB
:100BF0000120B0BD00206062B0BD00007047000061
:100C00007047000070470000704700007047000008
:100C10007047000070470000B0B5044600F0ECF8E3
:100C2000054640F20000C2F200000078611C18BFC7
:100C3000044400BF00F0E0F8401BA042FAD3B0BD6E
:100C40002DE9F04F83B000F1200200F13E4741F65C
:100C50000045009207F1FF77C4F2020508224FEA2F
:100C6000B726A84208BF072200254FF000084FF022
:100C70000009072E38BF4FEAB72201920AE000BFF1
:100C800009F1010908F10208B9F1100F05F1040595
:100C900000F0A2800F68012202FA09FE17EA0E0A8C
:100CA000EED0D1F804C003220CF003077E1E02FA36
:100CB00008F4012E6FEA040B12D88468CE6804EAA7
:100CC0000B0406FA08F634438460446824EA0E06EE
:100CD000CCF3001404FA09F42643466004E000BF94
:100CE000032F01D103271EE0C6688C6806EA0B06B5
:100CF00004FA08F42643022FC66014D16FF00302F1
:100D0000009E02EA590756F807C005F01C040F229E
:100D10000B69A2402CEA0202A3401A43F251D1F817
:100D200004C00CF00307026807FA08F302EA0B029A
:100D30001A431CF4403F0260A2D0002243F6440351
:100D40000292C4F202031A6843F6004442F480425D
:100D50001A601A68C4F2010402F480420292029AF4
:100D600029F003024FF6084C2244CFF6FF7C52F8DC
:100D70000C3005F00C070F26BE40B343019E06FA67
:100D800007F73B4342F80C30A2684B6842EA0A0777
:100D900043F60C4CDE0258BF22EA0A07A760C4F2F1
:100DA000010CDCF800209E0242EA0A0758BF22EA42
:100DB0000A07CCF8007062689E0342EA0A0758BF2F
:100DC00022EA0A0767602268DB0342EA0A0758BF83
:100DD00022EA0A07276053E703B0BDE8F08F00005E
:100DE0000069084018BF012070470000002A08BFB2
:100DF000090481617047000040F27820C2F20000CF
:100E00000068704740F2000040F27821C2F2000012
:100E1000C2F2000100780A681044086070470000C0
:100E200080B543F60040C4F20200016841F400714D
:100E30000160016841F480610160016841F48071E2
:100E40000160032000F086F80F2000F005F800F0A4
:100E500027F8002080BD000070B540F20006C2F205
:100E6000000640F208013278C2F200014FF47A73B2
:100E70000968B3FBF2F20446B1FBF2F1084600F058
:100E800039FB0F2C4FF0010508D838B94FF0FF306F
:100E900021460022002500F031F87460284670BD1C
:100EA00082B0002043F640010190C4F202014A687A
:100EB00042F480424A604A6802F480420192019AF8
:100EC0000090086840F080500860086800F080508A
:100ED0000090009802B07047002848BF704700F0AB
:100EE0001F01012202FA01F11C2202EAD0004EF297
:100EF0000012CEF2000281507047000010B54EF68D
:100F00000C5CCEF2000CDCF80030C3F3022E8EF045
:100F10000704042C28BF0424BEF103034FF0FF3E56
:100F20000EFA04F438BF0023A14399400EFA03F3EC
:100F30009A43114300F00F0200F160430901043AA3
:100F400003F564436244002848BF02F10C031970A2
:100F500010BD00004EF60C51CEF200010A684FF6AB
:100F6000FF031A4060F30A2242F0806040F0FD70F7
:100F700008607047002804BF012070472DE9F04148
:100F800043F60808C4F202080446D8F8F8030D46F0
:100F900000F00700814207D988F8F853D8F8F80321
:100FA00000F00700A84277D12068810717D54107D4
:100FB00005D5D8F8001041F4E051C8F80010010739
:100FC00005D5D8F8001041F46041C8F80010D8F8F1
:100FD0000010A26821F0F0011143C8F80010C0070A
:100FE00040D1D8F8F80300F00700854207D288F80E
:100FF000F853D8F8F80300F00700A8424CD1206855
:10100000410707D5D8F80010E26821F4E0511143F8
:10101000C8F80010000708D5D8F80000216920F4AE
:10102000604040EAC100C8F8000000F055F8D8F868
:10103000001041F63A62C1F30311C0F60002515CA0
:1010400040F2080220FA01F140F20400C2F200006E
:101050000068C2F200021160FFF7FEFE0020BDE84A
:10106000F08100BF6068811E022907D258F8081C71
:1010700089015CBF0120BDE8F08111E0012807D1A2
:1010800058F8081C89035CBF0120BDE8F08107E027
:1010900058F8081C890703D40120BDE8F08100BF7F
:1010A000D8F8001021F003010843C8F80000FFF74A
:1010B000A3FE064641F28837D8F80000616800F0C8
:1010C0000C00B0EB810F8CD0FFF796FE801BB8426E
:1010D000F2D90320BDE8F08110B543F60404C4F250
:1010E00002046168C1F3810142F20040C0F2F400E1
:1010F000DFE801F002040A0210BD00BF47F640001D
:10110000C0F27D1010BD00BF20682168236849022D
:1011100047F64001C0F27D1100F03F02C3F3881092
:101120005CBF42F20041C0F2F401A1FB00010023C8
:10113000FFF7B0F821680222C1F3014102EB41013F
:10114000B0FBF1F010BD0000002804BF0120704783
:101150002DE9F04182B00446007843F60006C0074E
:10116000C4F202060CD0B06800F00C00042840F075
:1011700081803068800303D56068002800F06881B2
:10118000207880071BD5B06810F00C0F09D0B0682C
:1011900000F00C00082840F087807068400200F1E1
:1011A00083803068800703D5E068012840F05081D3
:1011B0003068216920F0F80040EAC10030602078F2
:1011C000000713D4207840072AD4A569002D00F029
:1011D0003A81B06800F00C00082840F0A580012D8D
:1011E00040F00E81012002B0BDE8F0816069002866
:1011F00000F082800020C4F247200121C0F8801E48
:10120000FFF7FAFD054600BF706F8007DAD4FFF7DD
:10121000F3FD401B0228F7D9032002B0BDE8F0819E
:10122000306C5FEAC0080AD400200190306C40F0B6
:1012300080503064306C00F080500190019847F28B
:101240000007C4F200073868C00547D4386840F486
:1012500080703860FFF7D0FD054600BF3868C005D4
:101260003CD4FFF7C9FD401B0228F7D9032002B088
:10127000BDE8F081B06800F00C00082803D1706868
:1012800040023FF576AF61683068B1F5803F07D026
:10129000B1F5A02F40F09A8040F480203060306893
:1012A00040F4803030609AE0E068002840F20000AE
:1012B000C4F247205CD001210160FFF79DFD054687
:1012C000306880073FF574AFFFF796FD401B02289A
:1012D000F6D9032002B0BDE8F08100BFA168306FED
:1012E000012905D0052955D140F004003067306F41
:1012F00040F00100306756E00020C4F24720002192
:10130000C0F8801EFFF778FD054600BF706F8007AC
:101310007FF558AFFFF770FD401B0228F6D9032078
:1013200002B0BDE8F08100BF0027C4F247270020CB
:101330003866FFF761FD022D05460DD1306880014A
:1013400040F18A80FFF758FD401B02284FF0030050
:10135000F4D902B0BDE8F0813068800173D5FFF7A1
:101360004BFD401B02284FF00300F5D9F1E700BF09
:1013700000210160FFF740FD054600BF306880078F
:101380007FF51DAFFFF738FD401B02284FF003002B
:10139000F4D9DEE720F001003067306F002920F03B
:1013A000040030677AD0FFF727FD054641F2883701
:1013B000306F800700F18480FFF71EFD401BB842AC
:1013C000F6D9032002B0BDE8F08100BF20F48030E0
:1013D00030603068002920F4802030607AD0FFF738
:1013E0000BFD0546306880033FF5CAAEFFF704FDEC
:1013F000401B6428F6D9032002B0BDE8F08100BF8D
:101400007068E16900F480028A4221D1216A00F00B
:101410003F028A421CD147F6C071626A0140B1EBBB
:10142000821F15D1A16A4FF6FF73C903994300F4D7
:101430004032A1F580318A420AD1E16A00F0706041
:10144000B0EB016F04D1002002B0BDE8F08100BF15
:10145000012002B0BDE8F08104F11C052FCD084346
:1014600040EA8210D9034FF6FF729143A1F5803113
:1014700040EA05600843706001203866FFF7BCFC55
:10148000044600BF30688001DDD4FFF7B5FC001BC7
:1014900002284FF00300F5D95BE700BFFFF7ACFC73
:1014A000054641F2883700BF306F800708D5FFF747
:1014B000A3FC401BB8424FF00300F5D949E700BF39
:1014C000B8F1000F3FF581AE306C20F080503064F1
:1014D0007BE600BFFFF790FC054600BF3068800345
:1014E0007FF54EAEFFF788FC401B64284FF00300E9
:1014F000F4D92EE7411E0020B0EB116F1CBF012074
:1015000070474EF21002CEF2000251604EF62351A7
:10151000CEF20001F0230B7007219060116070473C
:10152000FEE70000FEE70000FEE700007047000055
:1015300070470000FFF766BC70B592B006AC20465D
:101540003021FEF71FFF002543F640000595CDE949
:101550000355CDE901550095C4F202000168022649
:1015600041F080510160006800F0805000900098C8
:1015700047F200000095C4F20000016841F4804188
:101580000160006800F480400090009801200990FC
:1015900010200A9008200E905420CDE90F06042058
:1015A000119020460696CDE90C65FFF7CDFD18B1E8
:1015B00072B600BFFEE700BF0F20CDE901064FF471
:1015C0008050CDE9040501A802210395FFF7D2FC64
:1015D00010B172B6FEE700BF12B070BD4EF6885073
:1015E000CEF20000016841F4700101607047000014
:1015F000FEE7000094B041F60049C4F20209FFF78B
:101600000FFCFFF799FF002443F630000794C4F263
:1016100002000168A9F5E05741F08001016001680E
:1016200007AE01F0800107910799079401684FF018
:10163000010841F001010160016801F00101079119
:1016400007990794016841F008010160006831467C
:1016500000F00800079007983846CDE90A44CDE924
:101660000784CDF82480FFF7EBFA4FF4E050CDE982
:10167000070848463146CDE90944FFF7E1FA4846F4
:101680004FF4E0510022FFF7B1FB40F27000A9F5E2
:10169000DC31C2F200004FF420234FF480154FF0EC
:1016A0008076032280E81600C0E90343C0E90556AE
:1016B0008483FFF779F918B172B600BFFEE700BF67
:1016C00048464FF480510122FFF790FB48464FF403
:1016D00000610122FFF78AFB48464FF48061012236
:1016E000FFF784FBC820FFF797FA40F27006C2F2BA
:1016F00000060DF11C0930464946CDE90F84CDE9BD
:101700000D48CDE90744CDE90944CDE90B44FEF786
:1017100011FF3046FFF744FA30460221FEF7A0FEE3
:101720004FF4FA70FFF778FA40F2F808C2F20008B6
:10173000002046F2000346F20006C4F2A0004CF678
:10174000CD42C4F26A63C4F2EA5608F1300C4FF09D
:101750007C51C3F6CC52C8E90A368CE81700C8E9B8
:10176000163608F1600CC8E92E36C8E9223608F1B1
:10177000900388E81700C8E90444C8E90644C8E9AA
:101780000844C8E91044C8E91244C8E914448CE884
:101790001700C8E91C44C8E91E44C8E92844C8E940
:1017A0002A44C8E92C44C8E9204417C3FFF724FBA6
:1017B00040F29806C2F200069FEDCE8AB0607061DA
:1017C0003062F062B06370643065F06509F1040066
:1017D0009FEDC99A9FEDC9AA9FEDC9BA9FEDC9CAED
:1017E0000090B0EE48DAB0EE48EAB0EE48FAF0EE1B
:1017F000488A00204FF0000B0290019771E000BF73
:1018000000264FF0000AB5EE40DAF1EE10FA4FF084
:101810000000B5EE40EA4FF0000118BF0120F1EEE4
:1018200010FA18BF01210843B5EE40FA0021F1EE8D
:1018300010FA18BF01210843F5EE408A002141F655
:101840000049F1EE10FA18BF0121C4F2020940EA82
:10185000010448464FF480510022FFF7C7FA04F014
:10186000010248464FF40061FFF7C0FA012020EA68
:10187000040248464FF48061FFF7B8FA009800244C
:10188000C0E90044C0E9024404614FF400700790CD
:1018900008200B90059807A98DF84800069812AA11
:1018A0008DF84900039811AB8DF84A000498CDE9F2
:1018B00009448DF84B0040F27000C2F200008DF830
:1018C0004C508DF84D708DF84EA08DF84F60FEF79E
:1018D000DFFD0520FFF7A0F9019F40F29806C2F254
:1018E0000006FFF789FA814638460121FFF778FAAA
:1018F000A0B90298A9EB0000C9280FD35FEACB700A
:1019000000F00281C8F82040C8F85040C8F8804074
:10191000C8F8B040CDF8089004E000BF5FEACB7093
:1019200040F0F480B5EE40DAF1EE10FA0ADD3DEE5B
:1019300009DAB5EE40DAF1EE10FAB8BFB0EE48DAE7
:101940000EE000BFB5EE40DAF1EE10FA08DA3DEE37
:101950000ADAB5EE40DAF1EE10FA01DDB0EE48DA5F
:10196000B5EE40EAF1EE10FA0ADD3EEE09EAB5EE18
:1019700040EAF1EE10FA11DAB0EE48EA0EE000BFEC
:10198000B5EE40EAF1EE10FA08DA3EEE0AEAB5EEFC
:1019900040EAF1EE10FAC8BFB0EE48EAB5EE40FA00
:1019A000F1EE10FA0ADD3FEE09FAB5EE40FAF1EE7B
:1019B00010FA11DAB0EE48FA0EE000BFB5EE40FAC8
:1019C000F1EE10FA08DA3FEE0AFAB5EE40FAF1EE5F
:1019D00010FAC8BFB0EE48FAF5EE408AF1EE10FA00
:1019E00008DD78EE898AF5EE408AF1EE10FA0DDB1B
:1019F00016E000BFF5EE408AF1EE10FA10DA78EE4C
:101A00008A8AF5EE408AF1EE10FA09DD4FF0000BFC
:101A1000F0EE488AB068A9EB0000642808D8A7E077
:101A20004FF0000BB068A9EB0000642840F2A080E2
:101A3000002200237069A9EB0000642800F2F68000
:101A4000B6F90E0098ED142A00EE100AB8EEC00A9E
:101A50003EEE401A98ED173A31EE022AB4EE432AD0
:101A6000F1EE10FA88ED0FEA88ED100A88ED121AEF
:101A700088ED142A06DCB1EE433AB4EE432AF1EEC7
:101A800010FA03DAB0EE432A88ED143A98ED0C3AD6
:101A900098ED0D4A98ED115A98ED0E6A35EE405AC0
:101AA00022EE042A23EE013A33EE023A26EE054AEC
:101AB00098ED162A34EE033AB4EE423AF1EE10FAFB
:101AC00088ED153A06DCB1EE422AB4EE423AF1EE68
:101AD00010FA03DAB0EE423A88ED152A88ED110AC1
:101AE000BDEEC30A10EE107AB8B2050A88ED131ADB
:101AF0009EE000BF00000000000048C20000484215
:101B000000C0DA4500C0DAC5CDF80890B4EE4BDA73
:101B1000F1EE10FA80F29E803DEE0ADAB4EE4BDA76
:101B2000F1EE10FAC8BFB0EE4BDAB4EE4CEAF1EECB
:101B300010FA00F39580B4EE4CFAF1EE10FA40F38F
:101B40009E803FEE09FAB4EE4CFAF1EE10FAB8BFFF
:101B5000B0EE4CFAF4EE4B8AF1EE10FAC0F295803A
:101B60004FF0010BB068A9EB000064283FF660AFAE
:101B7000B6F9020098ED082A00EE100AB8EEC00A85
:101B80003DEE401A98ED0B3A31EE022AB4EE432AAC
:101B9000F1EE10FA88ED03DA88ED040A88ED061AF2
:101BA00088ED082A06DCB1EE433AB4EE432AF1EEA2
:101BB00010FA03DAB0EE432A88ED083A98ED003ABD
:101BC00098ED014A98ED055A98ED026A35EE405AB3
:101BD00022EE042A23EE013A33EE023A26EE054ABB
:101BE00098ED0A2A34EE033AB4EE423AF1EE10FAD6
:101BF00088ED093A06DCB1EE422AB4EE423AF1EE43
:101C000010FA03DAB0EE423A88ED092A88ED050AA7
:101C1000BDEEC30A10EE102A90B2030A88ED071A2F
:101C20007069A9EB000064287FF60AAF0027002541
:101C3000306ACDE90532A9EB00006428CDE90357ED
:101C400036D900270025F06AA9EB000064283FF68A
:101C5000D7AD8BE0B4EE4CEAF1EE10FA7FF76BAF44
:101C60003EEE09EAB4EE4CEAF1EE10FAB8BFB0EE7F
:101C70004CEAB4EE4CFAF1EE10FA3FF762AFF4EE34
:101C80004B8AF1EE10FABFF66BAF78EE8A8AF4EE6B
:101C90004B8A4FF0010BF1EE10FAC8BFF0EE4B8A01
:101CA000B068A9EB000064287FF662AFC0E600BF11
:101CB000B6F91A0098ED202A00EE100AB8EEC00A14
:101CC0003FEE401A98ED233A31EE022AB4EE432A51
:101CD000F1EE10FA88ED1BFA88ED1C0A88ED1E1A49
:101CE00088ED202A06DCB1EE433AB4EE432AF1EE49
:101CF00010FA03DAB0EE432A88ED203A98ED183A4C
:101D000098ED194A98ED1D5A98ED1A6A35EE405A29
:101D100022EE042A23EE013A33EE023A26EE054A79
:101D200098ED222A34EE033AB4EE423AF1EE10FA7C
:101D300088ED213A06DCB1EE422AB4EE423AF1EEE9
:101D400010FA03DAB0EE423A88ED212A88ED1D0A36
:101D5000BDEEC30A10EE107AB8B2050A88ED1F1A5C
:101D6000F06AA9EB000064283FF64AADB6F92600F8
:101D700098ED2C2A00EE100AB8EEC00A38EEC01A10
:101D800098ED2F3A31EE022AB4EE432AF1EE10FA22
:101D9000C8ED278A88ED280A88ED2A1A88ED2C2AB2
:101DA00006DCB1EE433AB4EE432AF1EE10FA03DA60
:101DB000B0EE432A88ED2C3A98ED243A98ED254A66
:101DC00098ED295A98ED266A35EE405A22EE042AFB
:101DD00023EE013A33EE023A26EE054A98ED2E2A1A
:101DE00034EE033AB4EE423AF1EE10FA88ED2D3AB1
:101DF00006DCB1EE422AB4EE423AF1EE10FA03DA12
:101E0000B0EE423A88ED2D2A88ED290ABDEEC30ACC
:101E100010EE106AB0B24FEA102A88ED2B1AF2E4E5
:101E2000F1EE100A4FF6FF71C0F2C03120EA010056
:101E300040F04070E1EE100A704700000000000022
:101E4000000001020304060708090000701E0008D4
:101E50000000002010000000EC010008801E0008B7
:101E600010000020700800000C02000800000000B4
:101E700001000000100000000024F4000000000039
:040000050800018965
:00000001FF
