:020000040800F2
:10000000B009002055020008F92200081521000857
:10001000F52200084D0400088D28000800000000AB
:10002000000000000000000000000000C1250008E2
:100030007504000800000000FD220008C525000826
:100040006F0200086F0200086F0200086F020008CC
:100050006F0200086F0200086F0200086F020008BC
:100060006F0200086F0200086F0200086F020008AC
:10007000690400086F0200086F0200086F020008A0
:100080006F0200086F0200086F0200086F0200088C
:10009000510400086F0200086F0200086F02000898
:1000A0006F0200086F0200086F0200086F0200086C
:1000B0006F0200086F0200086F0200086F0200085C
:1000C0006F0200086F0200086F0200086F0200084C
:1000D0006F0200086F0200086F0200087528000810
:1000E0006F0200086F0200086F0200086F0200082C
:1000F0006F0200086F0200086F0200086F0200081C
:100100006F0200086F0200086F0200086F0200080B
:100110006F0200086F0200086F0200086F020008FB
:100120006F0200086F0200086F0200086F020008EB
:100130006F0200086F0200086F0200086F020008DB
:100140005D0400086F0200086F0200086F020008DB
:100150006F0200086F0200086F0200086F020008BB
:100160006F0200086F0200086F0200086F020008AB
:100170006F0200086F0200086F0200080000000014
:100180006F0200086F02000800F002F800F052F859
:1001900014A696E8000CB244B344DA4501D100F04D
:1001A00049F8BAE80F000FA696E83000A5EB040561
:1001B00004EB0607AAEB0704A7F101074FEA1515A0
:1001C0004FEA3414A4F10104AC4201D300F032F838
:1001D00013F0010F18BFFB1A43F0010300F001F800
:1001E000DBE718474C3200006C320000103A24BFA5
:1001F00078C878C1FAD8520724BF30C830C144BF8C
:1002000004680C6070470000704700000023002461
:1002100000250026103A28BF78C1FBD8520728BF16
:1002200030C148BF0B6070471FB503F0E3F81FBD36
:1002300010B510BD00F0D0F81146FFF7F5FF02F041
:100240002DFB00F0EEF803B4FFF7F2FF03BC00F063
:10025000F5F800000948804709480047FEE7FEE737
:10026000FEE7FEE7FEE7FEE7FEE7FEE7FEE7FEE766
:1002700004480549054A064B704700006D260008F2
:1002800089010008B0030020B0090020B00500205B
:10029000B005002053EA020C00F069802DE9F04B14
:1002A0004FF00006002B1FBFB3FA83F503FA05F4E5
:1002B00024FA05F65E4012BF1643B2FA82F502FA3E
:1002C00005F4C5F120051EBF22FA05FC44EA0C0422
:1002D000203556EA044C4FEA144418BF641C4FF012
:1002E00000084FF00009904271EB030C39D300294C
:1002F00019BFB1FA81F701FA07F6B0FA80F700FAF0
:1003000007F6C7F120071EBF20FA07FC46EA0C06D5
:100310002037B6FBF4FCA7EB0507103F07F01F0BD7
:10032000CBF120062CFA06F60CFA0BFB44BFB346C1
:100330000026202FA4BF5E464FF0000B5BEA060CA0
:1003400008BF4FF0010B19EB0B0948EB0608ABFB9C
:10035000027C06FB02CC0BFB03CCC01B71EB0C0137
:10036000C1E70B46024641464846BDE8F08B13B54F
:10037000084318BF4FF0FF300146AFF30080BDE8DF
:100380001C4070474FF0000200B513469446964655
:10039000203922BFA0E80C50A0E80C50B1F1200198
:1003A000BFF4F7AF090728BFA0E80C5048BF0CC046
:1003B0005DF804EB890028BF40F8042B08BF7047A4
:1003C00048BF20F8022B11F0804F18BF00F8012B16
:1003D0007047704770477047754600F02BF8AE467F
:1003E00005006946534620F00700854618B020B541
:1003F000FFF73EFFBDE820404FF000064FF000073A
:100400004FF000084FF0000BAC46ACE8C009ACE878
:10041000C009ACE8C009ACE8C00921F007018D466D
:10042000704710B50446AFF300802046BDE8104089
:10043000FFF709BF0048704710000020014918204D
:10044000ABBEFEE72600020070470000FEE700009A
:1004500040F2D400C2F2000000F086B940F2FC0085
:10046000C2F2000000F080B940F22410C2F2000095
:1004700000F08ABC7047000072B600BFFEE70000C3
:1004800090F82020013A012A08D8006800F11402EF
:100490000020136819431160704700BF00F1240267
:1004A00001204FF480211368194311607047000048
:1004B00010B590F820E0D0F800C0AEF1010EBEF10A
:1004C000010FDCF808E011D81EF0E05F18D0CEF381
:1004D00001640120A04018608B68DBB1D1F804E012
:1004E000C86840EACE0040EA030E17E000F124039A
:1004F00001204FF480211A681143196010BD00BF1C
:1005000000F1240301204FF400111A68114319600F
:1005100010BD00BF0868CB6843EA405E0CF5C070B0
:1005200000EB0413240140F804E00C69184640F87D
:10053000044F097D012903D1016841F480710160F4
:1005400050680121D8601068986000201A68114333
:10055000196010BD90F82020013A012A30D8B0B5BA
:1005600046F20060C4F20000026842F0010202603C
:10057000026822F47C520260D1F814E0CC694A6A25
:100580000368012C43EA022202600EF01F024FF0C2
:10059000010303FA02F2C3696FEA020C23EA0203C1
:1005A000C36113D02CBBC36803EA0C03C360CB68E0
:1005B0008C8844EA034300EBCE0423640B4611E02D
:1005C000416A41F48021416201207047C3681343AE
:1005D000C3600B688C8844EA034300EBCE042364B9
:1005E00001F10C038C681B8843EA044300EBCE0442
:1005F000636443688D6943EA0204D1F810E0096A34
:10060000002D08BF03EA0C0444604369BEF1000FEB
:1006100043EA020408BF03EA0C040129446102D141
:10062000C1691143C161016821F00101016000202D
:10063000B0BD000070470000B0B590F82040013C0C
:10064000012C7DD8D0F800C000290CBFDCF80C408C
:10065000DCF81040A4077DD00CF5D8754FEA011CDA
:1006600055F80C4014F00404946055F80CE005EBC8
:10067000011C19BF4FEADE0555604FEA5E55156053
:10068000DCF80050E64605F00205D5605EF8044F40
:1006900024075ABFDEF8004004F00F040824146158
:1006A000DEF800400029C4F307249461DEF800500E
:1006B0004FEA15455561DCF808201A70026802EB14
:1006C0000112D2F8B8214FEA12225A70026802EBE6
:1006D0000112D2F8B8214FEA12429A70026802EB76
:1006E0000112D2F8B8214FEA1262DA70026802EB06
:1006F0000112D2F8BC211A71026802EB0112D2F881
:10070000BC214FEA12225A71026802EB0112D2F8A0
:10071000BC214FEA12429A71026802EB0112D2F830
:10072000BC214FEA1262DA7100680CBF00F10C01C3
:1007300000F11001002020220B681A430A60B0BDAE
:1007400000F1240101204FF480220B681A430A6053
:10075000B0BD00BF00F1240101204FF400120B686E
:100760001A430A60B0BD00002DE9F04F81B0044685
:1007700000684669D0F804908768D0F80CB0D0F8CB
:1007800010A0D0F81880F10704D1002530071DD43F
:1007900024E000BFF90710D00121BA07816009D415
:1007A000780700F1AF80380700F1B680204600F0EE
:1007B00083FA02E0204600F081FA0025F80500F1F6
:1007C0008780F80300F1B180300707D51BF01000D7
:1007D00004D0206845F400751021C160700708D569
:1007E0001BF0080005D020680821C160204600F0F9
:1007F000F5F9B00706D52068C068800702D020460A
:1008000000F0EEF9700607D51AF0100004D0206849
:1008100045F4806510210161B00608D51AF0080082
:1008200005D0206808210161204600F011FAF00689
:1008300006D520680069800702D0204600F00AFA39
:10084000B00308D519F0100005D0206810214160D0
:10085000204600F001FAF00308D519F0080005D091
:10086000206808214160204600F032FA300440F14F
:100870009B805FEA497040F1948006F4807008EA3A
:10088000102028435FEA8871014648BF41F0020109
:10089000B20558BF01465FEA48700D4648BF45F0B3
:1008A0000405700558BF0D46300540F17A8018F0F8
:1008B000700000F076801038000905286CD8DFE859
:1008C00000F003655D61596945F0080564E000BF0B
:1008D00020684FF48071BA0581600BD4780515D477
:1008E00038051DD4204600F0EBF9F8037FF56CAF16
:1008F0001BE000BF204600F0E5F9F8037FF564AF88
:1009000013E000BF4FF4006558E700BF05F5005540
:10091000F8037FF559AF08E04FF480554EE700BF6C
:1009200005F58045F8037FF54FAF20684FF480311F
:10093000BA0381600AD4780310D4380314D4204653
:1009400000F0C2F930073FF541AF47E7204600F01D
:10095000BDF930073FF53AAF40E700BF05F5004568
:1009600030073FF533AF39E705F5803530073FF500
:100970002DAF33E745F080050EE000BF45F02005C0
:100980000AE000BF45F0400506E000BF45F0100555
:1009900002E000BF45F480752068816921F0700194
:1009A000816120680421416055B1606A40EA050117
:1009B0002046616201B0BDE8F04FFFF73BBE00BFCB
:1009C00001B0BDE8F08F0000002804BF012070478F
:1009D000B0B5044690F8200010B9204600F06EF83B
:1009E0002068016841F00101016000F051FC0546FA
:1009F00020684168C90705D100F04AFC401B0B285C
:100A0000F6D310E0016821F00201016000F040FC23
:100A1000054600BF2068416889070DD500F038FC05
:100A2000401B0B28F6D3606A052140F40030606259
:100A3000012084F82010B0BD217E0268012922F037
:100A4000800208BF80320260617E0268012922F0C4
:100A5000400208BF40320260A17E0268012922F0F4
:100A6000200208BF20320260E17E0268012922F0E4
:100A7000100218BF10320260217F0268012922F0A3
:100A8000080208BF08320260617F0268012922F073
:100A9000040208BF04320260D4E901C2D4E903357C
:100AA00061691A432A431143ACF101021143C16148
:100AB00000200121606284F82010B0BD10B586B01E
:100AC000006846F60002C4F2000200219042CDE91F
:100AD0000411CDE90211019134D046F20041C4F273
:100AE0000001884277D140F2D001C2F200010A68C9
:100AF00043F64000C4F20200531C0B6052B90021BF
:100B00000091016841F000710160016801F000711D
:100B1000009100990021009150F8101C142441F01C
:100B2000080140F8101C50F8100C032100F00800D8
:100B30000090009840F20040C4F2020000F500600E
:100B400035E000BF43F64000C4F2020000910168A6
:100B500041F080610160016801F0806100910099BD
:100B600040F2D001C2F200010A68531C0B6052B976
:100B700000210091016841F000710160016801F0FD
:100B80000071009100990021009150F8101C402440
:100B900041F0020140F8101C50F8100C602100F0E8
:100BA00002000090009840F20040C4F2020001915F
:100BB0000221029100210391032104910921059151
:100BC00001A900F089FA20460021002200F0E2FB92
:100BD000204600F0CDFB06B010BD000070470000BD
:100BE00010B58AB003AA01AB0021FFF725FD08B1BB
:100BF0000AB010BD05980028FAD107980828F7D147
:100C00000398A0F201210729F2D80138BDF8041099
:100C1000C2B2520009BA52FA80F040F2CC12090C6A
:100C2000C2F2000222F82010BDF8061002EB800488
:100C300008BABDF80810000C608008BA9DF80A10C8
:100C4000000CA080A17100F023FBA0600AB010BDD1
:100C5000704700007047000070470000B0B50446C0
:100C600090F8200001281DD1022084F8200020687F
:100C7000016821F00101016000F00AFB054600BF98
:100C800020684068C00713D000F002FB401B0B280F
:100C9000F6D3606A40F400306062052084F82000DA
:100CA0000120B0BD606A40F4002060620120B0BD48
:100CB00000206062B0BD0000704700007047000077
:100CC0007047000070470000704700007047000048
:100CD0007047000070B5866D044600F0D9FA94F8AC
:100CE0003510022928D105462068216C026822F0BF
:100CF00016020260426922F08002426109B9A16CC9
:100D000019B1016821F008010160016821F00101B9
:100D1000016000BF20680068C00715D000F0B8FA75
:100D2000401B0628F6D320206065032084F8350098
:100D3000002184F8341070BD8020606501200021FE
:100D400084F8341070BD00BFE06D3F2101FA00F05F
:100D5000B060012084F835000020002184F83410B0
:100D600070BD000090F83510022909D1052180F8E6
:100D700035100068016821F0010101600020704712
:100D80008021416501207047F0B581B000210091BC
:100D900040F20801C2F200010B68D0E9166148F286
:100DA000B51537680822C1F64E358A403A42A3FB92
:100DB00005350CD003681C68640708D51C6824F04E
:100DC00004041C60B260426D42F0010242650122DF
:100DD0008A403A4208D003685B691B0604D5B260BA
:100DE000426D42F00202426504228A403A4208D033
:100DF00003681B689B0704D5B260426D42F0040291
:100E0000426510228A403A4219D001680B681B07DC
:100E100015D5B2600B680A685B0309D4D20509D402
:100E20000A6822F008020A60016C29B907E000BFD5
:100E3000110341D4016C11B1044688472046C26DAC
:100E4000202101FA02F33B4243D001680F68FF06FC
:100E50003FD5B36090F835700B68052F1CD123F097
:100E600016030B604B6923F080034B61036C0BB9D5
:100E7000836C1BB10B6823F008030B603F2191408A
:100E8000B160012180F83510016D0022002980F841
:100E9000342054D158E000BF0A685B0310D4D20557
:100EA00012D40A6822F010020A60012180F835107D
:100EB000002180F8341007E0816C0029BCD1BEE726
:100EC000110301D4416C00E0C16B11B104468847A5
:100ED0002046416DC1B3416DC9072ED0052180F870
:100EE00035100168AA0A0B6823F001030B60009B10
:100EF0000133934200931AD80B68DB0717D0009B8D
:100F000001339342009312D80B68DB070FD0009B8C
:100F10000133934200930AD80B68DB0707D0009B8C
:100F200001339342009302D80B68DB07DFD1012124
:100F300080F83510002180F83410C16C21B101B067
:100F4000BDE8F040084700BF01B0F0BD2DE9F04119
:100F5000044600F09DF9ECB10546022084F8350006
:100F60000020216884F83400086820F0010008603F
:100F700021680868C00711D000F08AF9401B0528D5
:100F8000F6D9032520230320636584F83550BDE896
:100F9000F08100BF0120BDE8F08100BF086848F281
:100FA0003F02CFF21002D4E9013500EA020C04F14D
:100FB0000C0898E8C10143EA0C032B431843D4E919
:100FC000072E304338431043626A40EA0E00042A79
:100FD00040EA08031CD1206BD4E90A2E40EA0E0037
:100FE000184308604869BEF1000F20F0030040EA92
:100FF000020040F0040C11D0B8F5005F36D0B8F113
:10100000000F45D1022A46D0012A3BD032B942E036
:101010000B60486920F0070040EA020C01F0F8007C
:101020004AF6AB221038CAF6AA22A0FB02231A09FC
:1010300043F22643C1F814C0C0F600039A5C40F2A4
:10104000FF335F284FF03F0021EA030100FA02F06E
:1010500088BF0431C4E916128860002301250020EE
:10106000636584F83550BDE8F08100BF032AD5D808
:10107000012540230120DFE802F0030E030500BF35
:1010800082E700BFAEF1C070B0FA80F0400904E022
:10109000032A04D3C2D1CEF300600028BED00125BC
:1010A00040230120636584F83550BDE8F0810000DD
:1010B000B0B5044600F0ECF8054640F20000C2F27C
:1010C00000000078611C18BF044400BF00F0E0F885
:1010D000401BA042FAD3B0BD2DE9F04F83B000F120
:1010E000200200F13E4741F60045009207F1FF77EC
:1010F000C4F2020508224FEAB726A84208BF072219
:1011000000254FF000084FF00009072E38BF4FEAC6
:10111000B72201920AE000BF09F1010908F10208B3
:10112000B9F1100F05F1040500F0A2800F6801224B
:1011300002FA09FE17EA0E0AEED0D1F804C0032223
:101140000CF003077E1E02FA08F4012E6FEA040B6E
:1011500012D88468CE6804EA0B0406FA08F6344311
:101160008460446824EA0E06CCF3001404FA09F4FF
:101170002643466004E000BF032F01D103271EE091
:10118000C6688C6806EA0B0604FA08F42643022FA8
:10119000C66014D16FF00302009E02EA590756F8A8
:1011A00007C005F01C040F220B69A2402CEA0202C2
:1011B000A3401A43F251D1F804C00CF003070268AF
:1011C00007FA08F302EA0B021A431CF4403F0260DC
:1011D000A2D0002243F644030292C4F202031A682A
:1011E00043F6004442F480421A601A68C4F20104D3
:1011F00002F480420292029A29F003024FF6084C50
:101200002244CFF6FF7C52F80C3005F00C070F2675
:10121000BE40B343019E06FA07F73B4342F80C3049
:10122000A2684B6842EA0A0743F60C4CDE0258BF3C
:1012300022EA0A07A760C4F2010CDCF800209E0233
:1012400042EA0A0758BF22EA0A07CCF8007062682F
:101250009E0342EA0A0758BF22EA0A07676022682B
:10126000DB0342EA0A0758BF22EA0A07276053E76E
:1012700003B0BDE8F08F00000069084018BF0120EE
:1012800070470000002A08BF090481617047000010
:1012900040F2AC30C2F200000068704740F200003B
:1012A00040F2AC31C2F20000C2F2000100780A68DC
:1012B000104408607047000080B543F60040C4F257
:1012C0000200016841F400710160016841F480612D
:1012D0000160016841F480710160032000F086F82C
:1012E0000F2000F005F800F027F8002080BD000076
:1012F00070B540F20006C2F2000640F208013278F2
:10130000C2F200014FF47A730968B3FBF2F20446AB
:10131000B1FBF2F1084600F061FB0F2C4FF0010524
:1013200008D838B94FF0FF3021460022002500F0E0
:1013300031F87460284670BD82B0002043F6400149
:101340000190C4F202014A6842F480424A604A684D
:1013500002F480420192019A0090086840F08050A7
:101360000860086800F080500090009802B0704754
:10137000002848BF704700F01F01012202FA01F166
:101380001C2202EAD0004EF20012CEF2000281507E
:101390007047000010B54EF60C5CCEF2000CDCF885
:1013A0000030C3F3022E8EF00704042C28BF04245F
:1013B000BEF103034FF0FF3E0EFA04F438BF0023E2
:1013C000A14399400EFA03F39A43114300F00F0230
:1013D00000F160430901043A03F5644362440028C4
:1013E00048BF02F10C03197010BD00004EF60C51FD
:1013F000CEF200010A684FF6FF031A4060F30A229A
:1014000042F0806040F0FD7008607047002804BF23
:10141000012070472DE9F04143F60808C4F20208A4
:101420000446D8F8F8030D4600F00700814207D9BA
:1014300088F8F853D8F8F80300F00700A84277D1ED
:101440002068810717D5410705D5D8F8001041F469
:10145000E051C8F80010010705D5D8F8001041F494
:101460006041C8F80010D8F80010A26821F0F0011F
:101470001143C8F80010C00740D1D8F8F80300F0B5
:101480000700854207D288F8F853D8F8F80300F02F
:101490000700A8424CD12068410707D5D8F80010B2
:1014A000E26821F4E0511143C8F80010000708D5A4
:1014B000D8F80000216920F4604040EAC100C8F873
:1014C000000000F07DF8D8F8001043F20E42C1F39E
:1014D0000311C0F60002515C40F2080220FA01F14B
:1014E00040F20400C2F200000068C2F20002116083
:1014F000FFF7FEFE0020BDE8F08100BF6068811E9E
:10150000022907D258F8081C89015CBF0120BDE8F8
:10151000F08111E0012807D158F8081C89035CBF4D
:101520000120BDE8F08107E058F8081C890703D4C2
:101530000120BDE8F08100BFD8F8001021F00301C0
:101540000843C8F80000FFF7A3FE064641F28837BB
:10155000D8F80000616800F00C00B0EB810F8CD06F
:10156000FFF796FE801BB842F2D90320BDE8F08158
:1015700040F2080043F60801C2F20000C4F2020182
:101580000068096843F21E42C1F38221C0F60002DE
:10159000515CC8407047000040F2080043F6080163
:1015A000C2F20000C4F202010068096843F21E4260
:1015B000C1F34231C0F60002515CC84070470000E0
:1015C00010B543F60404C4F202046168C1F381015A
:1015D00042F20040C0F2F400DFE801F002040A0227
:1015E00010BD00BF47F64000C0F27D1010BD00BF27
:1015F000206821682368490247F64001C0F27D1146
:1016000000F03F02C3F388105CBF42F20041C0F219
:10161000F401A1FB00010023FEF73CFE2168022239
:10162000C1F3014102EB4101B0FBF1F010BD00003C
:10163000002804BF012070472DE9F04182B0044624
:10164000007843F60006C007C4F202060CD0B0686A
:1016500000F00C00042840F081803068800303D53E
:101660006068002800F06881207880071BD5B0688A
:1016700010F00C0F09D0B06800F00C00082840F002
:1016800087807068400200F183803068800703D54E
:10169000E068012840F050813068216920F0F800AE
:1016A00040EAC10030602078000713D4207840075A
:1016B0002AD4A569002D00F03A81B06800F00C0032
:1016C000082840F0A580012D40F00E81012002B0D5
:1016D000BDE8F0816069002800F082800020C4F23B
:1016E00047200121C0F8801EFFF7D2FD054600BF4C
:1016F000706F8007DAD4FFF7CBFD401B0228F7D9C3
:10170000032002B0BDE8F081306C5FEAC0080AD463
:1017100000200190306C40F080503064306C00F05C
:1017200080500190019847F20007C4F20007386822
:10173000C00547D4386840F480703860FFF7A8FDD2
:10174000054600BF3868C0053CD4FFF7A1FD401B2B
:101750000228F7D9032002B0BDE8F081B06800F09C
:101760000C00082803D1706840023FF576AF61682D
:101770003068B1F5803F07D0B1F5A02F40F09A80D6
:1017800040F480203060306840F4803030609AE06F
:10179000E068002840F20000C4F247205CD001213C
:1017A0000160FFF775FD0546306880073FF574AFAF
:1017B000FFF76EFD401B0228F6D9032002B0BDE8FA
:1017C000F08100BFA168306F012905D0052955D1EE
:1017D00040F004003067306F40F00100306756E0A1
:1017E0000020C4F247200021C0F8801EFFF750FD02
:1017F000054600BF706F80077FF558AFFFF748FDC3
:10180000401B0228F6D9032002B0BDE8F08100BFDA
:101810000027C4F2472700203866FFF739FD022D64
:1018200005460DD13068800140F18A80FFF730FD18
:10183000401B02284FF00300F4D902B0BDE8F0814C
:101840003068800173D5FFF723FD401B02284FF05D
:101850000300F5D9F1E700BF00210160FFF718FD93
:10186000054600BF306880077FF51DAFFFF710FD0C
:10187000401B02284FF00300F4D9DEE720F00100FE
:101880003067306F002920F0040030677AD0FFF70E
:10189000FFFC054641F28837306F800700F18480F5
:1018A000FFF7F6FC401BB842F6D9032002B0BDE8B2
:1018B000F08100BF20F4803030603068002920F4CF
:1018C000802030607AD0FFF7E3FC05463068800363
:1018D0003FF5CAAEFFF7DCFC401B6428F6D90320B5
:1018E00002B0BDE8F08100BF7068E16900F48002D9
:1018F0008A4221D1216A00F03F028A421CD147F678
:10190000C071626A0140B1EB821F15D1A16A4FF626
:10191000FF73C903994300F44032A1F580318A4234
:101920000AD1E16A00F07060B0EB016F04D10020D1
:1019300002B0BDE8F08100BF012002B0BDE8F08137
:1019400004F11C052FCD084340EA8210D9034FF65D
:10195000FF729143A1F5803140EA05600843706051
:1019600001203866FFF794FC044600BF3068800110
:10197000DDD4FFF78DFC001B02284FF00300F5D9E2
:101980005BE700BFFFF784FC054641F2883700BFE4
:10199000306F800708D5FFF77BFC401BB8424FF043
:1019A0000300F5D949E700BFB8F1000F3FF581AE5C
:1019B000306C20F0805030647BE600BFFFF768FC9D
:1019C000054600BF306880037FF54EAEFFF760FC30
:1019D000401B64284FF00300F4D92EE7411E00207D
:1019E000B0EB116F1CBF012070474EF21002CEF217
:1019F000000251604EF62351CEF20001F0230B702D
:101A00000721906011607047704700007047000028
:101A1000B0B582B001680A68CC684B6902F02F0546
:101A2000202D04F0200505D125B102B0BDE8B0405D
:101A300000F02CBE5FEA027C1EBF03F0010E04F42E
:101A4000907313EB0E0341D1036BD50618D5012B10
:101A500016D114F0100313D0002201920A680192EB
:101A60004A680192019A496949064BD4818DC28D19
:101A7000C38D002B18BF914240F0068202B0B0BD6A
:101A800013062DD514F080032AD090F84120212A86
:101A9000F4D18268B2F5805F03D10269002A00F0B8
:101AA0007982026A531C036212784A60C28C013A3E
:101AB0001304C284E2D1C86820F08000C860C868FE
:101AC00040F04000C86002B0B0BD00BFD30718BFEF
:101AD00014F4807340F0E280530700F1E580EAE0FF
:101AE0005206CBD514F04002C8D0CA6822F040029A
:101AF000CA60202180F8411002B0BDE8B04000F07B
:101B000007BB00BFC26B11684B68858D99B2002975
:101B100000F0B480A94280F0B180C385D169B1F5ED
:101B2000807F00F0A080016851E8031F026821F463
:101B3000807142E80313DBB1016851E8031F0268BA
:101B400021F4807142E8031393B1016851E8031F47
:101B5000026821F4807142E803134BB1016851E837
:101B6000031F026821F4807142E80313002BDAD1CD
:101B7000016851E8051F026821F0010142E80513E0
:101B8000BBB3016851E8051F026821F0010142E87A
:101B9000051373B3016851E8051F026821F00101C4
:101BA00042E805132BB3016851E8051F026821F0D4
:101BB000010142E80513002BDAD11AE0016851E86F
:101BC000051F026821F0400142E80513DBB10168FE
:101BD00051E8051F026821F0400142E8051393B166
:101BE000016851E8051F026821F0400142E8051331
:101BF0004BB1016851E8051F026821F0400142E83D
:101C00000513002BDAD1202180F842100021016356
:101C1000016851E8031F026821F0100142E8031334
:101C2000DBB1016851E8031F026821F0100142E8AE
:101C3000031393B1016851E8031F026821F01001FA
:101C400042E803134BB1016851E8031F026821F019
:101C5000100142E80313002BDAD1C16B0446084699
:101C6000FFF738F8204602214163818DC28D891A21
:101C700089B202B0BDE8B040FFF7C6BE8D427FF426
:101C8000FDAED269B2F5807F7FF4F8AE02224263E6
:101C900002B0BDE8B040FFF7B7BE00BF436C43F0F1
:101CA00001034364530706D5BEF1000F03D0436C14
:101CB00043F002034364930706D5BEF1000F03D03F
:101CC000436C43F004034364BCF1000F06D55EEAA5
:101CD000050303D0436C43F008034364436C002BBB
:101CE0003FF4CCAE920605D525B1044600F0CEFCFB
:101CF000216820464969426C01F0400102F0080267
:101D0000891800F0B98000BF016851E8031F02681C
:101D100021F4907142E80313BBB3016851E8031F3B
:101D2000026821F4907142E8031373B3016851E82B
:101D3000031F026821F4907142E803132BB301687A
:101D400051E8031F026821F4907142E80313002B4D
:101D5000DAD11AE0016851E8051F026821F001019B
:101D600042E80513DBB1016851E8051F026821F064
:101D7000010142E8051393B1016851E8051F0268AB
:101D800021F0010142E805134BB1016851E8051F3C
:101D9000026821F0010142E80513002BDAD1016B42
:101DA000012924D1016851E8031F026821F01001C4
:101DB00042E80313DBB1016851E8031F026821F018
:101DC000100142E8031393B1016851E8031F026850
:101DD00021F0100142E803134BB1016851E8031FE1
:101DE000026821F0100142E80313002BDAD1202110
:101DF00080F842100021016301684969490640F1F9
:101E0000C380016851E8051F026821F0400142E8E3
:101E10000513DBB1016851E8051F026821F040019C
:101E200042E8051393B1016851E8051F026821F0EB
:101E3000400142E805134BB1016851E8051F0268F3
:101E400021F0400142E80513002BDAD1C16B0029D3
:101E500000F09A8042F28162C0F600020446084611
:101E60000A65FEF77FFF00283FF408AEE06B016DC6
:101E700002B0BDE8B04008470446FFF7C7FD0020A8
:101E8000606402B0B0BD00BF891A00BF026852E8AA
:101E9000032F036822F4907243E80325BDB3026860
:101EA00052E8032F036822F4907243E8032575B3C8
:101EB000026852E8032F036822F4907243E8032576
:101EC0002DB3026852E8032F036822F4907243E8AE
:101ED0000325002DDAD11AE0026852E8052F0368C5
:101EE00022F0010243E80525DDB1026852E8052F22
:101EF000036822F0010243E8052595B1026852E823
:101F0000052F036822F0010243E805254DB1026860
:101F100052E8052F036822F0010243E80525002D51
:101F2000DAD1202280F8422000220263026852E8BF
:101F3000032F036822F0100243E80325DDB1026895
:101F400052E8032F036822F0100243E8032595B1FD
:101F5000026852E8032F036822F0100243E80325C9
:101F60004DB1026852E8032F036822F0100243E8E3
:101F70000325002DDAD1022289B2426302B0BDE806
:101F8000B040FFF741BD00BF02B0BDE8B040FFF771
:101F90003DBD00BF026A32F8023B6FF35F234B6026
:101FA000026283E5002804BF0120704710B5044693
:101FB00090F8410028B9002084F84000204600F045
:101FC00021F8242084F841002068C16821F40051E0
:101FD000C160204600F0DAFB2068016921F49041DD
:101FE0000161416921F02A014161C16841F4005158
:101FF000C16000202021606484F8411084F8421000
:10200000606310BD2DE9F04F87B0044644F6000729
:102010000068C4F200070026B8420696CDE90466BF
:102020000396029602D007B0BDE8F08F43F6300069
:102030000196C4F20200016902AD41F48021016100
:1020400001694FF4806801F48021019101990196A2
:1020500001684FF0020941F00201016001684FF090
:10206000030A01F0020101910199019601684FF004
:10207000070B41F0040101600068294600F00400EC
:102080000190019807F5DE30CDF80880CDE9039680
:10209000CDF814A0CDF818B0FFF71EF84FF400608B
:1020A000CDE9020904A880E8400C07F5E030294694
:1020B000FFF712F840F2241546F22800C2F200059C
:1020C000C4F202004FF0006185E843004FF4403055
:1020D0004FF48072C5E908062846C5E90368C5E9DA
:1020E0000566EA61FEF732FF002818BFFEF7C4F963
:1020F000272000210022E563AC63FFF74BF927207E
:10210000FFF736F907B0BDE8F08F00007047000018
:1021100070470000FEE7000080B540F2D40046F2B0
:102120000041C2F20000C4F200010322002380E853
:102130000E0000F10C014FF4202C4FF4801E81E8BA
:10214000085083618383FEF73FFC002808BF80BDF1
:10215000BDE88040FEF790B980B540F2FC0046F63D
:102160000001C2F20000C4F200010322002380E853
:102170000E0000F10C014FF4202C4FF4801E81E87A
:10218000085083618383FEF71FFC002808BF80BDD1
:10219000BDE88040FEF770B980B582B000200190A4
:1021A00043F63000C4F202000168002241F400113D
:1021B00001600068002100F40010019001980C20DB
:1021C000FFF7E8F80C2002B0BDE88040FFF7D0B878
:1021D0002DE9F04186B0002643F630000596CDE9A2
:1021E0000366CDE901660096C4F20200016841F67B
:1021F000004441F0800101600168C4F2020401F072
:1022000080010091009900960168002241F00101CF
:1022100001600168022501F001010091009900961A
:10222000016841F002010160016801F002010091C2
:1022300000990096016841F004010160016801F015
:102240000401009100990096016841F008010160C5
:102250000068022100F00800009000982046FFF777
:1022600011F8019501AD012720462946CDE90277F5
:102270000496FEF731FFA4F5E0502946CDE901763A
:102280000397FEF729FF20464FF4E05100224FF458
:10229000E058FEF7F7FF20462946CDE90187CDE952
:1022A0000366FEF719FF06B0BDE8F08180B540F285
:1022B000841044F60001C2F20000C4F2000148F2AA
:1022C000A062C0F20102002380E80E0000F10C01C0
:1022D0004FF4806C4FF00C0E81E80850C0E90633D3
:1022E000FFF760FE002808BF80BDBDE88040FEF714
:1022F000C3B80000FEE70000FEE7000070470000E2
:1023000080B540F28413C2F20003D3F800C0DCF8B9
:10231000143043F04003CCF81430DCF80C3043F0B8
:102320001003CCF80C3040F22413C2F20003D3F8AF
:1023300000E0DEF800C02CF0010319E0DEF8003008
:1023400023F00103CEF80030DEF80030DB071FBFBA
:10235000DEF8003023F00103CEF80030DEF8003064
:1023600018BF5FEAC37315D0DEF8003023F0010315
:10237000CEF80030DEF80030DB071FBFDEF800309B
:1023800023F00103CEF80030DEF8003018BF5FEA1A
:10239000C373D3D144F60403C4F20003CEF808306B
:1023A000CEF80C00CEF81010CEF80420DEF80000B5
:1023B00040F48020CEF80000DEF8000040F001007C
:1023C000CEF8000080BD00002DE9F04382B040F25D
:1023D0008410C2F2000000680168890670D444F6D7
:1023E0000001C4F200010968C90640F1E58000213E
:1023F000009101682423009140680090009840F209
:102400002410C2F20000006801680268090322F08B
:10241000010202604268436091B25BD402681229F3
:1024200042F400220260026842F00102026040F0C1
:10243000C38040F27000C2F20000817DC77DC67D7E
:10244000047E90F81880457E90F81A9090F81AE073
:1024500090F81BC0C37EF608C3F301138372C37EDA
:1024600064F34A169B09C372037F427F67F30A2114
:1024700043EA02228281827FC37F4FEA5E0742EAFB
:102480000322C28190F8202090F8213042EA0322F2
:10249000028290F82220AB00827490F8232043EA55
:1024A0009813C27490F8242090F8254069F38A2389
:1024B00042EA0422828290F8262090F8275068E0B1
:1024C000002101910168019140680190019802B0DA
:1024D000BDE8F08346F22802C4F202021368122912
:1024E00023F400231360026842F00102026063D10A
:1024F00040F27000C2F2000090F83A1090F83B7081
:1025000090F83B6090F83C4090F83C8090F83D504B
:1025100090F83E9090F83EE090F83FC090F83F3041
:10252000F608C3F30113837290F83F3064F34A1640
:102530009B09C37290F8403090F8412067F30A215C
:1025400043EA0222828190F8422090F843304FEA19
:102550005E0742EA0322C28190F8442090F8453099
:1025600042EA0322028290F84620AB00827490F87F
:10257000472043EA9813C27490F8482090F84940E5
:1025800069F38A2342EA0422828290F84A2090F872
:102590004B50A1F580610180A6F580616CF3CA17EC
:1025A0004180A3F5806142EA05228180A7F5806120
:1025B000C180A2F58061018102B0BDE8F083000016
:1025C00070470000FEF76ABE70B592B006AC2046B8
:1025D0003021FDF7D7FE002543F640000595CDE9F3
:1025E0000355CDE901550095C4F2020001680226A9
:1025F00041F080510160006800F080500090009828
:1026000047F200000095C4F20000016841F48041E7
:102610000160006800F4804000900098012009905B
:1026200010200A9008200E905420CDE90F060420B7
:10263000119020460696CDE90C65FEF7F9FF18B11A
:1026400072B600BFFEE700BF0F20CDE901064FF4D0
:102650008050CDE9040501A802210395FEF7D6FEBE
:1026600010B172B6FEE700BF12B070BD4EF68850D2
:10267000CEF20000016841F4700101607047000073
:10268000806B0021C185FFF7C1B9000081B090F8CF
:102690004210222921D183680246B3F5805F09D117
:1026A00052F8281F52F8183C002B63D003685B686F
:1026B0000AE000BF52F8281F13B90369002BF5D0B8
:1026C00003685B6803F07F030B70116801311160D0
:1026D000C18D01390A04C18502D001B0704700BF25
:1026E0000168CA6822F02002CA60CA6822F48072B7
:1026F000CA604A6922F001024A61202180F8421032
:1027000000214163026B012A3CD10163016851E859
:10271000031F026821F0100142E80313DBB10168D6
:1027200051E8031F026821F0100142E8031393B13E
:10273000016851E8031F026821F0100142E8031309
:102740004BB1016851E8031F026821F0100142E813
:102750000313002BDAD101680A68D20606D50022DD
:1027600000920A680092496800910099818D01B039
:10277000FFF74AB9026852686FF35F2221F8022B13
:102780008162A5E701B0FFF7C1BC0000B0B5044607
:10279000006804F108030ECB0569194325F4405580
:1027A0002A4302616269E3691143C268194349F22D
:1027B0000C639A431143C1604169A26921F44071DD
:1027C00041F20043114340F48062C4F201039A4293
:1027D000416103D1FEF7E0FE02E000BFFEF7C8FE54
:1027E000E1694FF69C7563681922C0F6FF75B1F573
:1027F000004FA0FB02011FD15A00DB0FFDF74AFD7D
:1028000048F21F51C5F2EB11A0FB01235A0905F153
:10281000805302FB0300322303EBC000A0FB010145
:102820004FF4F87000EA111000EB0210C1F34211EE
:10283000084421688860B0BD9A009B0FFDF72AFD0F
:1028400048F21F51C5F2EB11A0FB01235A0902FB0C
:102850000500322303EB0010A0FB0101F02000EA89
:10286000511000EB0210C1F3431108442168886045
:10287000B0BD000080B5FFF7A7FD40F28410C2F2A2
:102880000000BDE88040FFF7C3B80000FEE700008D
:1028900040F27000C2F20000704700009AB0FEF7EC
:1028A0000BFDFFF791FEFFF793FCFFF775FCFFF7B9
:1028B00033FCFFF751FCFFF7F9FC00F091FD40F20B
:1028C000D406C2F20006002501240DA93046169553
:1028D000CDE91255CDE91444CDE90D55CDE90F559B
:1028E0001195FDF737FE3046FEF7B8F93046022164
:1028F000FDF7C6FD0E20CDE91354CDE9154040F299
:10290000FC04C2F200040DAECDE911502046314660
:10291000CDE90D55CDE90F55FDF71CFE2046FEF71C
:102920009DF920460221FDF7ABFD4FF4FA70FEF74A
:10293000BFFB40F22C28C2F200080020C4F2A00025
:102940004CF6CD4208F1300C4FF07C51C3F6CC521E
:102950008CE8270008F1600C46F2000346F20007FD
:102960008CE8270008F1900CC4F26A63C4F2EA57BD
:102970008CE8270008F1C00CC8E90A37C8E9163707
:10298000C8E92E37C8E922378CE82700C8E946375E
:10299000C8E93A3708F1F00CC8E9523708F59073E6
:1029A00088E82700C8E90455C8E90655C8E908556C
:1029B000C8E91055C8E91255C8E91455C8E91C55AD
:1029C000C8E91E55C8E92855C8E92A55C8E92C5553
:1029D000C8E92055C8E93455C8E93655C8E9405515
:1029E000C8E94255C8E94455C8E938558CE827007C
:1029F000C8E9505527C3C8E94C55C8E94E55FEF7FC
:102A000047FC40F2CC17C2F200079FEDB68AB860CF
:102A100078613862F862B86378643865F865301DAB
:102A20009FEDB19A9FEDB1AA9FEDB1BA9FEDB1CAEA
:102A30009FEDB1DA9FEDB1EA9FEDB1FA0290F0EEB1
:102A4000488AF0EE489AF0EE48AAF0EE48BAF0EE66
:102A500048CAF0EE48DA002500204FF00009F0EEF9
:102A600048EA019017E000BF0026012241F6004429
:102A7000C4F2020420464FF48051FEF703FC2046C6
:102A80004FF400610022FEF7FDFB20464FF4806109
:102A90003246FEF7F7FBFEF7FBFB064641F6004029
:102AA000C4F20200A0F5E0500121FEF7E5FB50B9A9
:102AB000A6EB0900C92806D3E80701D0B14622E0F9
:102AC0000125B1460196E80718BF5FEAC57115D127
:102AD000B0EE480A002818BFB0EE4B0AF4EE408A68
:102AE000F1EE10FA25DA78EE898AF4EE408AF1EEFA
:102AF00010FAC8BFF0EE408A2AE000BF0199711AAF
:102B000049097C29E4D90025C8F82050C8F850505C
:102B1000C8F88050C8F8B050C8F8E050C8F8105154
:102B2000C8F84051B0EE480AF4EE408AF1EE10FACF
:102B3000D9DBF4EE408AF1EE10FA09DD78EE8F8AE7
:102B4000F4EE408AF1EE10FA02DAF0EE408A00BFAD
:102B5000B0EE480AE80718BFB0EE4A0AF4EE409A11
:102B6000F1EE10FA0ADA79EE899AF4EE409AF1EE73
:102B700010FA11DDF0EE409A0EE000BFF4EE409A3C
:102B8000F1EE10FA08DD79EE8F9AF4EE409AF1EE4C
:102B900010FAB8BFF0EE409AB0EE480A002818BF0D
:102BA000B0EE4A0AF4EE40AAF1EE10FA0ADA7AEE32
:102BB00089AAF4EE40AAF1EE10FA11DDF0EE40AA77
:102BC0000EE000BFF4EE40AAF1EE10FA08DD7AEE56
:102BD0008FAAF4EE40AAF1EE10FAB8BFF0EE40AAC8
:102BE000B0EE480A002818BFB0EE4B0AF4EE40BA27
:102BF000F1EE10FA0ADA7BEE89BAF4EE40BAF1EEA1
:102C000010FA11DDF0EE40BA0EE000BFF4EE40BA6B
:102C1000F1EE10FA08DD7BEE8FBAF4EE40BAF1EE79
:102C200010FAB8BFF0EE40BAB0EE480A002818BF5C
:102C3000B0EE4C0AF4EE40EAF1EE10FA0ADA7EEE5B
:102C400089EAF4EE40EAF1EE10FAC8BFF0EE40EA8D
:102C50000EE000BFF4EE40EAF1EE10FA08DD7EEE81
:102C60008FEAF4EE40EAF1EE10FA01DAF0EE40EA13
:102C7000B0EE481A15F0010018BFB0EE4D1AB0EED4
:102C8000480AF4EE41DA18BFB0EE4E0AF1EE10FA3F
:102C90000ADA7DEE89DAF4EE41DAF1EE10FAC8BF15
:102CA000F0EE41DA0EE000BFF4EE41DAF1EE10FA98
:102CB00008DD7DEE8FDAF4EE41DAF1EE10FA01DA9A
:102CC000F0EE41DAF4EE40CAF1EE10FA1ADA7CEED8
:102CD00089CAF4EE40CAF1EE10FAC8BFF0EE40CA5D
:102CE0001EE000BF000000000000484200C0DAC53E
:102CF00000C0DA4500803B450060EAC50060EA4557
:102D0000000048C2F4EE40CAF1EE10FA08DD7CEE95
:102D10008FCAF4EE40CAF1EE10FA01DAF0EE40CAC2
:102D2000B868301A642803D900200A9059E000BF1F
:102D3000B7F9020098ED082A00EE100AB8EEC00AB2
:102D400038EEC01A98ED0B3A31EE022AB4EE432A5F
:102D5000F1EE10FAC8ED038A88ED040A88ED061A30
:102D600088ED082A06DCB1EE433AB4EE432AF1EED0
:102D700010FA03DAB0EE432A88ED083A98ED003AEB
:102D800098ED014A98ED055A98ED026A35EE405AE1
:102D900022EE042A23EE013A33EE023A26EE054AE9
:102DA00098ED0A2A34EE033AB4EE423AF1EE10FA04
:102DB00088ED093A06DCB1EE422AB4EE423AF1EE71
:102DC00010FA03DAB0EE423A88ED092A88ED050AD6
:102DD000BDEEC30A10EE100A0A9080B2000A88ED18
:102DE000071A09907869301A642803D900200890DE
:102DF00059E000BFB7F90E0098ED142A00EE100A52
:102E0000B8EEC00A39EEC01A98ED173A31EE022A30
:102E1000B4EE432AF1EE10FAC8ED0F9A88ED100ACD
:102E200088ED121A88ED142A06DCB1EE433AB4EEAE
:102E3000432AF1EE10FA03DAB0EE432A88ED143A91
:102E400098ED0C3A98ED0D4A98ED115A98ED0E6AEE
:102E500035EE405A22EE042A23EE013A33EE023ACE
:102E600026EE054A98ED162A34EE033AB4EE423ABD
:102E7000F1EE10FA88ED153A06DCB1EE422AB4EE16
:102E8000423AF1EE10FA03DAB0EE423A88ED152A32
:102E900088ED110ABDEEC30A10EE100A089080B248
:102EA000000A88ED131A0790386A301A642803D98B
:102EB0000020069059E000BFB7F91A0098ED202ACB
:102EC00000EE100AB8EEC00A3AEEC01A98ED233AA6
:102ED00031EE022AB4EE432AF1EE10FAC8ED1BAA35
:102EE00088ED1C0A88ED1E1A88ED202A06DCB1EE5A
:102EF000433AB4EE432AF1EE10FA03DAB0EE432A75
:102F000088ED203A98ED183A98ED194A98ED1D5A37
:102F100098ED1A6A35EE405A22EE042A23EE013A61
:102F200033EE023A26EE054A98ED222A34EE033AB1
:102F3000B4EE423AF1EE10FA88ED213A06DCB1EE39
:102F4000422AB4EE423AF1EE10FA03DAB0EE423A17
:102F500088ED212A88ED1D0ABDEEC30A10EE100A85
:102F6000069080B2000A88ED1F1A0590F86A301AA0
:102F7000642803D90020049059E000BFB7F9260067
:102F800098ED2C2A00EE100AB8EEC00A3BEEC01AEB
:102F900098ED2F3A31EE022AB4EE432AF1EE10FA00
:102FA000C8ED27BA88ED280A88ED2A1A88ED2C2A60
:102FB00006DCB1EE433AB4EE432AF1EE10FA03DA3E
:102FC000B0EE432A88ED2C3A98ED243A98ED254A44
:102FD00098ED295A98ED266A35EE405A22EE042AD9
:102FE00023EE013A33EE023A26EE054A98ED2E2AF8
:102FF00034EE033AB4EE423AF1EE10FA88ED2D3A8F
:1030000006DCB1EE422AB4EE423AF1EE10FA03DAEF
:10301000B0EE423A88ED2D2A88ED290ABDEEC30AAA
:1030200010EE100A049080B2000A88ED2B1A03906B
:10303000B86B301A642840F2C78000210022786CF7
:10304000301A642800F21D81B7F93E0098ED442A39
:1030500000EE100AB8EEC00A3DEEC01A98ED473AED
:1030600031EE022AB4EE432AF1EE10FAC8ED3FDA4F
:1030700088ED400A88ED421A88ED442A06DCB1EE5C
:10308000433AB4EE432AF1EE10FA03DAB0EE432AE3
:1030900088ED443A98ED3C3A98ED3D4A98ED415A16
:1030A00098ED3E6A35EE405A22EE042A23EE013AAC
:1030B00033EE023A26EE054A98ED462A34EE033AFC
:1030C000B4EE423AF1EE10FA88ED453A06DCB1EE84
:1030D000422AB4EE423AF1EE10FA03DAB0EE423A86
:1030E00088ED452A88ED410ABDEEC30A10EE103A7C
:1030F00098B24FEA102A88ED431A386D301A6428C6
:1031000000F2C780B7F94A0098ED502A00EE100A85
:10311000B8EEC00A3CEEC01A98ED533A31EE022ADE
:10312000B4EE432AF1EE10FAC8ED4BCA88ED4C0A12
:1031300088ED4E1A88ED502A06DCB1EE433AB4EE23
:10314000432AF1EE10FA03DAB0EE432A88ED503A42
:1031500098ED483A98ED494A98ED4D5A98ED4A6AEB
:1031600035EE405A22EE042A23EE013A33EE023ABB
:1031700026EE054A98ED522A34EE033AB4EE423A6E
:10318000F1EE10FA88ED513A06DCB1EE422AB4EEC7
:10319000423AF1EE10FA03DAB0EE423A88ED512AE3
:1031A00088ED4D0ABDEEC30A10EE106AB0B24FEAC8
:1031B000102B88ED4F1AF5EE408AF1EE10FACDE9AA
:1031C0000B5970D07EE000BFB7F9320098ED382A75
:1031D00000EE100AB8EEC00A3EEEC01A98ED3B3A77
:1031E00031EE022AB4EE432AF1EE10FAC8ED33EACA
:1031F00088ED340A88ED361A88ED382A06DCB1EEFF
:10320000433AB4EE432AF1EE10FA03DAB0EE432A61
:1032100088ED383A98ED303A98ED314A98ED355AC4
:1032200098ED326A35EE405A22EE042A23EE013A36
:1032300033EE023A26EE054A98ED3A2A34EE033A86
:10324000B4EE423AF1EE10FA88ED393A06DCB1EE0E
:10325000422AB4EE423AF1EE10FA03DAB0EE423A04
:1032600088ED392A88ED350ABDEEC30A10EE101A32
:1032700088B2020A88ED371A786C301A64287FF613
:10328000E3AE00234FF0000A386D301A64287FF651
:1032900039AF00264FF0000BF5EE408AF1EE10FA40
:1032A000CDE90B590ED1F5EE409AF1EE10FA09D1A5
:1032B000F5EE40AAF1EE10FA04D1F5EE40BAF1EEC7
:1032C00010FA1BD041F60047C4F20207384689467F
:1032D0004FF48051144600221D46FDF7D3FF3846B7
:1032E0004FF400610122FDF7CDFF38464FF48061B5
:1032F0000022FDF7C7FF2B462246494640F2FF1049
:10330000DDF808900D908DF864B08DF8656040F29E
:10331000FC000DAC18AE0DF15C0B002708258DF8F4
:1033200060208DF861108DF86330C2F200002146F4
:1033300032465B46C9E90077C9E90277C9F81070DF
:10334000CDE90F7711958DF862A0ADF86670FDF7A5
:10335000AFF84FF400700D90099821468DF8600089
:103360000A9832468DF8610007985B468DF8620036
:103370000898C9E900778DF863000598C9E90277D4
:103380008DF864000698C9F810708DF865000398F0
:10339000CDE90F778DF86600049811958DF86700D8
:1033A00040F2D400C2F20000FDF782F80520FDF7DC
:1033B0007FFEFFF76DFA40F2CC17DDE90B590028CC
:1033C000C2F200073FF467ABC07A01283FF44CAB70
:1033D00002287FF460AB01260022FFF747BB000004
:1033E00040F27001C2F2000101F116003A312422CC
:1033F000FEF786BFF1EE100A4FF6FF71C0F2C03142
:1034000020EA010040F04070E1EE100A7047000031
:103410000000000000000102030406070809000084
:10342000000001020304000610160006101600003A
:10343000503400080000002010000000EC010008DB
:103440006034000810000020A00900000C020008F1
:1034500001000000100000000024F4000000000043
:040000050800018965
:00000001FF
