:020000040800F2
:10000000F00B0020550200084D2900086927000860
:10001000492900084D0400083133000800000000A1
:10002000000000000000000000000000D12C0008CB
:10003000410B0008000000000D2A0008693000088C
:100040006F0200086F0200086F0200086F020008CC
:100050006F0200086F0200086F0200086F020008BC
:100060006F0200086F0200086F0200086F020008AC
:10007000350B00086F0200086F0200086F020008CD
:100080006F0200086F0200086F0200086F0200088C
:10009000510400086F0200086F0200086F02000898
:1000A0006F0200086F0200086F0200086F0200086C
:1000B0006F0200086F0200086F0200086F0200085C
:1000C0006F0200086F0200086F0200086F0200084C
:1000D0006F0200086F0200086F0200081933000861
:1000E0006F0200086F0200086F0200086F0200082C
:1000F0006F0200086F0200086F0200086F0200081C
:100100006F0200086F0200086F0200086F0200080B
:100110006F0200086F0200086F0200086F020008FB
:100120006F0200086F0200086F0200086F020008EB
:100130006F0200086F0200086F0200086F020008DB
:100140005D0400086F0200086F0200086F020008DB
:100150006F0200086F0200086F0200086F020008BB
:100160006F0200086F0200086F0200086F020008AB
:100170006F0200086F0200086F0200080000000014
:100180006F0200086F02000800F002F800F052F859
:1001900014A696E8000CB244B344DA4501D100F04D
:1001A00049F8BAE80F000FA696E83000A5EB040561
:1001B00004EB0607AAEB0704A7F101074FEA1515A0
:1001C0004FEA3414A4F10104AC4201D300F032F838
:1001D00013F0010F18BFFB1A43F0010300F001F800
:1001E000DBE71847D0330000F0330000103A24BF9B
:1001F00078C878C1FAD8520724BF30C830C144BF8C
:1002000004680C6070470000704700000023002461
:1002100000250026103A28BF78C1FBD8520728BF16
:1002200030C148BF0B6070471FB503F0A5F91FBD73
:1002300010B510BD00F0D0F81146FFF7F5FF03F040
:100240007FF800F0EEF803B4FFF7F2FF03BC00F014
:10025000F5F800000948804709480047FEE7FEE737
:10026000FEE7FEE7FEE7FEE7FEE7FEE7FEE7FEE766
:1002700004480549054A064B704700001131000843
:1002800089010008F0050020F00B0020F007002095
:10029000F007002053EA020C00F069802DE9F04BD2
:1002A0004FF00006002B1FBFB3FA83F503FA05F4E5
:1002B00024FA05F65E4012BF1643B2FA82F502FA3E
:1002C00005F4C5F120051EBF22FA05FC44EA0C0422
:1002D000203556EA044C4FEA144418BF641C4FF012
:1002E00000084FF00009904271EB030C39D300294C
:1002F00019BFB1FA81F701FA07F6B0FA80F700FAF0
:1003000007F6C7F120071EBF20FA07FC46EA0C06D5
:100310002037B6FBF4FCA7EB0507103F07F01F0BD7
:10032000CBF120062CFA06F60CFA0BFB44BFB346C1
:100330000026202FA4BF5E464FF0000B5BEA060CA0
:1003400008BF4FF0010B19EB0B0948EB0608ABFB9C
:10035000027C06FB02CC0BFB03CCC01B71EB0C0137
:10036000C1E70B46024641464846BDE8F08B13B54F
:10037000084318BF4FF0FF300146AFF30080BDE8DF
:100380001C4070474FF0000200B513469446964655
:10039000203922BFA0E80C50A0E80C50B1F1200198
:1003A000BFF4F7AF090728BFA0E80C5048BF0CC046
:1003B0005DF804EB890028BF40F8042B08BF7047A4
:1003C00048BF20F8022B11F0804F18BF00F8012B16
:1003D0007047704770477047754600F02BF8AE467F
:1003E00005006946534620F00700854618B020B541
:1003F000FFF73EFFBDE820404FF000064FF000073A
:100400004FF000084FF0000BAC46ACE8C009ACE878
:10041000C009ACE8C009ACE8C00921F007018D466D
:10042000704710B50446AFF300802046BDE8104089
:10043000FFF709BF0048704710000020014918204D
:10044000ABBEFEE72600020070470000FEE700009A
:1004500040F21840C2F2000000F0ECBC40F2404014
:10046000C2F2000000F0E6BC014640F27000C2F2A9
:100470000000027A0368002A08BF1346994208BFA9
:1004800000F030B840F28400C2F20000027A036843
:10049000002A08BF1346994218BF704700F022B8DF
:1004A00000284FF0010C18BF002A01D160467047A8
:1004B00080B5DDF808C04FF0000EC0F810C04FF056
:1004C000010CC0E9002EC0E902E3BDE8804019B18B
:1004D0000129EBD10E21416080F808C04FF0000CDB
:1004E00060467047002851D0027A002A4ED0026838
:1004F000914218BF704770B58CB006460D4601F0AA
:10050000F1F9044605AA03AB2846002100F0FAFBE6
:10051000C8BB73680598079A0999002B08BF002A81
:1005200020D0002A08BF08292DD1A0F201210729D7
:1005300029D8BDF80C200138C1B210BABDF80E3070
:10054000020CBDF810009DF812C0DBBA0329C5BA31
:100550001ED8F068B8B1CDE9005C029400F0D0FA82
:1005600011E000BF0829DCD1A0F20523062BD8D862
:10057000BDF80C10BDF80E20043809BA090CD2BA27
:10058000C0B202F0D5FF0CB0BDE87040704700BFAC
:1005900030690028F7D0CDE9005C029402F046FDF6
:1005A000F1E700004FF0010CE8B3A1F10803DBB262
:1005B000F92B38D380B58AB047F230539A42B8BF8E
:1005C000134648F6D022CFF6FF729342D8BF1346A7
:1005D00040F2FF2C6FF00402052938BF40F2FF1CE7
:1005E00038BF4FF0FF3202EB010E0022CDE90822A6
:1005F000CDE90622CDE90222CDE904C20822089203
:100600005FFA8EF102AA4FEA132C02EB410E02F8B8
:1006100011C08EF8013004A901AB00F0AFFA844696
:100620000AB0BDE88040604670470000002804BF63
:100630000120704710B58AB00024CDE904140821C8
:10064000DDE90CECCDE908440891110A8DF8081099
:10065000190A8DF80A104FEA1E218DF80C104FEA86
:100660001C218DF809208DF80B308DF80E1004A98F
:1006700002AA01ABCDE906448DF80DE08DF80FC05C
:1006800000F07CFA0AB010BD002804BF01207047BA
:100690000146007A00284FF0010008BF704710B5EE
:1006A0008AB00C46D1E900210023059100294FF0C2
:1006B000000108BF0E21CDE90801CDE906306946E9
:1006C0001046CDE90033CDE90233049300F0A8FAD7
:1006D00020B10AB0BDE81040704700BF206800F0AC
:1006E000EDFD0028F5D12068022100F02FFA0AB0B4
:1006F000BDE8104070470000002808BF7047B0B543
:1007000082B00446D0F8EC000D46081A642801D9DE
:1007100000200FE0B4F9E61094ED040A01EE101A7F
:1007200004F12400F8EEC10A02F012F9BDEEC00A8D
:1007300010EE100AD4F8F810A4F81401691A64290C
:1007400002D9002010E000BFB4F9F21094ED050AC0
:1007500001EE101A04F15400F8EEC10A02F0F8F8A4
:10076000BDEEC00A10EE100AD4F80411A4F8160168
:10077000691A642902D9002010E000BFB4F9FE1004
:1007800094ED060A01EE101A04F18400F8EEC10A95
:1007900002F0DEF8BDEEC00A10EE100AD4F8101117
:1007A000A4F81801691A642902D9002512E000BFD3
:1007B000B4F90A1194ED070A01EE101A04F1B4001D
:1007C000F8EEC10A02F0C4F8BDEEC00AB4F8180190
:1007D00010EE105AB4F91421B4F91631A4F81A51D4
:1007E00004B240F21840C2F200004FF40071CDE9AB
:1007F0000045FFF71BFF02B0B0BD0000002808BF96
:10080000704710B52DED0A8B4FF48E710446FFF73B
:10081000B9FD9FED27AA9FED27BA9FED27CAB1EE3C
:10082000048AB6EE009A04F12400B0EE480AF0EE15
:10083000490AB0EE4A1AF0EE4B1AB0EE4C2A02F01A
:10084000D5F804F15400B0EE480AF0EE490AB0EED3
:100850004A1AF0EE4B1AB0EE4C2A02F0C7F804F137
:100860008400B0EE480AF0EE490AB0EE4A1AF0EE03
:100870004B1AB0EE4C2A02F0B9F804F1B400B0EE15
:10088000480AF0EE490AB0EE4A1AF0EE4B1AB0EE02
:100890004C2A02F0ABF80020C4E90000C4E90200D1
:1008A000C4E90400C4E90600BDEC0A8B10BD00BF1A
:1008B000CDCCCC3D00606A460060EA45F0B190EDD9
:1008C000040AB5EE400AF1EE10FA14D190ED050AD3
:1008D000B5EE400AF1EE10FA0DD190ED060AB5EE34
:1008E000400AF1EE10FA06D190ED070AB5EE400A83
:1008F000F1EE10FA02D00120704700BF00207047CF
:10090000002808BF7047B9B1CB888A88B1F800C009
:1009100003F1090189B2132902F1090189B238BF33
:10092000002313290CF1090189B238BF00221329D1
:1009300038BF4FF0000C03E04FF0000C0022002302
:1009400019B200EE101A9FED6A1AB8EEC00A11B281
:1009500020EE010A01EE101A9FED662A0FFA8CF1C3
:10096000B8EEC11A03EE101A21EE021AB8EEC33A1D
:1009700023EE024A30EE415A34EE052A31EE000AE7
:1009800043EA0201B1EE423A30EE442A35EE441A0F
:1009900034EE000A41EA0C0190ED044A89B2B1EE4E
:1009A000400A0029B4EE434A80ED003A80ED012A66
:1009B00080ED021A80ED030A18BF0121F1EE10FA52
:1009C00080F820100CDA9FED4D5A34EE054AB4EE53
:1009D000434AF1EE10FAC8BFB0EE434A10E000BF40
:1009E000B4EE434AF1EE10FA0ADD9FED435A34EEBD
:1009F000054AB4EE434AF1EE10FA01DAB0EE434A8A
:100A000090ED053A80ED044AB4EE423AF1EE10FA68
:100A10000CDA9FED3A4A33EE043AB4EE423AF1EE84
:100A200010FA13DDB0EE423A10E000BFB4EE423AE5
:100A3000F1EE10FA0ADD9FED304A33EE043AB4EEDF
:100A4000423AF1EE10FAB8BFB0EE423A90ED062A03
:100A500080ED053AB4EE412AF1EE10FA0CDA9FED82
:100A6000273A32EE032AB4EE412AF1EE10FA13DDF2
:100A7000B0EE412A10E000BFB4EE412AF1EE10FAC8
:100A80000ADD9FED1D3A32EE032AB4EE412AF1EE63
:100A900010FAB8BFB0EE412A90ED071A80ED062A91
:100AA000B4EE401AF1EE10FA0EDA9FED142A31EE90
:100AB000021AB4EE401AF1EE10FA01DDB0EE401A5F
:100AC00080ED071A704700BFB4EE401AF1EE10FA3D
:100AD000F6DD9FED092A31EE021AB4EE401AF1EE6E
:100AE00010FAB8BFB0EE401A80ED071A704700BF89
:100AF0006DB229C16DB22941000048C200004842D0
:100B0000B8B1032988BF704710B5DDF810C0DDE922
:100B1000024E01EB410100EB8100A0F8E420A0F8B7
:100B2000E630A0F8E84080F8EAE0C0F8ECC0BDE8A4
:100B30001040704740F26840C2F2000000F054BC20
:100B40007047000072B600BFFEE7000090F820205A
:100B5000013A012A08D8006800F114020020136845
:100B600019431160704700BF00F1240201204FF4C7
:100B700080211368194311607047000010B590F888
:100B800020E0D0F800C0AEF1010EBEF1010FDCF89C
:100B900008E011D81EF0E05F18D0CEF30164012008
:100BA000A04018608B68DBB1D1F804E0C86840EA67
:100BB000CE0040EA030E17E000F1240301204FF4B9
:100BC00080211A681143196010BD00BF00F1240391
:100BD00001204FF400111A681143196010BD00BFC5
:100BE0000868CB6843EA405E0CF5C07000EB041364
:100BF000240140F804E00C69184640F8044F097DD0
:100C0000012903D1016841F480710160506801211C
:100C1000D8601068986000201A681143196010BDF0
:100C200090F82020013A012A30D8B0B546F2006091
:100C3000C4F20000026842F001020260026822F47D
:100C40007C520260D1F814E0CC694A6A0368012C36
:100C500043EA022202600EF01F024FF0010303FA82
:100C600002F2C3696FEA020C23EA0203C36113D0E4
:100C70002CBBC36803EA0C03C360CB688C8844EACE
:100C8000034300EBCE0423640B4611E0416A41F4B8
:100C90008021416201207047C3681343C3600B6821
:100CA0008C8844EA034300EBCE04236401F10C0377
:100CB0008C681B8843EA044300EBCE0463644368FA
:100CC0008D6943EA0204D1F810E0096A002D08BFDB
:100CD00003EA0C0444604369BEF1000F43EA0204D6
:100CE00008BF03EA0C040129446102D1C169114320
:100CF000C161016821F0010101600020B0BD000068
:100D000070470000B0B590F82040013C012C7DD820
:100D1000D0F800C000290CBFDCF80C40DCF8104013
:100D2000A4077DD00CF5D8754FEA011C55F80C408E
:100D300014F00404946055F80CE005EB011C19BF95
:100D40004FEADE0555604FEA5E551560DCF800504D
:100D5000E64605F00205D5605EF8044F24075ABF49
:100D6000DEF8004004F00F0408241461DEF80040AF
:100D70000029C4F307249461DEF800504FEA1545BA
:100D80005561DCF808201A70026802EB0112D2F8F3
:100D9000B8214FEA12225A70026802EB0112D2F80F
:100DA000B8214FEA12429A70026802EB0112D2F89F
:100DB000B8214FEA1262DA70026802EB0112D2F82F
:100DC000BC211A71026802EB0112D2F8BC214FEA71
:100DD00012225A71026802EB0112D2F8BC214FEACA
:100DE00012429A71026802EB0112D2F8BC214FEA5A
:100DF0001262DA7100680CBF00F10C0100F1100101
:100E0000002020220B681A430A60B0BD00F12401C3
:100E100001204FF480220B681A430A60B0BD00BF66
:100E200000F1240101204FF400120B681A430A60FC
:100E3000B0BD00002DE9F04F81B00446006846695E
:100E4000D0F804908768D0F80CB0D0F810A0D0F893
:100E50001880F10704D1002530071DD424E000BF1D
:100E6000F90710D00121BA07816009D4780700F191
:100E7000AF80380700F1B680204600F04DFA02E05E
:100E8000204600F04BFA0025F80500F18780F803B2
:100E900000F1B180300707D51BF0100004D02068A6
:100EA00045F400751021C160700708D51BF00800DB
:100EB00005D020680821C160204600F0F5F9B00790
:100EC00006D52068C068800702D0204600F0EEF901
:100ED000700607D51AF0100004D0206845F480652C
:100EE00010210161B00608D51AF0080005D020686D
:100EF00008210161204600F0DBF9F00606D52068E4
:100F00000069800702D0204600F0D4F9B00308D56C
:100F100019F0100005D0206810214160204600F033
:100F2000CBF9F00308D519F0080005D02068082196
:100F30004160204600F0FCF9300440F19B805FEAFC
:100F4000497040F1948006F4807008EA102028432C
:100F50005FEA8871014648BF41F00201B20558BFFF
:100F600001465FEA48700D4648BF45F0040570052C
:100F700058BF0D46300540F17A8018F0700000F03F
:100F800076801038000905286CD8DFE800F003658A
:100F90005D61596945F0080564E000BF20684FF4C1
:100FA0008071BA0581600BD4780515D438051DD43D
:100FB000204600F0B5F9F8037FF56CAF1BE000BFE9
:100FC000204600F0AFF9F8037FF564AF13E000BFEF
:100FD0004FF4006558E700BF05F50055F8037FF5AD
:100FE00059AF08E04FF480554EE700BF05F5804546
:100FF000F8037FF54FAF20684FF48031BA0381606A
:101000000AD4780310D4380314D4204600F08CF9A5
:1010100030073FF541AF47E7204600F087F930073A
:101020003FF53AAF40E700BF05F5004530073FF513
:1010300033AF39E705F5803530073FF52DAF33E79E
:1010400045F080050EE000BF45F020050AE000BF36
:1010500045F0400506E000BF45F0100502E000BF86
:1010600045F480752068816921F0700181612068F4
:101070000421416055B1606A40EA05012046616281
:1010800001B0BDE8F04FFFF73BBE00BF01B0BDE8C7
:10109000F08F0000002804BF01207047B0B504465F
:1010A00090F8200010B9204600F06EF82068016822
:1010B00041F00101016000F015FC0546206841681F
:1010C000C90705D100F00EFC401B0B28F6D310E039
:1010D000016821F00201016000F004FC054600BF38
:1010E0002068416889070DD500F0FCFB401B0B28E8
:1010F000F6D3606A052140F400306062012084F874
:101100002010B0BD217E0268012922F0800208BFB4
:1011100080320260617E0268012922F0400208BF2D
:1011200040320260A17E0268012922F0200208BF3D
:1011300020320260E17E0268012922F0100218BF0D
:1011400010320260217F0268012922F0080208BFE4
:1011500008320260617F0268012922F0040208BFA0
:1011600004320260D4E901C2D4E9033561691A434B
:101170002A431143ACF101021143C1610020012156
:10118000606284F82010B0BD10B586B0006846F6E5
:101190000002C4F2000200219042CDE90411CDE921
:1011A0000211019134D046F20041C4F2000188429C
:1011B00077D140F2F801C2F200010A6843F640001C
:1011C000C4F20200531C0B6052B900210091016867
:1011D00041F000710160016801F000710091009917
:1011E0000021009150F8101C142441F0080140F82F
:1011F000101C50F8100C032100F00800009000981B
:1012000040F20040C4F2020000F5006035E000BF8B
:1012100043F64000C4F202000091016841F0806191
:101220000160016801F080610091009940F2F801CD
:10123000C2F200010A68531C0B6052B900210091F0
:10124000016841F000710160016801F000710091D6
:1012500000990021009150F8101C402441F0020137
:1012600040F8101C50F8100C602100F002000090B3
:10127000009840F20040C4F2020001910221029164
:1012800000210391032104910921059101A900F096
:1012900053FA20460021002200F0A6FB204600F071
:1012A00091FB06B010BD000070470000FFF7DCB8EE
:1012B000704700007047000070470000B0B504465A
:1012C00090F8200001281DD1022084F82000206819
:1012D000016821F00101016000F004FB054600BF38
:1012E00020684068C00713D000F0FCFA401B0B28B0
:1012F000F6D3606A40F400306062052084F8200074
:101300000120B0BD606A40F4002060620120B0BDE1
:1013100000206062B0BD0000704700007047000010
:1013200070470000704700007047000070470000E1
:101330007047000070B5866D044600F0D3FA94F84B
:101340003510022928D105462068216C026822F058
:1013500016020260426922F08002426109B9A16C62
:1013600019B1016821F008010160016821F0010153
:10137000016000BF20680068C00715D000F0B2FA15
:10138000401B0628F6D320206065032084F8350032
:10139000002184F8341070BD802060650120002198
:1013A00084F8341070BD00BFE06D3F2101FA00F0F9
:1013B000B060012084F835000020002184F834104A
:1013C00070BD000090F83510022909D1052180F880
:1013D00035100068016821F00101016000207047AC
:1013E0008021416501207047F0B581B00021009156
:1013F00040F20801C2F200010B68D0E9166148F220
:10140000B51537680822C1F64E358A403A42A3FB2B
:1014100005350CD003681C68640708D51C6824F0E7
:1014200004041C60B260426D42F001024265012278
:101430008A403A4208D003685B691B0604D5B26053
:10144000426D42F00202426504228A403A4208D0CC
:1014500003681B689B0704D5B260426D42F004022A
:10146000426510228A403A4219D001680B681B0776
:1014700015D5B2600B680A685B0309D4D20509D49C
:101480000A6822F008020A60016C29B907E000BF6F
:10149000110341D4016C11B1044688472046C26D46
:1014A000202101FA02F33B4243D001680F68FF0696
:1014B0003FD5B36090F835700B68052F1CD123F031
:1014C00016030B604B6923F080034B61036C0BB96F
:1014D000836C1BB10B6823F008030B603F21914024
:1014E000B160012180F83510016D0022002980F8DB
:1014F000342054D158E000BF0A685B0310D4D205F1
:1015000012D40A6822F010020A60012180F8351016
:10151000002180F8341007E0816C0029BCD1BEE7BF
:10152000110301D4416C00E0C16B11B1044688473E
:101530002046416DC1B3416DC9072ED0052180F809
:1015400035100168AA0A0B6823F001030B60009BA9
:101550000133934200931AD80B68DB0717D0009B26
:1015600001339342009312D80B68DB070FD0009B26
:101570000133934200930AD80B68DB0707D0009B26
:1015800001339342009302D80B68DB07DFD10121BE
:1015900080F83510002180F83410C16C21B101B001
:1015A000BDE8F040084700BF01B0F0BD2DE9F041B3
:1015B000044600F097F9ECB10546022084F83500A6
:1015C0000020216884F83400086820F001000860D9
:1015D00021680868C00711D000F084F9401B052875
:1015E000F6D9032520230320636584F83550BDE830
:1015F000F08100BF0120BDE8F08100BF086848F21B
:101600003F02CFF21002D4E9013500EA020C04F1E6
:101610000C0898E8C10143EA0C032B431843D4E9B2
:10162000072E304338431043626A40EA0E00042A12
:1016300040EA08031CD1206BD4E90A2E40EA0E00D0
:10164000184308604869BEF1000F20F0030040EA2B
:10165000020040F0040C11D0B8F5005F36D0B8F1AC
:10166000000F45D1022A46D0012A3BD032B942E0D0
:101670000B60486920F0070040EA020C01F0F80016
:101680004AF6AB221038CAF6AA22A0FB02231A0996
:1016900043F2AA53C1F814C0C0F600039A5C40F2AA
:1016A000FF335F284FF03F0021EA030100FA02F008
:1016B00088BF0431C4E91612886000230125002088
:1016C000636584F83550BDE8F08100BF032AD5D8A2
:1016D000012540230120DFE802F0030E030500BFCF
:1016E00082E700BFAEF1C070B0FA80F0400904E0BC
:1016F000032A04D3C2D1CEF300600028BED0012556
:1017000040230120636584F83550BDE8F081000076
:10171000B0B5044600F0E6F8054640F20000C2F21B
:1017200000000078611C18BF044400BF00F0DAF824
:10173000401BA042FAD3B0BD2DE9F04F83B000F1B9
:10174000200200F13E4741F60045009207F1FF7785
:10175000C4F2020508224FEAB726A84208BF0722B2
:1017600000254FF000084FF00009072E38BF4FEA60
:10177000B72201920AE000BF09F1010908F102084D
:10178000B9F1100F05F1040500F0A2800F680122E5
:1017900002FA09FE17EA0E0AEED0D1F804C00322BD
:1017A0000CF003077E1E02FA08F4012E6FEA040B08
:1017B00012D88468CE6804EA0B0406FA08F63443AB
:1017C0008460446824EA0E06CCF3001404FA09F499
:1017D0002643466004E000BF032F01D103271EE02B
:1017E000C6688C6806EA0B0604FA08F42643022F42
:1017F000C66014D16FF00302009E02EA590756F842
:1018000007C005F01C040F220B69A2402CEA02025B
:10181000A3401A43F251D1F804C00CF00307026848
:1018200007FA08F302EA0B021A431CF4403F026075
:10183000A2D0002243F644030292C4F202031A68C3
:1018400043F6004442F480421A601A68C4F201046C
:1018500002F480420292029A29F003024FF6084CE9
:101860002244CFF6FF7C52F80C3005F00C070F260F
:10187000BE40B343019E06FA07F73B4342F80C30E3
:10188000A2684B6842EA0A0743F60C4CDE0258BFD6
:1018900022EA0A07A760C4F2010CDCF800209E02CD
:1018A00042EA0A0758BF22EA0A07CCF800706268C9
:1018B0009E0342EA0A0758BF22EA0A0767602268C5
:1018C000DB0342EA0A0758BF22EA0A07276053E708
:1018D00003B0BDE8F08F0000002A08BF0904816151
:1018E0007047000040F2EC50C2F200000068704700
:1018F00040F2000040F2EC51C2F20000C2F20001DE
:1019000000780A68104408607047000080B543F60C
:101910000040C4F20200016841F4007101600168F6
:1019200041F480610160016841F48071016003202D
:1019300000F086F80F2000F005F800F027F80020EE
:1019400080BD000070B540F20006C2F2000640F211
:1019500008013278C2F200014FF47A730968B3FBD0
:10196000F2F20446B1FBF2F1084600F061FB0F2CE5
:101970004FF0010508D838B94FF0FF30214600225A
:10198000002500F031F87460284670BD82B0002058
:1019900043F640010190C4F202014A6842F48042D9
:1019A0004A604A6802F480420192019A00900868F5
:1019B00040F080500860086800F080500090009867
:1019C00002B07047002848BF704700F01F01012295
:1019D00002FA01F11C2202EAD0004EF20012CEF20D
:1019E000000281507047000010B54EF60C5CCEF23C
:1019F000000CDCF80030C3F3022E8EF00704042C38
:101A000028BF0424BEF103034FF0FF3E0EFA04F496
:101A100038BF0023A14399400EFA03F39A431143C0
:101A200000F00F0200F160430901043A03F564433A
:101A30006244002848BF02F10C03197010BD000079
:101A40004EF60C51CEF200010A684FF6FF031A4021
:101A500060F30A2242F0806040F0FD700860704739
:101A6000002804BF012070472DE9F04143F6080823
:101A7000C4F202080446D8F8F8030D4600F0070047
:101A8000814207D988F8F853D8F8F80300F0070026
:101A9000A84277D12068810717D5410705D5D8F826
:101AA000001041F4E051C8F80010010705D5D8F83E
:101AB000001041F46041C8F80010D8F80010A26886
:101AC00021F0F0011143C8F80010C00740D1D8F848
:101AD000F80300F00700854207D288F8F853D8F8D9
:101AE000F80300F00700A8424CD12068410707D551
:101AF000D8F80010E26821F4E0511143C8F8001052
:101B0000000708D5D8F80000216920F4604040EAB9
:101B1000C100C8F8000000F07DF8D8F8001043F2CA
:101B20009252C1F30311C0F60002515C40F2080268
:101B300020FA01F140F20400C2F200000068C2F293
:101B400000021160FFF7FEFE0020BDE8F08100BF3B
:101B50006068811E022907D258F8081C89015CBF01
:101B60000120BDE8F08111E0012807D158F8081CD8
:101B700089035CBF0120BDE8F08107E058F8081C2C
:101B8000890703D40120BDE8F08100BFD8F8001018
:101B900021F003010843C8F80000FFF7A3FE064642
:101BA00041F28837D8F80000616800F00C00B0EB13
:101BB000810F8CD0FFF796FE801BB842F2D903202C
:101BC000BDE8F08140F2080043F60801C2F20000CF
:101BD000C4F202010068096843F2A252C1F38221F3
:101BE000C0F60002515CC8407047000040F2080097
:101BF00043F60801C2F20000C4F20201006809685D
:101C000043F2A252C1F34231C0F60002515CC84017
:101C10007047000010B543F60404C4F20204616882
:101C2000C1F3810142F20040C0F2F400DFE801F0AC
:101C300002040A0210BD00BF47F64000C0F27D104A
:101C400010BD00BF206821682368490247F64001A3
:101C5000C0F27D1100F03F02C3F388105CBF42F276
:101C60000041C0F2F401A1FB00010023FEF712FBCA
:101C700021680222C1F3014102EB4101B0FBF1F006
:101C800010BD0000002804BF012070472DE9F0417D
:101C900082B00446007843F60006C007C4F202068C
:101CA0000CD0B06800F00C00042840F0818030684F
:101CB000800303D56068002800F0688120788007E1
:101CC0001BD5B06810F00C0F09D0B06800F00C0004
:101CD000082840F087807068400200F183803068F7
:101CE000800703D5E068012840F050813068216901
:101CF00020F0F80040EAC10030602078000713D4DB
:101D0000207840072AD4A569002D00F03A81B068F8
:101D100000F00C00082840F0A580012D40F00E8155
:101D2000012002B0BDE8F0816069002800F08280E7
:101D30000020C4F247200121C0F8801EFFF7D2FD29
:101D4000054600BF706F8007DAD4FFF7CBFD401B5C
:101D50000228F7D9032002B0BDE8F081306C5FEAB9
:101D6000C0080AD400200190306C40F080503064EC
:101D7000306C00F080500190019847F20007C4F2E7
:101D800000073868C00547D4386840F48070386070
:101D9000FFF7A8FD054600BF3868C0053CD4FFF733
:101DA000A1FD401B0228F7D9032002B0BDE8F08155
:101DB000B06800F00C00082803D1706840023FF5BD
:101DC00076AF61683068B1F5803F07D0B1F5A02FDC
:101DD00040F09A8040F480203060306840F48030D9
:101DE00030609AE0E068002840F20000C4F247202A
:101DF0005CD001210160FFF775FD05463068800762
:101E00003FF574AFFFF76EFD401B0228F6D90320A3
:101E100002B0BDE8F08100BFA168306F012905D094
:101E2000052955D140F004003067306F40F00100C3
:101E3000306756E00020C4F247200021C0F8801E21
:101E4000FFF750FD054600BF706F80077FF558AF64
:101E5000FFF748FD401B0228F6D9032002B0BDE879
:101E6000F08100BF0027C4F2472700203866FFF743
:101E700039FD022D05460DD13068800140F18A8080
:101E8000FFF730FD401B02284FF00300F4D902B0E9
:101E9000BDE8F0813068800173D5FFF723FD401B5A
:101EA00002284FF00300F5D9F1E700BF00210160DF
:101EB000FFF718FD054600BF306880077FF51DAFAE
:101EC000FFF710FD401B02284FF00300F4D9DEE7B6
:101ED00020F001003067306F002920F004003067E7
:101EE0007AD0FFF7FFFC054641F28837306F800754
:101EF00000F18480FFF7F6FC401BB842F6D90320BE
:101F000002B0BDE8F08100BF20F48030306030685E
:101F1000002920F4802030607AD0FFF7E3FC0546EA
:101F2000306880033FF5CAAEFFF7DCFC401B642835
:101F3000F6D9032002B0BDE8F08100BF7068E16906
:101F400000F480028A4221D1216A00F03F028A42D5
:101F50001CD147F6C071626A0140B1EB821F15D1F6
:101F6000A16A4FF6FF73C903994300F44032A1F50B
:101F700080318A420AD1E16A00F07060B0EB016FF3
:101F800004D1002002B0BDE8F08100BF012002B002
:101F9000BDE8F08104F11C052FCD084340EA821012
:101FA000D9034FF6FF729143A1F5803140EA0560F5
:101FB0000843706001203866FFF794FC044600BFB8
:101FC00030688001DDD4FFF78DFC001B02284FF044
:101FD0000300F5D95BE700BFFFF784FC054641F23B
:101FE000883700BF306F800708D5FFF77BFC401BA8
:101FF000B8424FF00300F5D949E700BFB8F1000F30
:102000003FF581AE306C20F0805030647BE600BF3D
:10201000FFF768FC054600BF306880037FF54EAED1
:10202000FFF760FC401B64284FF00300F4D92EE753
:10203000411E0020B0EB116F1CBF012070474EF213
:102040001002CEF2000251604EF62351CEF2000192
:10205000F0230B70072190601160704770470000FB
:1020600070470000B0B582B001680A68CC684B695F
:1020700002F02F05202D04F0200505D125B102B076
:10208000BDE8B04001F054B85FEA027C1EBF03F027
:10209000010E04F4907313EB0E0341D1036BD506CC
:1020A00018D5012B16D114F0100313D00022019281
:1020B0000A6801924A680192019A496949064BD41B
:1020C000818DC28DC38D002B18BF914240F00682D6
:1020D00002B0B0BD13062DD514F080032AD090F8BD
:1020E0004120212AF4D18268B2F5805F03D10269D0
:1020F000002A00F07982026A531C036212784A6057
:10210000C28C013A1304C284E2D1C86820F0800076
:10211000C860C86840F04000C86002B0B0BD00BFF1
:10212000D30718BF14F4807340F0E280530700F126
:10213000E580EAE05206CBD514F04002C8D0CA6868
:1021400022F04002CA60202180F8411002B0BDE8B0
:10215000B04000F007BB00BFC26B11684B68858DB3
:1021600099B2002900F0B480A94280F0B180C38503
:10217000D169B1F5807F00F0A080016851E8031FAC
:10218000026821F4807142E80313DBB1016851E871
:10219000031F026821F4807142E8031393B10168C0
:1021A00051E8031F026821F4807142E803134BB128
:1021B000016851E8031F026821F4807142E80313AB
:1021C000002BDAD1016851E8051F026821F00101F6
:1021D00042E80513BBB3016851E8051F026821F00E
:1021E000010142E8051373B3016851E8051F026855
:1021F00021F0010142E805132BB3016851E8051FE6
:10220000026821F0010142E80513002BDAD11AE03F
:10221000016851E8051F026821F0400142E80513FA
:10222000DBB1016851E8051F026821F0400142E876
:10223000051393B1016851E8051F026821F04001C0
:1022400042E805134BB1016851E8051F026821F00F
:10225000400142E80513002BDAD1202180F842101A
:1022600000210163016851E8031F026821F0100199
:1022700042E80313DBB1016851E8031F026821F053
:10228000100142E8031393B1016851E8031F02688B
:1022900021F0100142E803134BB1016851E8031F1C
:1022A000026821F0100142E80313002BDAD1C16B60
:1022B00004460846FFF73EF8204602214163818D1F
:1022C000C28D891A89B202B0BDE8B040FFF7C6BE20
:1022D0008D427FF4FDAED269B2F5807F7FF4F8AE17
:1022E0000222426302B0BDE8B040FFF7B7BE00BFB4
:1022F000436C43F001034364530706D5BEF1000F5E
:1023000003D0436C43F002034364930706D5BEF148
:10231000000F03D0436C43F004034364BCF1000F8F
:1023200006D55EEA050303D0436C43F0080343641B
:10233000436C002B3FF4CCAE920605D525B1044684
:1023400000F0F6FE216820464969426C01F0400128
:1023500002F00802891800F0B98000BF016851E856
:10236000031F026821F4907142E80313BBB30168B4
:1023700051E8031F026821F4907142E8031373B31C
:10238000016851E8031F026821F4907142E80313C9
:102390002BB3016851E8031F026821F4907142E8F1
:1023A0000313002BDAD11AE0016851E8051F026817
:1023B00021F0010142E80513DBB1016851E8051F76
:1023C000026821F0010142E8051393B1016851E868
:1023D000051F026821F0010142E805134BB10168B5
:1023E00051E8051F026821F0010142E80513002BA6
:1023F000DAD1016B012924D1016851E8031F026879
:1024000021F0100142E80313DBB1016851E8031F1A
:10241000026821F0100142E8031393B1016851E80A
:10242000031F026821F0100142E803134BB1016859
:1024300051E8031F026821F0100142E80313002B4A
:10244000DAD1202180F84210002101630168496936
:10245000490640F1C380016851E8051F026821F078
:10246000400142E80513DBB1016851E8051F02682D
:1024700021F0400142E8051393B1016851E8051FBE
:10248000026821F0400142E805134BB1016851E8B0
:10249000051F026821F0400142E80513002BDAD144
:1024A000C16B002900F09A8043F22512C0F60002A9
:1024B000044608460A65FEF785FF00283FF408AE8B
:1024C000E06B016D02B0BDE8B04008470446FFF77D
:1024D000C7FD0020606402B0B0BD00BF891A00BF14
:1024E000026852E8032F036822F4907243E8032540
:1024F000BDB3026852E8032F036822F4907243E8E8
:10250000032575B3026852E8032F036822F4907222
:1025100043E803252DB3026852E8032F036822F431
:10252000907243E80325002DDAD11AE0026852E8E0
:10253000052F036822F0010243E80525DDB102689A
:1025400052E8052F036822F0010243E8052595B102
:10255000026852E8052F036822F0010243E80525CE
:102560004DB1026852E8052F036822F0010243E8EA
:102570000525002DDAD1202280F8422000220263B6
:10258000026852E8032F036822F0100243E8032593
:10259000DDB1026852E8032F036822F0100243E81D
:1025A000032595B1026852E8032F036822F0100258
:1025B00043E803254DB1026852E8032F036822F077
:1025C000100243E80325002DDAD1022289B24263CA
:1025D00002B0BDE8B040FFF741BD00BF02B0BDE8AA
:1025E000B040FFF73DBD00BF026A32F8023B6FF317
:1025F0005F234B60026283E5002804BF012070471F
:1026000010B5044690F8410028B9002084F8400035
:10261000204600F021F8242084F841002068C16899
:1026200021F40051C160204600F002FE20680169DB
:1026300021F490410161416921F02A014161C168A1
:1026400041F40051C16000202021606484F84110F1
:1026500084F84210606310BD2DE9F04F87B0044646
:1026600044F600070068C4F200070026B842069648
:10267000CDE904660396029602D007B0BDE8F08F5C
:1026800043F630000196C4F20200016902AD41F444
:102690008021016101694FF4806801F4802101917A
:1026A0000199019601684FF0020941F002010160B1
:1026B00001684FF0030A01F00201019101990196AE
:1026C00001684FF0070B41F00401016000682946E2
:1026D00000F004000190019807F5DE30CDF8088085
:1026E000CDE90396CDF814A0CDF818B0FFF724F883
:1026F0004FF40060CDE9020904A880E8400C07F51A
:10270000E0302946FFF718F840F2684546F2280005
:10271000C2F20005C4F202004FF0006185E84300F8
:102720004FF440304FF48072C5E908062846C5E9E9
:102730000368C5E90566EA61FEF738FF002818BF9F
:10274000FEF700FA272000210022E563AC63FFF7C3
:102750004BF92720FFF736F907B0BDE8F08F0000EE
:102760007047000070470000FEE7000080B540F2AF
:10277000184046F20041C2F20000C4F200010322F8
:10278000002380E80E0000F10C014FF4202C4FF4E0
:10279000801E81E8085083618383FEF77BFC00285C
:1027A00008BF80BDBDE88040FEF7CCB980B540F2DF
:1027B000404046F60001C2F20000C4F200010322CC
:1027C000002380E80E0000F10C014FF4202C4FF4A0
:1027D000801E81E8085083618383FEF75BFC00283C
:1027E00008BF80BDBDE88040FEF7ACB980B582B0BF
:1027F0000020019043F63000C4F20200016800227C
:1028000041F4001101600068002100F40010019003
:1028100001980C20FFF7E8F80C2002B0BDE88040DA
:10282000FFF7D0B82DE9F04186B0002643F630001E
:102830000596CDE90366CDE901660096C4F2020073
:10284000016841F6004441F0800101600168C4F272
:10285000020401F0800100910099009601680022B5
:1028600041F0010101600168022501F001010091C0
:1028700000990096016841F002010160016801F0D1
:102880000201009100990096016841F00401016085
:10289000016801F00401009100990096016841F07F
:1028A000080101600068022100F008000090009813
:1028B0002046FFF711F8019501AD01272046294672
:1028C000CDE902770496FEF737FFA4F5E0502946DC
:1028D000CDE901760397FEF72FFF20464FF4E05134
:1028E00000224FF4E058FEF7F7FF20462946CDE9D5
:1028F0000187CDE90366FEF71FFF06B0BDE8F08152
:1029000080B540F2C84044F60001C2F20000C4F2B3
:10291000000148F2A062C0F20102002380E80E002C
:1029200000F10C014FF4806C4FF00C0E81E8085060
:10293000C0E90633FFF760FE002808BF80BDBDE890
:102940008040FEF7FFB80000FEE70000FEE7000051
:1029500080ED030A30EE601A90ED080A90ED0B2A24
:1029600031EE000AB4EE420AF1EE10FAC0ED040AAC
:1029700080ED061A80ED080A06DCB1EE422AB4EEBC
:10298000420AF1EE10FA03DAB0EE420A80ED082AAC
:1029900090ED002A90ED013A90ED054A90ED025A33
:1029A00034EE604A23EE000A22EE012A32EE000ADB
:1029B00025EE043A90ED0A2A33EE000AB4EE420AFC
:1029C000F1EE10FA80ED090A06DCB1EE422AB4EE0F
:1029D000420AF1EE10FA03DAB0EE420A80ED092A5B
:1029E00080ED071AC0ED050A70470000002180EC59
:1029F000030AC0ED0A1A80ED0B2AC0E90311C0E9F1
:102A00000511C0E9071141627047000070470000DE
:102A100080B540F2C843C2F20003D3F800C0DCF82E
:102A2000143043F04003CCF81430DCF80C3043F0A1
:102A30001003CCF80C3040F26843C2F20003D3F824
:102A400000E0DEF800C02CF0010319E0DEF80030F1
:102A500023F00103CEF80030DEF80030DB071FBFA3
:102A6000DEF8003023F00103CEF80030DEF800304D
:102A700018BF5FEAC37315D0DEF8003023F00103FE
:102A8000CEF80030DEF80030DB071FBFDEF8003084
:102A900023F00103CEF80030DEF8003018BF5FEA03
:102AA000C373D3D144F60403C4F20003CEF8083054
:102AB000CEF80C00CEF81010CEF80420DEF800009E
:102AC00040F48020CEF80000DEF8000040F0010065
:102AD000CEF8000080BD00002DE9F04382B040F246
:102AE000C840C2F2000000680168890670D444F64C
:102AF0000001C4F200010968C90640F1E580002127
:102B0000009101682423009140680090009840F2F1
:102B10006840C2F20000006801680268090322F000
:102B2000010202604268436091B25BD402681229DC
:102B300042F400220260026842F00102026040F0AA
:102B4000C38040F29800C2F20000817DC77DC67D3F
:102B5000047E90F81880457E90F81A9090F81AE05C
:102B600090F81BC0C37EF608C3F301138372C37EC3
:102B700064F34A169B09C372037F427F67F30A21FD
:102B800043EA02228281827FC37F4FEA5E0742EAE4
:102B90000322C28190F8202090F8213042EA0322DB
:102BA000028290F82220AB00827490F8232043EA3E
:102BB0009813C27490F8242090F8254069F38A2372
:102BC00042EA0422828290F8262090F8275068E09A
:102BD000002101910168019140680190019802B0C3
:102BE000BDE8F08346F22802C4F2020213681229FB
:102BF00023F400231360026842F00102026063D1F3
:102C000040F29800C2F2000090F83A1090F83B7041
:102C100090F83B6090F83C4090F83C8090F83D5034
:102C200090F83E9090F83EE090F83FC090F83F302A
:102C3000F608C3F30113837290F83F3064F34A1629
:102C40009B09C37290F8403090F8412067F30A2145
:102C500043EA0222828190F8422090F843304FEA02
:102C60005E0742EA0322C28190F8442090F8453082
:102C700042EA0322028290F84620AB00827490F868
:102C8000472043EA9813C27490F8482090F84940CE
:102C900069F38A2342EA0422828290F84A2090F85B
:102CA0004B50A1F580610180A6F580616CF3CA17D5
:102CB0004180A3F5806142EA05228180A7F5806109
:102CC000C180A2F58061018102B0BDE8F0830000FF
:102CD00070470000002808BF704770B582B00446F6
:102CE000D0F8B4000D46081A642801D900200FE07E
:102CF000B4F9AE1094ED010A01EE101A04F11C00B3
:102D0000F8EEC10AFFF724FEBDEEC00A10EE100A6D
:102D1000D4F8C010A4F8D000691A642902D90020A0
:102D200010E000BFB4F9BA1094ED040A01EE101AD5
:102D300004F14C00F8EEC10AFFF70AFEBDEEC00A2E
:102D400010EE100AB4F8DA100026A4F8D410D4F863
:102D5000CC10A4F8D200691A64294FF0000511D8EC
:102D6000B4F9C61094ED050A01EE101A04F17C00C6
:102D7000F8EEC10AFFF7ECFDBDEEC00AB4F8D200D0
:102D800010EE105AB4F9D02003B240F24040C2F223
:102D9000000040F2FF11A4F8D650CDE90065FDF720
:102DA00045FCB4F9DA2040F21840C2F200000721D5
:102DB00002B0BDE87040FDF7F5BB0000002808BF79
:102DC000704710B52DED0A8BDC210446FDF7DAFAC9
:102DD0009FED1DAA9FED1DBA9FED1DCAB1EE048A9D
:102DE000B6EE009A04F11C00B0EE480AF0EE490A73
:102DF000B0EE4A1AF0EE4B1AB0EE4C2AFFF7F6FD91
:102E000004F14C00B0EE480AF0EE490AB0EE4A1A5E
:102E1000F0EE4B1AB0EE4C2AFFF7E8FD04F17C000F
:102E2000B0EE480AF0EE490AB0EE4A1AF0EE4B1A3C
:102E3000B0EE4C2AFFF7DAFD0720BDEC0A8BBDE8A7
:102E4000104000F049BB00BFCDCCCC3D00606A46CD
:102E50000060EA45002804BF00207047017EA1B948
:102E600090ED010AB5EE400AF1EE10FA0DD190EDA9
:102E7000040AB5EE400AF1EE10FA06D190ED050A0B
:102E8000B5EE400AF1EE10FA02D00120704700BF03
:102E9000B0F8DA00002818BF01207047002808BFEA
:102EA000704710B5044679B3887A5AA2C3B2013884
:102EB000012B08BF043200F0FD0092ED002AB0FAA9
:102EC00080F043F002024009032A207624D19FEDCE
:102ED000530A9FED531A94ED013AB4EE423AF1EEE3
:102EE00010FA24DBB4EE423AF1EE10FA2ADD9FED3F
:102EF0004D4A33EE043AB4EE423AF1EE10FA21DADA
:102F0000B0EE423A1EE000BF9FED411A002020764D
:102F1000B0EE412A02E000BF9FED3D1AB0EE410A3B
:102F200094ED013AB4EE423AF1EE10FADADA9FED9E
:102F30003E4A33EE043AB4EE423AF1EE10FAC8BF1C
:102F4000B0EE423A94ED042A84ED013AB4EE412AFF
:102F5000F1EE10FA0CDA9FED343A32EE032AB4EEB9
:102F6000412AF1EE10FAC8BFB0EE412A10E000BFCE
:102F7000B4EE412AF1EE10FA0ADD9FED2A3A32EE64
:102F8000032AB4EE412AF1EE10FA01DAB0EE412A3A
:102F900094ED051A84ED042AB4EE401AF1EE10FA0D
:102FA0000CDA9FED212A31EE021AB4EE401AF1EE4E
:102FB00010FAC8BFB0EE401A10E000BFB4EE401ADD
:102FC000F1EE10FA0ADD9FED172A31EE021AB4EE87
:102FD000401AF1EE10FA01DAB0EE401A0029084664
:102FE00018BF012084ED051A84F8D80051B1B1F959
:102FF0000810072000F026FAA4F8DA00BDE8104017
:10300000704700BF0020A4F8DA00BDE81040704708
:10301000000000000000000000803B450060EA4521
:103020000060EAC5000048C200004842D0B104294F
:1030300008D0072904D0052918BF7047B82102E03D
:10304000C42100E0AC21B0B5DDF818C0DDE9044EC4
:10305000451842526B80AC8085F806E0C5F808C080
:10306000BDE8B04070470000FEF742BC70B592B0BA
:1030700006AC20463021FDF785F9002543F64000D7
:103080000595CDE90355CDE901550095C4F202003F
:103090000168022641F080510160006800F0805014
:1030A0000090009847F200000095C4F2000001680B
:1030B00041F480410160006800F480400090009875
:1030C0000120099010200A9008200E905420CDE98C
:1030D0000F060420119020460696CDE90C65FEF7F8
:1030E000D1FD18B172B600BFFEE700BF0F20CDE9D9
:1030F00001064FF48050CDE9040501A80221039593
:10310000FEF7AEFC10B172B6FEE700BF12B070BDA4
:103110004EF68850CEF20000016841F47001016063
:1031200070470000806B0021C185FEF799BF000049
:1031300081B090F84210222921D183680246B3F56C
:10314000805F09D152F8281F52F8183C002B63D039
:1031500003685B680AE000BF52F8281F13B90369CF
:10316000002BF5D003685B6803F07F030B701168D8
:1031700001311160C18D01390A04C18502D001B04D
:10318000704700BF0168CA6822F02002CA60CA689E
:1031900022F48072CA604A6922F001024A61202149
:1031A00080F8421000214163026B012A3CD1016387
:1031B000016851E8031F026821F0100142E803137F
:1031C000DBB1016851E8031F026821F0100142E8F9
:1031D000031393B1016851E8031F026821F0100145
:1031E00042E803134BB1016851E8031F026821F064
:1031F000100142E80313002BDAD101680A68D206F5
:1032000006D5002200920A68009249680091009950
:10321000818D01B0FEF722BF026852686FF35F2212
:1032200021F8022B8162A5E701B0FFF799BA0000EF
:10323000B0B50446006804F108030ECB05691943D4
:1032400025F440552A4302616269E3691143C2686B
:10325000194349F20C639A431143C1604169A26961
:1032600021F4407141F20043114340F48062C4F202
:1032700001039A42416103D1FEF7B8FC02E000BFAE
:10328000FEF7A0FCE1694FF69C7563681922C0F651
:10329000FF75B1F5004FA0FB02011FD15A00DB0FF3
:1032A000FCF7F8FF48F21F51C5F2EB11A0FB012318
:1032B0005A0905F1805302FB0300322303EBC000DF
:1032C000A0FB01014FF4F87000EA111000EB0210AE
:1032D000C1F34211084421688860B0BD9A009B0F79
:1032E000FCF7D8FF48F21F51C5F2EB11A0FB0123F8
:1032F0005A0902FB0500322303EB0010A0FB010179
:10330000F02000EA511000EB0210C1F34311084411
:1033100021688860B0BD000080B5FFF7DDFB40F29A
:10332000C840C2F20000BDE88040FEF79BBE00002E
:10333000FEE7000040F29800C2F200007047000073
:1033400082B041F60049C4F20209FEF7DFFAFFF746
:103350008DFEFFF767FAFFF749FAFFF707FAFFF765
:1033600025FAFFF7CDFA00F0FDF840F2700840F2C0
:10337000FC0640F21055C2F2000840F21842C2F2B8
:103380000006C2F20005C2F20002404600213346A8
:103390000095FDF785F808F1140740F24042C2F2AB
:1033A000000238460121334600954FF0010AFDF72F
:1033B00077F84046FDF768F93846FDF765F94FF4B0
:1033C000FA70FEF7A5F93046FDF718FA2846FFF720
:1033D000F5FC00BFFEF786FA0746FFF7ABFF044691
:1033E000304621463A46FDF78BFA284621463A46B2
:1033F000FFF754FD30463946FDF77EF92846394639
:10340000FFF768FC3046FDF759FA04462846FFF7F7
:1034100021FD04432AEA040248464FF48051FEF796
:103420005BFA04F0010248464FF40061FEF754FADB
:1034300048464FF480610022FEF74EFA0520FEF761
:1034400067F9C7E7A0F1080212F1070F3CBF00209F
:10345000704740F21822C2F2000202EB801001F124
:103460001D0292B23A2AA0F140029EBF00201063D2
:10347000704780B500EE101A9FED141AB8EEC00A1E
:1034800080EE010A9FED121AB2F9040002EE100A52
:10349000F8EEC20A02F1100020EE010AB4EE410A71
:1034A000F1EE10FAC8BFB0EE410A9FED0A1AB4EE71
:1034B000410AF1EE10FAB8BFB0EE410AFFF748FA40
:1034C000BDEEC00A10EE100A80BD00BF000025440A
:1034D00000004842000048C2A0F1080111F1070FA6
:1034E00038BF704740F21821C2F2000101EB801191
:1034F000DFED0B0A9FED0B1ADFED0B1A9FED0B2A88
:1035000001F8400C0022A1F13000B2EE040A41F8AB
:103510003E2C41F8382C01F8342CFFF767BA00BF75
:103520009A99993ECDCC4C3D0060EA460050C34686
:10353000A0F1080313F1070F12D340F21823C2F2CF
:10354000000303EB801010F8343C20F83E1C002BE5
:1035500020F83C2C18BF704740388160012101736E
:103560007047000040F29801C2F2000101F116001C
:103570003A312422FFF74CBAF1EE100A4FF6FF71F0
:10358000C0F2C03120EA010040F04070E1EE100AC4
:10359000704700000000000000000102030406075D
:1035A00008090000000001020304000610160006CE
:1035B00010160000D83500080000002010000000A0
:1035C000EC010008E835000810000020E00B0000C6
:1035D0000C020008000000000100000010000000C4
:0835E0000024F40000000000CB
:040000050800018965
:00000001FF
