:020000040800F2
:10000000B80B0020550200082923000845210008EC
:10001000252300084D04000879290008000000008D
:10002000000000000000000000000000AD260008F5
:100030007504000800000000E9230008B12600084C
:100040006F0200086F0200086F0200086F020008CC
:100050006F0200086F0200086F0200086F020008BC
:100060006F0200086F0200086F0200086F020008AC
:10007000690400086F0200086F0200086F020008A0
:100080006F0200086F0200086F0200086F0200088C
:10009000510400086F0200086F0200086F02000898
:1000A0006F0200086F0200086F0200086F0200086C
:1000B0006F0200086F0200086F0200086F0200085C
:1000C0006F0200086F0200086F0200086F0200084C
:1000D0006F0200086F0200086F0200086129000823
:1000E0006F0200086F0200086F0200086F0200082C
:1000F0006F0200086F0200086F0200086F0200081C
:100100006F0200086F0200086F0200086F0200080B
:100110006F0200086F0200086F0200086F020008FB
:100120006F0200086F0200086F0200086F020008EB
:100130006F0200086F0200086F0200086F020008DB
:100140005D0400086F0200086F0200086F020008DB
:100150006F0200086F0200086F0200086F020008BB
:100160006F0200086F0200086F0200086F020008AB
:100170006F0200086F0200086F0200080000000014
:100180006F0200086F02000800F002F800F052F859
:1001900014A696E8000CB244B344DA4501D100F04D
:1001A00049F8BAE80F000FA696E83000A5EB040561
:1001B00004EB0607AAEB0704A7F101074FEA1515A0
:1001C0004FEA3414A4F10104AC4201D300F032F838
:1001D00013F0010F18BFFB1A43F0010300F001F800
:1001E000DBE718473032000050320000103A24BFDD
:1001F00078C878C1FAD8520724BF30C830C144BF8C
:1002000004680C6070470000704700000023002461
:1002100000250026103A28BF78C1FBD8520728BF16
:1002200030C148BF0B6070471FB503F0D5F81FBD44
:1002300010B510BD00F0D0F81146FFF7F5FF02F041
:1002400069FC00F0EEF803B4FFF7F2FF03BC00F026
:10025000F5F800000948804709480047FEE7FEE737
:10026000FEE7FEE7FEE7FEE7FEE7FEE7FEE7FEE766
:1002700004480549054A064B704700005927000805
:1002800089010008B8050020B80B0020B80700203D
:10029000B807002053EA020C00F069802DE9F04B0A
:1002A0004FF00006002B1FBFB3FA83F503FA05F4E5
:1002B00024FA05F65E4012BF1643B2FA82F502FA3E
:1002C00005F4C5F120051EBF22FA05FC44EA0C0422
:1002D000203556EA044C4FEA144418BF641C4FF012
:1002E00000084FF00009904271EB030C39D300294C
:1002F00019BFB1FA81F701FA07F6B0FA80F700FAF0
:1003000007F6C7F120071EBF20FA07FC46EA0C06D5
:100310002037B6FBF4FCA7EB0507103F07F01F0BD7
:10032000CBF120062CFA06F60CFA0BFB44BFB346C1
:100330000026202FA4BF5E464FF0000B5BEA060CA0
:1003400008BF4FF0010B19EB0B0948EB0608ABFB9C
:10035000027C06FB02CC0BFB03CCC01B71EB0C0137
:10036000C1E70B46024641464846BDE8F08B13B54F
:10037000084318BF4FF0FF300146AFF30080BDE8DF
:100380001C4070474FF0000200B513469446964655
:10039000203922BFA0E80C50A0E80C50B1F1200198
:1003A000BFF4F7AF090728BFA0E80C5048BF0CC046
:1003B0005DF804EB890028BF40F8042B08BF7047A4
:1003C00048BF20F8022B11F0804F18BF00F8012B16
:1003D0007047704770477047754600F02BF8AE467F
:1003E00005006946534620F00700854618B020B541
:1003F000FFF73EFFBDE820404FF000064FF000073A
:100400004FF000084FF0000BAC46ACE8C009ACE878
:10041000C009ACE8C009ACE8C00921F007018D466D
:10042000704710B50446AFF300802046BDE8104089
:10043000FFF709BF0048704710000020014918204D
:10044000ABBEFEE72600020070470000FEE700009A
:1004500040F23830C2F2000000F086B940F260305D
:10046000C2F2000000F080B940F28830C2F2000011
:1004700000F0A8BC7047000072B600BFFEE70000A5
:1004800090F82020013A012A08D8006800F11402EF
:100490000020136819431160704700BF00F1240267
:1004A00001204FF480211368194311607047000048
:1004B00010B590F820E0D0F800C0AEF1010EBEF10A
:1004C000010FDCF808E011D81EF0E05F18D0CEF381
:1004D00001640120A04018608B68DBB1D1F804E012
:1004E000C86840EACE0040EA030E17E000F124039A
:1004F00001204FF480211A681143196010BD00BF1C
:1005000000F1240301204FF400111A68114319600F
:1005100010BD00BF0868CB6843EA405E0CF5C070B0
:1005200000EB0413240140F804E00C69184640F87D
:10053000044F097D012903D1016841F480710160F4
:1005400050680121D8601068986000201A68114333
:10055000196010BD90F82020013A012A30D8B0B5BA
:1005600046F20060C4F20000026842F0010202603C
:10057000026822F47C520260D1F814E0CC694A6A25
:100580000368012C43EA022202600EF01F024FF0C2
:10059000010303FA02F2C3696FEA020C23EA0203C1
:1005A000C36113D02CBBC36803EA0C03C360CB68E0
:1005B0008C8844EA034300EBCE0423640B4611E02D
:1005C000416A41F48021416201207047C3681343AE
:1005D000C3600B688C8844EA034300EBCE042364B9
:1005E00001F10C038C681B8843EA044300EBCE0442
:1005F000636443688D6943EA0204D1F810E0096A34
:10060000002D08BF03EA0C0444604369BEF1000FEB
:1006100043EA020408BF03EA0C040129446102D141
:10062000C1691143C161016821F00101016000202D
:10063000B0BD000070470000B0B590F82040013C0C
:10064000012C7DD8D0F800C000290CBFDCF80C408C
:10065000DCF81040A4077DD00CF5D8754FEA011CDA
:1006600055F80C4014F00404946055F80CE005EBC8
:10067000011C19BF4FEADE0555604FEA5E55156053
:10068000DCF80050E64605F00205D5605EF8044F40
:1006900024075ABFDEF8004004F00F040824146158
:1006A000DEF800400029C4F307249461DEF800500E
:1006B0004FEA15455561DCF808201A70026802EB14
:1006C0000112D2F8B8214FEA12225A70026802EBE6
:1006D0000112D2F8B8214FEA12429A70026802EB76
:1006E0000112D2F8B8214FEA1262DA70026802EB06
:1006F0000112D2F8BC211A71026802EB0112D2F881
:10070000BC214FEA12225A71026802EB0112D2F8A0
:10071000BC214FEA12429A71026802EB0112D2F830
:10072000BC214FEA1262DA7100680CBF00F10C01C3
:1007300000F11001002020220B681A430A60B0BDAE
:1007400000F1240101204FF480220B681A430A6053
:10075000B0BD00BF00F1240101204FF400120B686E
:100760001A430A60B0BD00002DE9F04F81B0044685
:1007700000684669D0F804908768D0F80CB0D0F8CB
:1007800010A0D0F81880F10704D1002530071DD43F
:1007900024E000BFF90710D00121BA07816009D415
:1007A000780700F1AF80380700F1B680204600F0EE
:1007B000A1FA02E0204600F09FFA0025F80500F1BA
:1007C0008780F80300F1B180300707D51BF01000D7
:1007D00004D0206845F400751021C160700708D569
:1007E0001BF0080005D020680821C160204600F0F9
:1007F000F5F9B00706D52068C068800702D020460A
:1008000000F0EEF9700607D51AF0100004D0206849
:1008100045F4806510210161B00608D51AF0080082
:1008200005D0206808210161204600F02FFAF0066B
:1008300006D520680069800702D0204600F028FA1B
:10084000B00308D519F0100005D0206810214160D0
:10085000204600F01FFAF00308D519F0080005D073
:10086000206808214160204600F050FA300440F131
:100870009B805FEA497040F1948006F4807008EA3A
:10088000102028435FEA8871014648BF41F0020109
:10089000B20558BF01465FEA48700D4648BF45F0B3
:1008A0000405700558BF0D46300540F17A8018F0F8
:1008B000700000F076801038000905286CD8DFE859
:1008C00000F003655D61596945F0080564E000BF0B
:1008D00020684FF48071BA0581600BD4780515D477
:1008E00038051DD4204600F009FAF8037FF56CAFF7
:1008F0001BE000BF204600F003FAF8037FF564AF69
:1009000013E000BF4FF4006558E700BF05F5005540
:10091000F8037FF559AF08E04FF480554EE700BF6C
:1009200005F58045F8037FF54FAF20684FF480311F
:10093000BA0381600AD4780310D4380314D4204653
:1009400000F0E0F930073FF541AF47E7204600F0FF
:10095000DBF930073FF53AAF40E700BF05F500454A
:1009600030073FF533AF39E705F5803530073FF500
:100970002DAF33E745F080050EE000BF45F02005C0
:100980000AE000BF45F0400506E000BF45F0100555
:1009900002E000BF45F480752068816921F0700194
:1009A000816120680421416055B1606A40EA050117
:1009B0002046616201B0BDE8F04FFFF73BBE00BFCB
:1009C00001B0BDE8F08F0000002804BF012070478F
:1009D000B0B5044690F8200010B9204600F06EF83B
:1009E0002068016841F00101016000F069FC0546E2
:1009F00020684168C90705D100F062FC401B0B2844
:100A0000F6D310E0016821F00201016000F058FC0B
:100A1000054600BF2068416889070DD500F050FCED
:100A2000401B0B28F6D3606A052140F40030606259
:100A3000012084F82010B0BD217E0268012922F037
:100A4000800208BF80320260617E0268012922F0C4
:100A5000400208BF40320260A17E0268012922F0F4
:100A6000200208BF20320260E17E0268012922F0E4
:100A7000100218BF10320260217F0268012922F0A3
:100A8000080208BF08320260617F0268012922F073
:100A9000040208BF04320260D4E901C2D4E903357C
:100AA00061691A432A431143ACF101021143C16148
:100AB00000200121606284F82010B0BD10B586B01E
:100AC000006846F60002C4F2000200219042CDE91F
:100AD0000411CDE90211019134D046F20041C4F273
:100AE0000001884277D140F23411C2F200010A6855
:100AF00043F64000C4F20200531C0B6052B90021BF
:100B00000091016841F000710160016801F000711D
:100B1000009100990021009150F8101C142441F01C
:100B2000080140F8101C50F8100C032100F00800D8
:100B30000090009840F20040C4F2020000F500600E
:100B400035E000BF43F64000C4F2020000910168A6
:100B500041F080610160016801F0806100910099BD
:100B600040F23411C2F200010A68531C0B6052B902
:100B700000210091016841F000710160016801F0FD
:100B80000071009100990021009150F8101C402440
:100B900041F0020140F8101C50F8100C602100F0E8
:100BA00002000090009840F20040C4F2020001915F
:100BB0000221029100210391032104910921059151
:100BC00001A900F0A7FA20460021002200F0FAFB5C
:100BD000204600F0E5FB06B010BD000070470000A5
:100BE00010B58AB003AA01AB00210446FFF724FD2B
:100BF00010B10AB010BD00BF40F23833C2F200039A
:100C00000398059A07999C4208BF002A2AD0002A17
:100C100008BF0829EDD1A0F201210729E9D8013840
:100C2000C2B25200BDF8041052FA80F040F27002D5
:100C3000C2F2000209BA02EB8004BDF80600090CFA
:100C4000A18000BABDF80810000CE08008BA9DF839
:100C50000A10000C2081A17200F032FBE0600AB0A3
:100C600010BD00BF0829D2D1A0F20523062BCED893
:100C7000BDF80410BDF80620043809BA090CD2BA30
:100C8000C0B201F02DFF0AB010BD00007047000097
:100C90007047000070470000B0B5044690F820008F
:100CA00001281DD1022084F820002068016821F06D
:100CB0000101016000F004FB054600BF20684068A8
:100CC000C00713D000F0FCFA401B0B28F6D3606A73
:100CD00040F400306062052084F820000120B0BD9F
:100CE000606A40F4002060620120B0BD00206062B4
:100CF000B0BD000070470000704700007047000062
:100D00007047000070470000704700007047000007
:100D100070B5866D044600F0D3FA94F835100229B8
:100D200028D105462068216C026822F01602026074
:100D3000426922F08002426109B9A16C19B10168CF
:100D400021F008010160016821F00101016000BF8C
:100D500020680068C00715D000F0B2FA401B0628D2
:100D6000F6D320206065032084F83500002184F844
:100D7000341070BD802060650120002184F834109B
:100D800070BD00BFE06D3F2101FA00F0B0600120AE
:100D900084F835000020002184F8341070BD000074
:100DA00090F83510022909D1052180F83510006826
:100DB000016821F001010160002070478021416538
:100DC00001207047F0B581B00021009140F2080188
:100DD000C2F200010B68D0E9166148F2B515376818
:100DE0000822C1F64E358A403A42A3FB05350CD0A5
:100DF00003681C68640708D51C6824F004041C60A0
:100E0000B260426D42F00102426501228A403A42DC
:100E100008D003685B691B0604D5B260426D42F0DE
:100E20000202426504228A403A4208D003681B68E5
:100E30009B0704D5B260426D42F004024265102265
:100E40008A403A4219D001680B681B0715D5B26079
:100E50000B680A685B0309D4D20509D40A6822F03A
:100E600008020A60016C29B907E000BF110341D4F0
:100E7000016C11B1044688472046C26D202101FA59
:100E800002F33B4243D001680F68FF063FD5B360D1
:100E900090F835700B68052F1CD123F016030B60FA
:100EA0004B6923F080034B61036C0BB9836C1BB15E
:100EB0000B6823F008030B603F219140B1600121D2
:100EC00080F83510016D0022002980F8342054D1BB
:100ED00058E000BF0A685B0310D4D20512D40A6838
:100EE00022F010020A60012180F83510002180F8FC
:100EF000341007E0816C0029BCD1BEE7110301D496
:100F0000416C00E0C16B11B1044688472046416D39
:100F1000C1B3416DC9072ED0052180F83510016895
:100F2000AA0A0B6823F001030B60009B0133934274
:100F300000931AD80B68DB0717D0009B013393424C
:100F4000009312D80B68DB070FD0009B013393424C
:100F500000930AD80B68DB0707D0009B013393424C
:100F6000009302D80B68DB07DFD1012180F8351030
:100F7000002180F83410C16C21B101B0BDE8F0400F
:100F8000084700BF01B0F0BD2DE9F041044600F074
:100F900097F9ECB10546022084F83500002021685D
:100FA00084F83400086820F00100086021680868AF
:100FB000C00711D000F084F9401B0528F6D903259D
:100FC00020230320636584F83550BDE8F08100BF1D
:100FD0000120BDE8F08100BF086848F23F02CFF26F
:100FE0001002D4E9013500EA020C04F10C0898E87B
:100FF000C10143EA0C032B431843D4E9072E3043C5
:1010000038431043626A40EA0E00042A40EA0803AB
:101010001CD1206BD4E90A2E40EA0E001843086068
:101020004869BEF1000F20F0030040EA020040F0E2
:10103000040C11D0B8F5005F36D0B8F1000F45D1DF
:10104000022A46D0012A3BD032B942E00B604869FF
:1010500020F0070040EA020C01F0F8004AF6AB224B
:101060001038CAF6AA22A0FB02231A0943F20A4347
:10107000C1F814C0C0F600039A5C40F2FF335F2849
:101080004FF03F0021EA030100FA02F088BF04316B
:10109000C4E916128860002301250020636584F8E6
:1010A0003550BDE8F08100BF032AD5D80125402383
:1010B0000120DFE802F0030E030500BF82E700BF56
:1010C000AEF1C070B0FA80F0400904E0032A04D306
:1010D000C2D1CEF300600028BED0012540230120FC
:1010E000636584F83550BDE8F0810000B0B5044672
:1010F00000F0E6F8054640F20000C2F20000007879
:10110000611C18BF044400BF00F0DAF8401BA04285
:10111000FAD3B0BD2DE9F04F83B000F1200200F109
:101120003E4741F60045009207F1FF77C4F2020501
:1011300008224FEAB726A84208BF072200254FF031
:1011400000084FF00009072E38BF4FEAB72201927E
:101150000AE000BF09F1010908F10208B9F1100F16
:1011600005F1040500F0A2800F68012202FA09FED1
:1011700017EA0E0AEED0D1F804C003220CF00307E0
:101180007E1E02FA08F4012E6FEA040B12D884685E
:10119000CE6804EA0B0406FA08F634438460446817
:1011A00024EA0E06CCF3001404FA09F42643466040
:1011B00004E000BF032F01D103271EE0C6688C683E
:1011C00006EA0B0604FA08F42643022FC66014D17F
:1011D0006FF00302009E02EA590756F807C005F0B7
:1011E0001C040F220B69A2402CEA0202A3401A43FE
:1011F000F251D1F804C00CF00307026807FA08F3B3
:1012000002EA0B021A431CF4403F0260A2D0002203
:1012100043F644030292C4F202031A6843F6004400
:1012200042F480421A601A68C4F2010402F4804257
:101230000292029A29F003024FF6084C2244CFF69C
:10124000FF7C52F80C3005F00C070F26BE40B3436C
:10125000019E06FA07F73B4342F80C30A2684B6840
:1012600042EA0A0743F60C4CDE0258BF22EA0A079C
:10127000A760C4F2010CDCF800209E0242EA0A07D3
:1012800058BF22EA0A07CCF8007062689E0342EA5F
:101290000A0758BF22EA0A0767602268DB0342EAAE
:1012A0000A0758BF22EA0A07276053E703B0BDE8E0
:1012B000F08F0000002A08BF090481617047000018
:1012C00040F2B050C2F200000068704740F20000E7
:1012D00040F2B051C2F20000C2F2000100780A6888
:1012E000104408607047000080B543F60040C4F227
:1012F0000200016841F400710160016841F48061FD
:101300000160016841F480710160032000F086F8FB
:101310000F2000F005F800F027F8002080BD000045
:1013200070B540F20006C2F2000640F208013278C1
:10133000C2F200014FF47A730968B3FBF2F204467B
:10134000B1FBF2F1084600F061FB0F2C4FF00105F4
:1013500008D838B94FF0FF3021460022002500F0B0
:1013600031F87460284670BD82B0002043F6400119
:101370000190C4F202014A6842F480424A604A681D
:1013800002F480420192019A0090086840F0805077
:101390000860086800F080500090009802B0704724
:1013A000002848BF704700F01F01012202FA01F136
:1013B0001C2202EAD0004EF20012CEF2000281504E
:1013C0007047000010B54EF60C5CCEF2000CDCF855
:1013D0000030C3F3022E8EF00704042C28BF04242F
:1013E000BEF103034FF0FF3E0EFA04F438BF0023B2
:1013F000A14399400EFA03F39A43114300F00F0200
:1014000000F160430901043A03F564436244002893
:1014100048BF02F10C03197010BD00004EF60C51CC
:10142000CEF200010A684FF6FF031A4060F30A2269
:1014300042F0806040F0FD7008607047002804BFF3
:10144000012070472DE9F04143F60808C4F2020874
:101450000446D8F8F8030D4600F00700814207D98A
:1014600088F8F853D8F8F80300F00700A84277D1BD
:101470002068810717D5410705D5D8F8001041F439
:10148000E051C8F80010010705D5D8F8001041F464
:101490006041C8F80010D8F80010A26821F0F001EF
:1014A0001143C8F80010C00740D1D8F8F80300F085
:1014B0000700854207D288F8F853D8F8F80300F0FF
:1014C0000700A8424CD12068410707D5D8F8001082
:1014D000E26821F4E0511143C8F80010000708D574
:1014E000D8F80000216920F4604040EAC100C8F843
:1014F000000000F07DF8D8F8001043F2F232C1F39A
:101500000311C0F60002515C40F2080220FA01F11A
:1015100040F20400C2F200000068C2F20002116052
:10152000FFF7FEFE0020BDE8F08100BF6068811E6D
:10153000022907D258F8081C89015CBF0120BDE8C8
:10154000F08111E0012807D158F8081C89035CBF1D
:101550000120BDE8F08107E058F8081C890703D492
:101560000120BDE8F08100BFD8F8001021F0030190
:101570000843C8F80000FFF7A3FE064641F288378B
:10158000D8F80000616800F00C00B0EB810F8CD03F
:10159000FFF796FE801BB842F2D90320BDE8F08128
:1015A00040F2080043F60801C2F20000C4F2020152
:1015B0000068096843F20242C1F38221C0F60002CA
:1015C000515CC8407047000040F2080043F6080133
:1015D000C2F20000C4F202010068096843F202424C
:1015E000C1F34231C0F60002515CC84070470000B0
:1015F00010B543F60404C4F202046168C1F381012A
:1016000042F20040C0F2F400DFE801F002040A02F6
:1016100010BD00BF47F64000C0F27D1010BD00BFF6
:10162000206821682368490247F64001C0F27D1115
:1016300000F03F02C3F388105CBF42F20041C0F2E9
:10164000F401A1FB00010023FEF724FE2168022221
:10165000C1F3014102EB4101B0FBF1F010BD00000C
:10166000002804BF012070472DE9F04182B00446F4
:10167000007843F60006C007C4F202060CD0B0683A
:1016800000F00C00042840F081803068800303D50E
:101690006068002800F06881207880071BD5B0685A
:1016A00010F00C0F09D0B06800F00C00082840F0D2
:1016B00087807068400200F183803068800703D51E
:1016C000E068012840F050813068216920F0F8007E
:1016D00040EAC10030602078000713D4207840072A
:1016E0002AD4A569002D00F03A81B06800F00C0002
:1016F000082840F0A580012D40F00E81012002B0A5
:10170000BDE8F0816069002800F082800020C4F20A
:1017100047200121C0F8801EFFF7D2FD054600BF1B
:10172000706F8007DAD4FFF7CBFD401B0228F7D992
:10173000032002B0BDE8F081306C5FEAC0080AD433
:1017400000200190306C40F080503064306C00F02C
:1017500080500190019847F20007C4F200073868F2
:10176000C00547D4386840F480703860FFF7A8FDA2
:10177000054600BF3868C0053CD4FFF7A1FD401BFB
:101780000228F7D9032002B0BDE8F081B06800F06C
:101790000C00082803D1706840023FF576AF6168FD
:1017A0003068B1F5803F07D0B1F5A02F40F09A80A6
:1017B00040F480203060306840F4803030609AE03F
:1017C000E068002840F20000C4F247205CD001210C
:1017D0000160FFF775FD0546306880073FF574AF7F
:1017E000FFF76EFD401B0228F6D9032002B0BDE8CA
:1017F000F08100BFA168306F012905D0052955D1BE
:1018000040F004003067306F40F00100306756E070
:101810000020C4F247200021C0F8801EFFF750FDD1
:10182000054600BF706F80077FF558AFFFF748FD92
:10183000401B0228F6D9032002B0BDE8F08100BFAA
:101840000027C4F2472700203866FFF739FD022D34
:1018500005460DD13068800140F18A80FFF730FDE8
:10186000401B02284FF00300F4D902B0BDE8F0811C
:101870003068800173D5FFF723FD401B02284FF02D
:101880000300F5D9F1E700BF00210160FFF718FD63
:10189000054600BF306880077FF51DAFFFF710FDDC
:1018A000401B02284FF00300F4D9DEE720F00100CE
:1018B0003067306F002920F0040030677AD0FFF7DE
:1018C000FFFC054641F28837306F800700F18480C5
:1018D000FFF7F6FC401BB842F6D9032002B0BDE882
:1018E000F08100BF20F4803030603068002920F49F
:1018F000802030607AD0FFF7E3FC05463068800333
:101900003FF5CAAEFFF7DCFC401B6428F6D9032084
:1019100002B0BDE8F08100BF7068E16900F48002A8
:101920008A4221D1216A00F03F028A421CD147F647
:10193000C071626A0140B1EB821F15D1A16A4FF6F6
:10194000FF73C903994300F44032A1F580318A4204
:101950000AD1E16A00F07060B0EB016F04D10020A1
:1019600002B0BDE8F08100BF012002B0BDE8F08107
:1019700004F11C052FCD084340EA8210D9034FF62D
:10198000FF729143A1F5803140EA05600843706021
:1019900001203866FFF794FC044600BF30688001E0
:1019A000DDD4FFF78DFC001B02284FF00300F5D9B2
:1019B0005BE700BFFFF784FC054641F2883700BFB4
:1019C000306F800708D5FFF77BFC401BB8424FF013
:1019D0000300F5D949E700BFB8F1000F3FF581AE2C
:1019E000306C20F0805030647BE600BFFFF768FC6D
:1019F000054600BF306880037FF54EAEFFF760FC00
:101A0000401B64284FF00300F4D92EE7411E00204C
:101A1000B0EB116F1CBF012070474EF21002CEF2E6
:101A2000000251604EF62351CEF20001F0230B70FC
:101A300007219060116070477047000070470000F8
:101A4000B0B582B001680A68CC684B6902F02F0516
:101A5000202D04F0200505D125B102B0BDE8B0402D
:101A600000F08ABE5FEA027C1EBF03F0010E04F4A0
:101A7000907313EB0E0341D1036BD50618D5012BE0
:101A800016D114F0100313D0002201920A680192BB
:101A90004A680192019A496949064BD4818DC28DE9
:101AA000C38D002B18BF914240F0068202B0B0BD3A
:101AB00013062DD514F080032AD090F84120212A56
:101AC000F4D18268B2F5805F03D10269002A00F088
:101AD0007982026A531C036212784A60C28C013A0E
:101AE0001304C284E2D1C86820F08000C860C868CE
:101AF00040F04000C86002B0B0BD00BFD30718BFBF
:101B000014F4807340F0E280530700F1E580EAE0CE
:101B10005206CBD514F04002C8D0CA6822F0400269
:101B2000CA60202180F8411002B0BDE8B04000F04A
:101B300007BB00BFC26B11684B68858D99B2002945
:101B400000F0B480A94280F0B180C385D169B1F5BD
:101B5000807F00F0A080016851E8031F026821F433
:101B6000807142E80313DBB1016851E8031F02688A
:101B700021F4807142E8031393B1016851E8031F17
:101B8000026821F4807142E803134BB1016851E807
:101B9000031F026821F4807142E80313002BDAD19D
:101BA000016851E8051F026821F0010142E80513B0
:101BB000BBB3016851E8051F026821F0010142E84A
:101BC000051373B3016851E8051F026821F0010194
:101BD00042E805132BB3016851E8051F026821F0A4
:101BE000010142E80513002BDAD11AE0016851E83F
:101BF000051F026821F0400142E80513DBB10168CE
:101C000051E8051F026821F0400142E8051393B135
:101C1000016851E8051F026821F0400142E8051300
:101C20004BB1016851E8051F026821F0400142E80C
:101C30000513002BDAD1202180F842100021016326
:101C4000016851E8031F026821F0100142E8031304
:101C5000DBB1016851E8031F026821F0100142E87E
:101C6000031393B1016851E8031F026821F01001CA
:101C700042E803134BB1016851E8031F026821F0E9
:101C8000100142E80313002BDAD1C16B0446084669
:101C9000FFF73EF8204602214163818DC28D891AEB
:101CA00089B202B0BDE8B040FFF7C6BE8D427FF4F6
:101CB000FDAED269B2F5807F7FF4F8AE02224263B6
:101CC00002B0BDE8B040FFF7B7BE00BF436C43F0C1
:101CD00001034364530706D5BEF1000F03D0436CE4
:101CE00043F002034364930706D5BEF1000F03D00F
:101CF000436C43F004034364BCF1000F06D55EEA75
:101D0000050303D0436C43F008034364436C002B8A
:101D10003FF4CCAE920605D525B1044600F02CFD6B
:101D2000216820464969426C01F0400102F0080236
:101D3000891800F0B98000BF016851E8031F0268EC
:101D400021F4907142E80313BBB3016851E8031F0B
:101D5000026821F4907142E8031373B3016851E8FB
:101D6000031F026821F4907142E803132BB301684A
:101D700051E8031F026821F4907142E80313002B1D
:101D8000DAD11AE0016851E8051F026821F001016B
:101D900042E80513DBB1016851E8051F026821F034
:101DA000010142E8051393B1016851E8051F02687B
:101DB00021F0010142E805134BB1016851E8051F0C
:101DC000026821F0010142E80513002BDAD1016B12
:101DD000012924D1016851E8031F026821F0100194
:101DE00042E80313DBB1016851E8031F026821F0E8
:101DF000100142E8031393B1016851E8031F026820
:101E000021F0100142E803134BB1016851E8031FB0
:101E1000026821F0100142E80313002BDAD12021DF
:101E200080F842100021016301684969490640F1C8
:101E3000C380016851E8051F026821F0400142E8B3
:101E40000513DBB1016851E8051F026821F040016C
:101E500042E8051393B1016851E8051F026821F0BB
:101E6000400142E805134BB1016851E8051F0268C3
:101E700021F0400142E80513002BDAD1C16B0029A3
:101E800000F09A8042F26D72C0F6000204460846E5
:101E90000A65FEF785FF00283FF408AEE06B016D90
:101EA00002B0BDE8B04008470446FFF7C7FD002078
:101EB000606402B0B0BD00BF891A00BF026852E87A
:101EC000032F036822F4907243E80325BDB3026830
:101ED00052E8032F036822F4907243E8032575B398
:101EE000026852E8032F036822F4907243E8032546
:101EF0002DB3026852E8032F036822F4907243E87E
:101F00000325002DDAD11AE0026852E8052F036894
:101F100022F0010243E80525DDB1026852E8052FF1
:101F2000036822F0010243E8052595B1026852E8F2
:101F3000052F036822F0010243E805254DB1026830
:101F400052E8052F036822F0010243E80525002D21
:101F5000DAD1202280F8422000220263026852E88F
:101F6000032F036822F0100243E80325DDB1026865
:101F700052E8032F036822F0100243E8032595B1CD
:101F8000026852E8032F036822F0100243E8032599
:101F90004DB1026852E8032F036822F0100243E8B3
:101FA0000325002DDAD1022289B2426302B0BDE8D6
:101FB000B040FFF741BD00BF02B0BDE8B040FFF741
:101FC0003DBD00BF026A32F8023B6FF35F234B60F6
:101FD000026283E5002804BF0120704710B5044663
:101FE00090F8410028B9002084F84000204600F015
:101FF00021F8242084F841002068C16821F40051B0
:10200000C160204600F038FC2068016921F490414D
:102010000161416921F02A014161C16841F4005127
:10202000C16000202021606484F8411084F84210CF
:10203000606310BD2DE9F04F87B0044644F60007F9
:102040000068C4F200070026B8420696CDE904668F
:102050000396029602D007B0BDE8F08F43F6300039
:102060000196C4F20200016902AD41F480210161D0
:1020700001694FF4806801F4802101910199019672
:1020800001684FF0020941F00201016001684FF060
:10209000030A01F0020101910199019601684FF0D4
:1020A000070B41F0040101600068294600F00400BC
:1020B0000190019807F5DE30CDF80880CDE9039650
:1020C000CDF814A0CDF818B0FFF724F84FF4006055
:1020D000CDE9020904A880E8400C07F5E030294664
:1020E000FFF718F840F2883546F22800C2F20005E2
:1020F000C4F202004FF0006185E843004FF4403025
:102100004FF48072C5E908062846C5E90368C5E9A9
:102110000566EA61FEF738FF002818BFFEF7ACF944
:10212000272000210022E563AC63FFF74BF927204D
:10213000FFF736F907B0BDE8F08F000070470000E8
:1021400070470000FEE7000080B540F2383046F2EC
:102150000041C2F20000C4F200010322002380E823
:102160000E0000F10C014FF4202C4FF4801E81E88A
:10217000085083618383FEF727FC002808BF80BDD9
:10218000BDE88040FEF778B980B540F2603046F691
:102190000001C2F20000C4F200010322002380E823
:1021A0000E0000F10C014FF4202C4FF4801E81E84A
:1021B000085083618383FEF707FC002808BF80BDB9
:1021C000BDE88040FEF758B980B582B0002001908C
:1021D00043F63000C4F202000168002241F400110D
:1021E00001600068002100F40010019001980C20AB
:1021F000FFF7E8F80C2002B0BDE88040FFF7D0B848
:102200002DE9F04186B0002643F630000596CDE971
:102210000366CDE901660096C4F20200016841F64A
:10222000004441F0800101600168C4F2020401F041
:1022300080010091009900960168002241F001019F
:1022400001600168022501F00101009100990096EA
:10225000016841F002010160016801F00201009192
:1022600000990096016841F004010160016801F0E5
:102270000401009100990096016841F00801016095
:102280000068022100F00800009000982046FFF747
:1022900011F8019501AD012720462946CDE90277C5
:1022A0000496FEF737FFA4F5E0502946CDE9017604
:1022B0000397FEF72FFF20464FF4E05100224FF422
:1022C000E058FEF7F7FF20462946CDE90187CDE922
:1022D0000366FEF71FFF06B0BDE8F08180B540F24F
:1022E000E83044F60001C2F20000C4F2000148F2F6
:1022F000A062C0F20102002380E80E0000F10C0190
:102300004FF4806C4FF00C0E81E80850C0E90633A2
:10231000FFF760FE002808BF80BDBDE88040FEF7E3
:10232000ABB80000FEE70000FEE7000080ED030A06
:1023300030EE601A90ED080A90ED0B2A31EE000A9B
:10234000B4EE420AF1EE10FAC0ED040A80ED061A6E
:1023500080ED080A06DCB1EE422AB4EE420AF1EE44
:1023600010FA03DAB0EE420A80ED082A90ED002A56
:1023700090ED013A90ED054A90ED025A34EE604A34
:1023800023EE000A22EE012A32EE000A25EE043A7C
:1023900090ED0A2A33EE000AB4EE420AF1EE10FA8A
:1023A00080ED090A06DCB1EE422AB4EE420AF1EEF3
:1023B00010FA03DAB0EE420A80ED092A80ED071A1E
:1023C000C0ED050A70470000002180EC030AC0ED53
:1023D0000A1A80ED0B2AC0E90311C0E90511C0E912
:1023E00007114162704700007047000080B540F25D
:1023F000E833C2F20003D3F800C0DCF8143043F035
:102400004003CCF81430DCF80C3043F01003CCF867
:102410000C3040F28833C2F20003D3F800E0DEF85B
:1024200000C02CF0010319E0DEF8003023F00103B6
:10243000CEF80030DEF80030DB071FBFDEF80030DA
:1024400023F00103CEF80030DEF8003018BF5FEA59
:10245000C37315D0DEF8003023F00103CEF800304E
:10246000DEF80030DB071FBFDEF8003023F0010389
:10247000CEF80030DEF8003018BF5FEAC373D3D166
:1024800044F60403C4F20003CEF80830CEF80C0082
:10249000CEF81010CEF80420DEF8000040F48020C2
:1024A000CEF80000DEF8000040F00100CEF8000099
:1024B00080BD00002DE9F04382B040F2E830C2F266
:1024C000000000680168890670D444F60001C4F277
:1024D00000010968C90640F1E5800021009101680A
:1024E0002423009140680090009840F28830C2F2A6
:1024F0000000006801680268090322F0010202601E
:102500004268436091B25BD40268122942F400220F
:102510000260026842F00102026040F0C38040F2B3
:10252000D400C2F20000817DC77DC67D047E90F894
:102530001880457E90F81A9090F81AE090F81BC029
:10254000C37EF608C3F301138372C37E64F34A1695
:102550009B09C372037F427F67F30A2143EA022289
:102560008281827FC37F4FEA5E0742EA0322C281F3
:1025700090F8202090F8213042EA0322028290F85D
:102580002220AB00827490F8232043EA9813C2748F
:1025900090F8242090F8254069F38A2342EA042227
:1025A000828290F8262090F8275068E0002101915F
:1025B0000168019140680190019802B0BDE8F08384
:1025C00046F22802C4F202021368122923F40023FF
:1025D0001360026842F00102026063D140F2D4004D
:1025E000C2F2000090F83A1090F83B7090F83B600F
:1025F00090F83C4090F83C8090F83D5090F83E9028
:1026000090F83EE090F83FC090F83F30F608C3F3F2
:102610000113837290F83F3064F34A169B09C3722A
:1026200090F8403090F8412067F30A2143EA0222F3
:10263000828190F8422090F843304FEA5E0742EAE8
:102640000322C28190F8442090F8453042EA0322E8
:10265000028290F84620AB00827490F8472043EA4B
:102660009813C27490F8482090F8494069F38A237F
:1026700042EA0422828290F84A2090F84B50A1F559
:1026800080610180A6F580616CF3CA174180A3F5D3
:10269000806142EA05228180A7F58061C180A2F5B0
:1026A0008061018102B0BDE8F08300007047000046
:1026B000FEF70CBE70B592B006AC20463021FDF797
:1026C00061FE002543F640000595CDE90355CDE9AF
:1026D00001550095C4F202000168022641F08051C4
:1026E0000160006800F080500090009847F2000000
:1026F0000095C4F20000016841F480410160006867
:1027000000F48040009000980120099010200A9069
:1027100008200E905420CDE90F0604201190204689
:102720000696CDE90C65FEF79BFF18B172B600BFA7
:10273000FEE700BF0F20CDE901064FF48050CDE940
:10274000040501A802210395FEF778FE10B172B6C8
:10275000FEE700BF12B070BD4EF68850CEF200000A
:10276000016841F47001016070470000806B002136
:10277000C185FFF763B9000081B090F842102229AB
:1027800021D183680246B3F5805F09D152F8281F32
:1027900052F8183C002B63D003685B680AE000BF66
:1027A00052F8281F13B90369002BF5D003685B6842
:1027B00003F07F030B70116801311160C18D013985
:1027C0000A04C18502D001B0704700BF0168CA6821
:1027D00022F02002CA60CA6822F48072CA604A6984
:1027E00022F001024A61202180F842100021416359
:1027F000026B012A3CD10163016851E8031F0268A2
:1028000021F0100142E80313DBB1016851E8031F16
:10281000026821F0100142E8031393B1016851E806
:10282000031F026821F0100142E803134BB1016855
:1028300051E8031F026821F0100142E80313002B46
:10284000DAD101680A68D20606D5002200920A6829
:102850000092496800910099818D01B0FFF7ECB8B2
:10286000026852686FF35F2221F8022B8162A5E7AC
:1028700001B0FFF763BC0000B0B50446006804F186
:1028800008030ECB0569194325F440552A4302611C
:102890006269E3691143C268194349F20C639A43C0
:1028A0001143C1604169A26921F4407141F20043C2
:1028B000114340F48062C4F201039A42416103D1A2
:1028C000FEF782FE02E000BFFEF76AFEE1694FF606
:1028D0009C7563681922C0F6FF75B1F5004FA0FB27
:1028E00002011FD15A00DB0FFDF7D4FC48F21F5143
:1028F000C5F2EB11A0FB01235A0905F1805302FB3D
:102900000300322303EBC000A0FB01014FF4F87079
:1029100000EA111000EB0210C1F3421108442168D3
:102920008860B0BD9A009B0FFDF7B4FC48F21F51C0
:10293000C5F2EB11A0FB01235A0902FB050032236B
:1029400003EB0010A0FB0101F02000EA511000EBA6
:102950000210C1F34311084421688860B0BD000033
:1029600080B5FFF7A7FD40F2E830C2F20000BDE8F5
:102970008040FFF765B80000FEE7000040F2D40099
:10298000C2F2000070470000A0F1080212F1070F28
:102990003CBF0020704740F23812C2F2000202EB46
:1029A000801030F93C2C403800EE102A01F13B0237
:1029B00092B2762AF8EEC00A2CD8418882689FED40
:1029C0002F1A891AB1F5805FC8BFA1F5005111F522
:1029D000805FB8BF01F5005100EE101AB8EEC00AD2
:1029E00020EE010A9FED261A9FED232A20EE010A10
:1029F0009FED241AB4EE420AF1EE10FAC8BFB0EE11
:102A0000420AB4EE410AF1EE10FAB8BFB0EE410A44
:102A100026E000BF00EE101A9FED161AB8EEC00AAD
:102A200080EE010AB7EE001AB4EE410AF1EE10FA98
:102A3000C8BFB0EE410ABFEE001AB4EE410AF1EE93
:102A400010FAB8BFB0EE410A20EE001A20EE010ADB
:102A50009FED091A418820EE010A8160012101736E
:102A600080B51030FFF762FCBDEEC00A10EE100A10
:102A700080BD00BF0000254400009643000034BD27
:102A80000000C842000096C3A0F1080111F1070F31
:102A900038BF704740F23811C2F2000101EB8011DB
:102AA000DFED0B0A9FED0B1ADFED0B1A9FED0B2AE2
:102AB00001F8400C0022A1F13000B2EE040A41F806
:102AC0003E2C41F8382C01F8342CFFF77DBC00BFB8
:102AD0009A99993ECDCC4C3D0060EA460050C346E1
:102AE000A0F1080313F1070F12D340F23813C2F21A
:102AF000000303EB801010F8343C20F83E1C002B40
:102B000020F83C2C18BF70474038816001210173C8
:102B100070470000A2B0FEF7E7FBFFF7CBFDFFF721
:102B20006FFBFFF751FBFFF70FFBFFF72DFBFFF7E5
:102B3000D5FB00F047FC40F23837C2F20007002511
:102B40000E24012615A938461A951E941D96CDE926
:102B50001B56CDE91555CDE917551995FDF7FAFC2A
:102B60003846FEF799F838460221FDF789FC1AA885
:102B700070C040F26034C2F200040DF154082046E7
:102B800041461E95CDE91555CDE917554FF0000A80
:102B900019951D96FDF7DEFC2046FEF77DF82046D0
:102BA0000221FDF76DFC4FF4FA70FEF79FFA40F238
:102BB00030449FEDCBBA9FEDCBCA9FEDCB8AC2F2DA
:102BC0000004B1EE049AB6EE00AA2046B0EE490A1F
:102BD000F0EE4A0AB0EE4B1AF0EE4C1AB0EE482A6C
:102BE000FFF7F2FB04F13000B0EE490AF0EE4A0ABA
:102BF000B0EE4B1AF0EE4C1AB0EE482A0590FFF7F3
:102C0000E3FB04F16000B0EE490AF0EE4A0AB0EED0
:102C10004B1AF0EE4C1AB0EE482A0490FFF7D4FBA2
:102C200004F19000B0EE490AF0EE4A0AB0EE4B1AF9
:102C3000F0EE4C1AB0EE482A0390FFF7C5FB04F102
:102C4000C000B0EE490AF0EE4A0AB0EE4B1AF0EEC0
:102C50004C1AB0EE482A0290FFF7B6FB04F1F000E0
:102C6000B0EE490AF0EE4A0AB0EE4B1AF0EE4C1AFA
:102C7000B0EE482A0190FFF7A7FB04F59070B0EE84
:102C8000490AF0EE4A0AB0EE4B1AF0EE4C1AB0EEDA
:102C9000482AFFF799FB04F5A870B0EE490AF0EE58
:102CA0004A0AB0EE4B1AF0EE4C1AB0EE482A0090E9
:102CB000FFF78AFB0720FFF7E7FEFEF701FB40F274
:102CC0007005C2F20005DFED898AE860A8616862DC
:102CD0002863E863A8646865286608F10400DFEDEE
:102CE000849ADFED84AADFED84BADFED84CADFEDDC
:102CF00084DA0690B0EE689AB0EE68AAB0EE68CAC0
:102D0000B0EE68FAB0EE68BAB0EE68DAB0EE68EA33
:102D100000204FF0080B07908FE000BF47F23050C3
:102D20008742A8BF074648F6D020CFF6FF708742FB
:102D3000D8BF074640F2FF201590380A8DF88570FD
:102D400040F23837DDF818A0C2F200070DF154093F
:102D50000DF180081FAE00258DF8840038464946E5
:102D600042463346CAE90055CAE90255CAF810502E
:102D7000CDE91755CDF864B02095ADF88650FDF734
:102D800097FB40F2FF1015900B9849468DF8800094
:102D90000C9842468DF88100099833468DF88200E0
:102DA0000A98CAE900558DF883000898CAE90255C7
:102DB0008DF8860040F26030C2F20000CAF8105070
:102DC000CDE91755CDF864B0ADF884508DF8874043
:102DD000FDF76EFB4FF400701590139849468DF87F
:102DE0008000149842468DF88100119833468DF882
:102DF00082001298CAE900558DF883000F98CAE93D
:102E000002558DF884001098CAF810508DF885008E
:102E10000D9817958DF886000E984FF0000A8DF8E2
:102E200087003846CDE9185BFDF742FB0520FEF729
:102E30005DF940F27005C2F20005FEF741FA044662
:102E4000FFF79CFDD0B1807A012817D12878079927
:102E500061EA0000C0074FF00100287057D1B5EEBD
:102E6000409AF1EE10FA1DDA39EE299AB5EE409A41
:102E7000F1EE10FAC8BFB0EE689A21E02878012878
:102E800040D140F230410020C2F2000108620865E2
:102E9000C1F88000C1F8B0002870B5EE409AF1EE9C
:102EA00010FAE1DBB5EE409AF1EE10FA08DD39EEEA
:102EB0002A9AB5EE409AF1EE10FA01DAB0EE689A6D
:102EC000B5EE40AAF1EE10FA30DA3AEE29AAB5EEE4
:102ED00040AAF1EE10FA37DDB0EE68AA34E000BF88
:102EE000CDCCCC3D00606A460060EA4500000000A1
:102EF00000004842000048C20060EAC500C0DA4550
:102F000000C0DAC5079885F800A0C007A7D0B4EEC6
:102F10006C9AF1EE10FA61DA39EE299AB4EE6C9AF5
:102F2000F1EE10FA68DDB0EE6C9A65E0B5EE40AAFD
:102F3000F1EE10FA08DD3AEE2AAAB5EE40AAF1EE5B
:102F400010FAB8BFB0EE68AAB5EE40CAF1EE10FABA
:102F50000ADA3CEE29CAB5EE40CAF1EE10FA11DDEC
:102F6000B0EE68CA0EE000BFB5EE40CAF1EE10FA4E
:102F700008DD3CEE2ACAB5EE40CAF1EE10FAB8BF41
:102F8000B0EE68CAB5EE40FAF1EE10FA08DA3FEE9C
:102F900029FAB5EE40FAF1EE10FA0DDC16E000BFAA
:102FA000B5EE40FAF1EE10FA10DD3FEE2AFAB5EE7A
:102FB00040FAF1EE10FA09DA00200790B0EE68FA54
:102FC000FFF7DCFC002840F0938073E000200790BE
:102FD000FFF7D4FC002840F08B806BE0B4EE6C9AD5
:102FE000F1EE10FA08DD39EE2A9AB4EE6C9AF1EEA1
:102FF00010FAB8BFB0EE6C9AB4EE6DAAF1EE10FA0A
:103000000ADA3AEE29AAB4EE6DAAF1EE10FA11DD51
:10301000B0EE6DAA0EE000BFB4EE6DAAF1EE10FAAC
:1030200008DD3AEE2AAAB4EE6DAAF1EE10FAB8BFA6
:10303000B0EE6DAAB4EE6DCAF1EE10FA0ADA3CEE0B
:1030400029CAB4EE6DCAF1EE10FA11DDB0EE6DCA08
:103050000EE000BFB4EE6DCAF1EE10FA08DD3CEEF2
:103060002ACAB4EE6DCAF1EE10FAB8BFB0EE6DCA5E
:10307000B4EE6CFAF1EE10FA08DA3FEE29FAB4EE8B
:103080006CFAF1EE10FA0DDC2CE000BFB4EE6CFA35
:10309000F1EE10FA26DD3FEE2AFAB4EE6CFAF1EE0C
:1030A00010FA1FDA0120B0EE6CFA0790FFF766FC09
:1030B000F0B900BF0020B0EE680AB4EE40EAF1EECD
:1030C00010FA29DBB4EE40EAF1EE10FA2DDD3EEE07
:1030D0002AEAB4EE40EAF1EE10FA26DAB0EE40EA5F
:1030E00023E000BF01200790FFF748FC0028E1D053
:1030F000C07A4FF0FF32C1B252FA80F00129AFA17D
:10310000B0FA80F008BF043191ED000A4009B4EE36
:1031100040EAF1EE10FAD5DA3EEE29EAB4EE40EAE2
:10312000F1EE10FAC8BFB0EE40EAB0EE681A00281F
:1031300018BFB0EE6B1AB0EE680AB4EE41DA18BFF1
:10314000B0EE480AF1EE10FA0ADA3DEE29DAB4EEF2
:1031500041DAF1EE10FAC8BFB0EE41DA0EE000BF7E
:10316000B4EE41DAF1EE10FA08DD3DEE2ADAB4EE03
:1031700041DAF1EE10FA01DAB0EE41DAB4EE40BA1B
:10318000F1EE10FA0ADA3BEE29BAB4EE40BAF1EEEB
:1031900010FAC8BFB0EE40BA0EE000BFB4EE40BABD
:1031A000F1EE10FA08DD3BEE2ABAB4EE40BAF1EEC9
:1031B00010FA01DAB0EE40BAE868201A642803D9A0
:1031C0000020149015E000BFB5F9060000EE100ACB
:1031D00040F23040F8EEC00AC2F20000B0EE490AF8
:1031E000FFF7A4F8BDEEC00A10EE100A149080B2EA
:1031F000000A1390A869201A642803D900201290AD
:1032000012E000BFB5F9120000EE100A0598F8EEC2
:10321000C00AB0EE4A0AFFF789F8BDEEC00A10EE08
:10322000100A129080B2000A1190686A201A64286D
:1032300002D90020109011E0B5F91E0000EE100A2E
:103240000498F8EEC00AB0EE4C0AFFF76FF8BDEE36
:10325000C00A10EE100A109080B2000A0F90286B7E
:10326000201A642802D900200E9011E0B5F92A0036
:1032700000EE100A0398F8EEC00AB0EE4F0AFFF70E
:1032800055F8BDEEC00A10EE100A0E9080B2000A8A
:103290000D90E86B201A642802D900200C9011E0F0
:1032A000B5F9360000EE100A0298F8EEC00AB0EE4A
:1032B0004E0AFFF73BF8BDEEC00A10EE100A0C9064
:1032C00080B2000A0B90A86C201A642802D9002052
:1032D0000A9011E0B5F9420000EE100A0198F8EEEC
:1032E000C00AB0EE4D0AFFF721F8BDEEC00A10EE9D
:1032F000100A0A9080B2000A0990286E0027201A4E
:1033000064284FF000044FF0000010D8B5F95A00BF
:1033100000EE100A0098F8EEC00AB0EE4B0AFFF774
:1033200005F8BDEEC00A10EE104AA0B2000AB5EED4
:10333000409A0890F1EE10FA4FF00000B5EE40AA66
:103340004FF0000108BF0120F1EE10FA08BF012183
:103350000840B5EE40CA0021F1EE10FA08BF012185
:103360000840B5EE40FA002141F60049F1EE10FAAE
:1033700008BF0121C4F2020900EA010248464FF4E5
:10338000805182F00105FDF795FF48464FF400613A
:103390002A46FDF78FFF48464FF480610022FDF773
:1033A00089FFFFF7EBFA00283FF4B8ACB0F9021040
:1033B0000720FFF7E9FA0746B0E400BF000000006D
:1033C00000803B4540F2D401C2F2000101F1160039
:1033D0003A312422FFF70AB8F1EE100A4FF6FF71D6
:1033E000C0F2C03120EA010040F04070E1EE100A66
:1033F00070470000000000000000010203040607FF
:10340000080900000000010203040006101600066F
:1034100010160000383400080000002010000000E2
:10342000EC0100084834000810000020A80B000040
:103430000C02000800000000010000001000000065
:083440000024F400000000006C
:040000050800018965
:00000001FF
